{
  "contractName": "StoresManagement",
  "abi": [
    {
      "inputs": [],
      "stateMutability": "nonpayable",
      "type": "constructor"
    },
    {
      "inputs": [
        {
          "internalType": "uint256",
          "name": "",
          "type": "uint256"
        }
      ],
      "name": "stores",
      "outputs": [
        {
          "internalType": "address",
          "name": "",
          "type": "address"
        }
      ],
      "stateMutability": "view",
      "type": "function",
      "constant": true
    },
    {
      "inputs": [
        {
          "internalType": "address",
          "name": "_address",
          "type": "address"
        }
      ],
      "name": "addNewStore",
      "outputs": [],
      "stateMutability": "nonpayable",
      "type": "function"
    }
  ],
  "bytecode": "0x608060405234801561001057600080fd5b50336000806101000a81548173ffffffffffffffffffffffffffffffffffffffff021916908373ffffffffffffffffffffffffffffffffffffffff16021790555061027f806100606000396000f3fe608060405234801561001057600080fd5b50600436106100365760003560e01c8063cfc807141461003b578063e8a59cd814610057575b600080fd5b6100556004803603810190610050919061018f565b610087565b005b610071600480360381019061006c91906101f2565b6100ed565b60405161007e919061022e565b60405180910390f35b6001819080600181540180825580915050600190039060005260206000200160009091909190916101000a81548173ffffffffffffffffffffffffffffffffffffffff021916908373ffffffffffffffffffffffffffffffffffffffff16021790555050565b600181815481106100fd57600080fd5b906000526020600020016000915054906101000a900473ffffffffffffffffffffffffffffffffffffffff1681565b600080fd5b600073ffffffffffffffffffffffffffffffffffffffff82169050919050565b600061015c82610131565b9050919050565b61016c81610151565b811461017757600080fd5b50565b60008135905061018981610163565b92915050565b6000602082840312156101a5576101a461012c565b5b60006101b38482850161017a565b91505092915050565b6000819050919050565b6101cf816101bc565b81146101da57600080fd5b50565b6000813590506101ec816101c6565b92915050565b6000602082840312156102085761020761012c565b5b6000610216848285016101dd565b91505092915050565b61022881610151565b82525050565b6000602082019050610243600083018461021f565b9291505056fea2646970667358221220adea7ceb4a7e9c95b7edeee1dea8227936ae0f9096259f17dc29b3857637f7ae64736f6c63430008110033",
  "immutableReferences": {},
  "source": "// SPDX-License-Identifier: MIT\r\n\r\npragma solidity ^0.8.15;\r\n\r\ncontract StoresManagement {\r\n    address private owner;\r\n    address[] public stores;\r\n\r\n    modifier isOwner() {\r\n        require(owner == msg.sender, \"Not owner\");\r\n        _;\r\n    }\r\n\r\n    constructor() {\r\n        owner = msg.sender;\r\n    }\r\n\r\n    function addNewStore(address _address) public {\r\n        stores.push(_address);\r\n    }\r\n}\r\n",
  "sourcePath": "C:\\Users\\Inteli\\Documents\\GitHub\\snack-fair-hackathon\\ethereum\\contracts\\storesManagement.sol",
  "compiler": {
    "name": "solc",
    "version": "0.8.17+commit.8df45f5f.Emscripten.clang"
  },
  "schemaVersion": "3.4.10",
  "updatedAt": "2022-10-09T05:42:21.832Z",
  "networkType": "ethereum",
  "devdoc": {
    "kind": "dev",
    "methods": {},
    "version": 1
  },
  "userdoc": {
    "kind": "user",
    "methods": {},
    "version": 1
  }
}