{
  "contractName": "Users",
  "abi": [
    {
      "anonymous": false,
      "inputs": [
        {
          "indexed": false,
          "internalType": "uint256",
          "name": "",
          "type": "uint256"
        }
      ],
      "name": "stakeReceived",
      "type": "event"
    },
    {
      "inputs": [
        {
          "internalType": "address",
          "name": "",
          "type": "address"
        }
      ],
      "name": "userStakedAmount",
      "outputs": [
        {
          "internalType": "uint256",
          "name": "",
          "type": "uint256"
        }
      ],
      "stateMutability": "view",
      "type": "function"
    },
    {
      "inputs": [
        {
          "internalType": "address",
          "name": "",
          "type": "address"
        },
        {
          "internalType": "uint256",
          "name": "",
          "type": "uint256"
        }
      ],
      "name": "usersOrders",
      "outputs": [
        {
          "internalType": "uint256",
          "name": "",
          "type": "uint256"
        }
      ],
      "stateMutability": "view",
      "type": "function"
    },
    {
      "inputs": [],
      "name": "stakeToOrder",
      "outputs": [],
      "stateMutability": "payable",
      "type": "function"
    },
    {
      "inputs": [],
      "name": "unstakeToNotOrder",
      "outputs": [],
      "stateMutability": "nonpayable",
      "type": "function"
    },
    {
      "inputs": [
        {
          "internalType": "address",
          "name": "_user",
          "type": "address"
        }
      ],
      "name": "seeDeliveries",
      "outputs": [
        {
          "internalType": "uint256[]",
          "name": "",
          "type": "uint256[]"
        }
      ],
      "stateMutability": "view",
      "type": "function"
    }
  ],
  "bytecode": "0x608060405234801561001057600080fd5b50610674806100206000396000f3fe60806040526004361061004a5760003560e01c80630ccde8de1461004f5780638e4647ee146100595780639d7cf9c514610096578063fa1ba123146100d3578063fdd5b72814610110575b600080fd5b610057610127565b005b34801561006557600080fd5b50610080600480360381019061007b91906103ee565b6101a3565b60405161008d9190610434565b60405180910390f35b3480156100a257600080fd5b506100bd60048036038101906100b8919061047b565b6101bb565b6040516100ca9190610434565b60405180910390f35b3480156100df57600080fd5b506100fa60048036038101906100f591906103ee565b6101ec565b6040516101079190610579565b60405180910390f35b34801561011c57600080fd5b50610125610283565b005b346000803373ffffffffffffffffffffffffffffffffffffffff1673ffffffffffffffffffffffffffffffffffffffff168152602001908152602001600020819055507f3e37ced47252997d3ed42ecad1c1a2f6ea68da16c35a9342232c518e3a0935eb346040516101999190610434565b60405180910390a1565b60006020528060005260406000206000915090505481565b600160205281600052604060002081815481106101d757600080fd5b90600052602060002001600091509150505481565b6060600160008373ffffffffffffffffffffffffffffffffffffffff1673ffffffffffffffffffffffffffffffffffffffff16815260200190815260200160002080548060200260200160405190810160405280929190818152602001828054801561027757602002820191906000526020600020905b815481526020019060010190808311610263575b50505050509050919050565b60008060003373ffffffffffffffffffffffffffffffffffffffff1673ffffffffffffffffffffffffffffffffffffffff1681526020019081526020016000205411610304576040517f08c379a00000000000000000000000000000000000000000000000000000000081526004016102fb9061061e565b60405180910390fd5b3373ffffffffffffffffffffffffffffffffffffffff166108fc6000803373ffffffffffffffffffffffffffffffffffffffff1673ffffffffffffffffffffffffffffffffffffffff168152602001908152602001600020549081150290604051600060405180830381858888f19350505050158015610388573d6000803e3d6000fd5b50565b600080fd5b600073ffffffffffffffffffffffffffffffffffffffff82169050919050565b60006103bb82610390565b9050919050565b6103cb816103b0565b81146103d657600080fd5b50565b6000813590506103e8816103c2565b92915050565b6000602082840312156104045761040361038b565b5b6000610412848285016103d9565b91505092915050565b6000819050919050565b61042e8161041b565b82525050565b60006020820190506104496000830184610425565b92915050565b6104588161041b565b811461046357600080fd5b50565b6000813590506104758161044f565b92915050565b600080604083850312156104925761049161038b565b5b60006104a0858286016103d9565b92505060206104b185828601610466565b9150509250929050565b600081519050919050565b600082825260208201905092915050565b6000819050602082019050919050565b6104f08161041b565b82525050565b600061050283836104e7565b60208301905092915050565b6000602082019050919050565b6000610526826104bb565b61053081856104c6565b935061053b836104d7565b8060005b8381101561056c57815161055388826104f6565b975061055e8361050e565b92505060018101905061053f565b5085935050505092915050565b60006020820190508181036000830152610593818461051b565b905092915050565b600082825260208201905092915050565b7f596f7520646f6e2774206861766520616e797468696e6720746f20776974686460008201527f7261770000000000000000000000000000000000000000000000000000000000602082015250565b600061060860238361059b565b9150610613826105ac565b604082019050919050565b60006020820190508181036000830152610637816105fb565b905091905056fea26469706673582212207f55a0dae03c1a1bea95a278f7c89fd0ee258348fb8ec2962f59729dcc37b4c564736f6c63430008110033",
  "immutableReferences": {},
  "source": "//SPDX-License-Identifier: GPL-3.0\r\npragma solidity ^0.8.0;\r\n\r\ncontract Users {\r\n    // State variables\r\n\r\n    mapping(address => uint256) public userStakedAmount;\r\n    mapping(address => uint256[]) public usersOrders;\r\n\r\n    event stakeReceived(uint256);\r\n\r\n    function stakeToOrder() public payable {\r\n        userStakedAmount[msg.sender] = msg.value;\r\n        emit stakeReceived(msg.value);\r\n    }\r\n\r\n    function unstakeToNotOrder() public {\r\n        require(userStakedAmount[msg.sender] > 0, \"You don't have anything to withdraw\");\r\n        payable(msg.sender).transfer(userStakedAmount[msg.sender]);\r\n    }\r\n\r\n    function seeDeliveries(address _user) public view returns (uint[] memory) {\r\n        return usersOrders[_user];\r\n    }\r\n\r\n    function _delivery(uint _orderId) internal {\r\n        usersOrders[msg.sender].push(_orderId);\r\n    }\r\n}\r\n",
  "sourcePath": "C:\\Users\\Inteli\\Documents\\GitHub\\snack-fair-hackathon\\ethereum\\contracts\\users.sol",
  "compiler": {
    "name": "solc",
    "version": "0.8.17+commit.8df45f5f.Emscripten.clang"
  },
  "schemaVersion": "3.4.10",
  "updatedAt": "2022-10-09T05:41:37.389Z",
  "devdoc": {
    "kind": "dev",
    "methods": {},
    "version": 1
  },
  "userdoc": {
    "kind": "user",
    "methods": {},
    "version": 1
  }
}