{
  "contractName": "Orders",
  "abi": [
    {
      "inputs": [],
      "stateMutability": "nonpayable",
      "type": "constructor"
    },
    {
      "anonymous": false,
      "inputs": [
        {
          "indexed": true,
          "internalType": "address",
          "name": "owner",
          "type": "address"
        },
        {
          "indexed": true,
          "internalType": "address",
          "name": "approved",
          "type": "address"
        },
        {
          "indexed": true,
          "internalType": "uint256",
          "name": "tokenId",
          "type": "uint256"
        }
      ],
      "name": "Approval",
      "type": "event"
    },
    {
      "anonymous": false,
      "inputs": [
        {
          "indexed": true,
          "internalType": "address",
          "name": "owner",
          "type": "address"
        },
        {
          "indexed": true,
          "internalType": "address",
          "name": "operator",
          "type": "address"
        },
        {
          "indexed": false,
          "internalType": "bool",
          "name": "approved",
          "type": "bool"
        }
      ],
      "name": "ApprovalForAll",
      "type": "event"
    },
    {
      "anonymous": false,
      "inputs": [
        {
          "indexed": true,
          "internalType": "address",
          "name": "from",
          "type": "address"
        },
        {
          "indexed": true,
          "internalType": "address",
          "name": "to",
          "type": "address"
        },
        {
          "indexed": true,
          "internalType": "uint256",
          "name": "tokenId",
          "type": "uint256"
        }
      ],
      "name": "Transfer",
      "type": "event"
    },
    {
      "anonymous": false,
      "inputs": [
        {
          "indexed": false,
          "internalType": "uint256",
          "name": "",
          "type": "uint256"
        }
      ],
      "name": "stakeReceived",
      "type": "event"
    },
    {
      "anonymous": false,
      "inputs": [
        {
          "indexed": false,
          "internalType": "uint256",
          "name": "",
          "type": "uint256"
        }
      ],
      "name": "stakeToDeliverReceived",
      "type": "event"
    },
    {
      "inputs": [],
      "name": "_tokenIds",
      "outputs": [
        {
          "internalType": "uint256",
          "name": "_value",
          "type": "uint256"
        }
      ],
      "stateMutability": "view",
      "type": "function"
    },
    {
      "inputs": [
        {
          "internalType": "address",
          "name": "to",
          "type": "address"
        },
        {
          "internalType": "uint256",
          "name": "tokenId",
          "type": "uint256"
        }
      ],
      "name": "approve",
      "outputs": [],
      "stateMutability": "nonpayable",
      "type": "function"
    },
    {
      "inputs": [
        {
          "internalType": "address",
          "name": "owner",
          "type": "address"
        }
      ],
      "name": "balanceOf",
      "outputs": [
        {
          "internalType": "uint256",
          "name": "",
          "type": "uint256"
        }
      ],
      "stateMutability": "view",
      "type": "function"
    },
    {
      "inputs": [
        {
          "internalType": "address",
          "name": "",
          "type": "address"
        },
        {
          "internalType": "uint256",
          "name": "",
          "type": "uint256"
        }
      ],
      "name": "deliverManOrders",
      "outputs": [
        {
          "internalType": "uint256",
          "name": "",
          "type": "uint256"
        }
      ],
      "stateMutability": "view",
      "type": "function"
    },
    {
      "inputs": [
        {
          "internalType": "address",
          "name": "",
          "type": "address"
        }
      ],
      "name": "deliverManStakedAmount",
      "outputs": [
        {
          "internalType": "uint256",
          "name": "",
          "type": "uint256"
        }
      ],
      "stateMutability": "view",
      "type": "function"
    },
    {
      "inputs": [
        {
          "internalType": "uint256",
          "name": "tokenId",
          "type": "uint256"
        }
      ],
      "name": "getApproved",
      "outputs": [
        {
          "internalType": "address",
          "name": "",
          "type": "address"
        }
      ],
      "stateMutability": "view",
      "type": "function"
    },
    {
      "inputs": [
        {
          "internalType": "address",
          "name": "owner",
          "type": "address"
        },
        {
          "internalType": "address",
          "name": "operator",
          "type": "address"
        }
      ],
      "name": "isApprovedForAll",
      "outputs": [
        {
          "internalType": "bool",
          "name": "",
          "type": "bool"
        }
      ],
      "stateMutability": "view",
      "type": "function"
    },
    {
      "inputs": [],
      "name": "name",
      "outputs": [
        {
          "internalType": "string",
          "name": "",
          "type": "string"
        }
      ],
      "stateMutability": "view",
      "type": "function"
    },
    {
      "inputs": [
        {
          "internalType": "uint256",
          "name": "",
          "type": "uint256"
        }
      ],
      "name": "orderCreator",
      "outputs": [
        {
          "internalType": "address",
          "name": "",
          "type": "address"
        }
      ],
      "stateMutability": "view",
      "type": "function"
    },
    {
      "inputs": [
        {
          "internalType": "uint256",
          "name": "",
          "type": "uint256"
        }
      ],
      "name": "orderPrice",
      "outputs": [
        {
          "internalType": "uint256",
          "name": "",
          "type": "uint256"
        }
      ],
      "stateMutability": "view",
      "type": "function"
    },
    {
      "inputs": [
        {
          "internalType": "uint256",
          "name": "",
          "type": "uint256"
        }
      ],
      "name": "ordersStatus",
      "outputs": [
        {
          "internalType": "uint256",
          "name": "",
          "type": "uint256"
        }
      ],
      "stateMutability": "view",
      "type": "function"
    },
    {
      "inputs": [],
      "name": "owner",
      "outputs": [
        {
          "internalType": "address",
          "name": "",
          "type": "address"
        }
      ],
      "stateMutability": "view",
      "type": "function"
    },
    {
      "inputs": [
        {
          "internalType": "uint256",
          "name": "tokenId",
          "type": "uint256"
        }
      ],
      "name": "ownerOf",
      "outputs": [
        {
          "internalType": "address",
          "name": "",
          "type": "address"
        }
      ],
      "stateMutability": "view",
      "type": "function"
    },
    {
      "inputs": [
        {
          "internalType": "address",
          "name": "_user",
          "type": "address"
        }
      ],
      "name": "seeDeliveries",
      "outputs": [
        {
          "internalType": "uint256[]",
          "name": "",
          "type": "uint256[]"
        }
      ],
      "stateMutability": "view",
      "type": "function"
    },
    {
      "inputs": [
        {
          "internalType": "address",
          "name": "_user",
          "type": "address"
        }
      ],
      "name": "seeOrders",
      "outputs": [
        {
          "internalType": "uint256[]",
          "name": "",
          "type": "uint256[]"
        }
      ],
      "stateMutability": "view",
      "type": "function"
    },
    {
      "inputs": [
        {
          "internalType": "address",
          "name": "operator",
          "type": "address"
        },
        {
          "internalType": "bool",
          "name": "approved",
          "type": "bool"
        }
      ],
      "name": "setApprovalForAll",
      "outputs": [],
      "stateMutability": "nonpayable",
      "type": "function"
    },
    {
      "inputs": [],
      "name": "stakeToDeliver",
      "outputs": [],
      "stateMutability": "payable",
      "type": "function"
    },
    {
      "inputs": [],
      "name": "stakeToOrder",
      "outputs": [],
      "stateMutability": "payable",
      "type": "function"
    },
    {
      "inputs": [
        {
          "internalType": "bytes4",
          "name": "interfaceId",
          "type": "bytes4"
        }
      ],
      "name": "supportsInterface",
      "outputs": [
        {
          "internalType": "bool",
          "name": "",
          "type": "bool"
        }
      ],
      "stateMutability": "view",
      "type": "function"
    },
    {
      "inputs": [],
      "name": "symbol",
      "outputs": [
        {
          "internalType": "string",
          "name": "",
          "type": "string"
        }
      ],
      "stateMutability": "view",
      "type": "function"
    },
    {
      "inputs": [
        {
          "internalType": "uint256",
          "name": "tokenId",
          "type": "uint256"
        }
      ],
      "name": "tokenURI",
      "outputs": [
        {
          "internalType": "string",
          "name": "",
          "type": "string"
        }
      ],
      "stateMutability": "view",
      "type": "function"
    },
    {
      "inputs": [],
      "name": "unstakeToNotDeliver",
      "outputs": [],
      "stateMutability": "nonpayable",
      "type": "function"
    },
    {
      "inputs": [],
      "name": "unstakeToNotOrder",
      "outputs": [],
      "stateMutability": "nonpayable",
      "type": "function"
    },
    {
      "inputs": [
        {
          "internalType": "address",
          "name": "",
          "type": "address"
        }
      ],
      "name": "userStakedAmount",
      "outputs": [
        {
          "internalType": "uint256",
          "name": "",
          "type": "uint256"
        }
      ],
      "stateMutability": "view",
      "type": "function"
    },
    {
      "inputs": [
        {
          "internalType": "address",
          "name": "",
          "type": "address"
        },
        {
          "internalType": "uint256",
          "name": "",
          "type": "uint256"
        }
      ],
      "name": "usersOrders",
      "outputs": [
        {
          "internalType": "uint256",
          "name": "",
          "type": "uint256"
        }
      ],
      "stateMutability": "view",
      "type": "function"
    },
    {
      "inputs": [],
      "name": "getLatestPrice",
      "outputs": [
        {
          "internalType": "int256",
          "name": "",
          "type": "int256"
        }
      ],
      "stateMutability": "view",
      "type": "function"
    },
    {
      "inputs": [
        {
          "internalType": "string",
          "name": "_tokenURI",
          "type": "string"
        },
        {
          "internalType": "address",
          "name": "_to",
          "type": "address"
        },
        {
          "internalType": "uint256",
          "name": "_price",
          "type": "uint256"
        },
        {
          "internalType": "uint256[]",
          "name": "_orderItens",
          "type": "uint256[]"
        },
        {
          "internalType": "uint256[]",
          "name": "_amount",
          "type": "uint256[]"
        }
      ],
      "name": "createOrder",
      "outputs": [],
      "stateMutability": "payable",
      "type": "function"
    },
    {
      "inputs": [
        {
          "internalType": "uint256",
          "name": "_id",
          "type": "uint256"
        }
      ],
      "name": "cancelOrder",
      "outputs": [],
      "stateMutability": "nonpayable",
      "type": "function"
    },
    {
      "inputs": [
        {
          "internalType": "uint256",
          "name": "_orderItensIndex",
          "type": "uint256"
        }
      ],
      "name": "getOrderDetailsArray",
      "outputs": [
        {
          "components": [
            {
              "internalType": "uint256",
              "name": "_itemId",
              "type": "uint256"
            },
            {
              "internalType": "uint256",
              "name": "_amount",
              "type": "uint256"
            }
          ],
          "internalType": "struct Orders.OrderDetails[]",
          "name": "",
          "type": "tuple[]"
        }
      ],
      "stateMutability": "view",
      "type": "function"
    },
    {
      "inputs": [
        {
          "internalType": "uint256",
          "name": "_id",
          "type": "uint256"
        }
      ],
      "name": "takeOrder",
      "outputs": [],
      "stateMutability": "nonpayable",
      "type": "function"
    },
    {
      "inputs": [
        {
          "internalType": "uint256",
          "name": "_id",
          "type": "uint256"
        },
        {
          "internalType": "uint256",
          "name": "_newValue",
          "type": "uint256"
        }
      ],
      "name": "changeOrderStatus",
      "outputs": [],
      "stateMutability": "nonpayable",
      "type": "function"
    },
    {
      "inputs": [
        {
          "internalType": "uint256",
          "name": "_orderId",
          "type": "uint256"
        }
      ],
      "name": "deliverOrder",
      "outputs": [],
      "stateMutability": "nonpayable",
      "type": "function"
    },
    {
      "inputs": [
        {
          "internalType": "address",
          "name": "from",
          "type": "address"
        },
        {
          "internalType": "address",
          "name": "to",
          "type": "address"
        },
        {
          "internalType": "uint256",
          "name": "tokenId",
          "type": "uint256"
        }
      ],
      "name": "transferFrom",
      "outputs": [],
      "stateMutability": "nonpayable",
      "type": "function"
    },
    {
      "inputs": [
        {
          "internalType": "address",
          "name": "from",
          "type": "address"
        },
        {
          "internalType": "address",
          "name": "to",
          "type": "address"
        },
        {
          "internalType": "uint256",
          "name": "tokenId",
          "type": "uint256"
        }
      ],
      "name": "safeTransferFrom",
      "outputs": [],
      "stateMutability": "nonpayable",
      "type": "function"
    },
    {
      "inputs": [
        {
          "internalType": "address",
          "name": "from",
          "type": "address"
        },
        {
          "internalType": "address",
          "name": "to",
          "type": "address"
        },
        {
          "internalType": "uint256",
          "name": "tokenId",
          "type": "uint256"
        },
        {
          "internalType": "bytes",
          "name": "data",
          "type": "bytes"
        }
      ],
      "name": "safeTransferFrom",
      "outputs": [],
      "stateMutability": "nonpayable",
      "type": "function"
    }
  ],
  "bytecode": "0x60806040523480156200001157600080fd5b506040518060400160405280600581526020017f4f726465720000000000000000000000000000000000000000000000000000008152506040518060400160405280600381526020017f4f4452000000000000000000000000000000000000000000000000000000000081525081600090816200008f9190620003ba565b508060019081620000a19190620003ba565b50505033600a60006101000a81548173ffffffffffffffffffffffffffffffffffffffff021916908373ffffffffffffffffffffffffffffffffffffffff160217905550730715a7794a1dc8e42615f059dd6e406a6594651a600b60006101000a81548173ffffffffffffffffffffffffffffffffffffffff021916908373ffffffffffffffffffffffffffffffffffffffff160217905550620004a1565b600081519050919050565b7f4e487b7100000000000000000000000000000000000000000000000000000000600052604160045260246000fd5b7f4e487b7100000000000000000000000000000000000000000000000000000000600052602260045260246000fd5b60006002820490506001821680620001c257607f821691505b602082108103620001d857620001d76200017a565b5b50919050565b60008190508160005260206000209050919050565b60006020601f8301049050919050565b600082821b905092915050565b600060088302620002427fffffffffffffffffffffffffffffffffffffffffffffffffffffffffffffffff8262000203565b6200024e868362000203565b95508019841693508086168417925050509392505050565b6000819050919050565b6000819050919050565b60006200029b620002956200028f8462000266565b62000270565b62000266565b9050919050565b6000819050919050565b620002b7836200027a565b620002cf620002c682620002a2565b84845462000210565b825550505050565b600090565b620002e6620002d7565b620002f3818484620002ac565b505050565b5b818110156200031b576200030f600082620002dc565b600181019050620002f9565b5050565b601f8211156200036a576200033481620001de565b6200033f84620001f3565b810160208510156200034f578190505b620003676200035e85620001f3565b830182620002f8565b50505b505050565b600082821c905092915050565b60006200038f600019846008026200036f565b1980831691505092915050565b6000620003aa83836200037c565b9150826002028217905092915050565b620003c58262000140565b67ffffffffffffffff811115620003e157620003e06200014b565b5b620003ed8254620001a9565b620003fa8282856200031f565b600060209050601f8311600181146200043257600084156200041d578287015190505b6200042985826200039c565b86555062000499565b601f1984166200044286620001de565b60005b828110156200046c5784890151825560018201915060208501945060208101905062000445565b868310156200048c578489015162000488601f8916826200037c565b8355505b6001600288020188555050505b505050505050565b61458780620004b16000396000f3fe6080604052600436106102045760003560e01c80638e4647ee11610118578063ddff5e7d116100a0578063ebe5d1001161006f578063ebe5d10014610795578063f78f332e146107b1578063fa1ba123146107ee578063fa5a7fc21461082b578063fdd5b7281461086857610204565b8063ddff5e7d146106c9578063deb7bfea146106f2578063e985e9c51461071b578063eba720821461075857610204565b8063aa46a400116100e7578063aa46a400146105be578063b88d4fde146105e9578063c87b56dd14610612578063d42b5de91461064f578063d93d33901461068c57610204565b80638e4647ee146104f057806395d89b411461052d5780639d7cf9c514610558578063a22cb4651461059557610204565b806342842e0e1161019b57806366a236e61161016a57806366a236e614610409578063699a00b81461044657806370a082311461045d5780638da5cb5b1461049a5780638e15f473146104c557610204565b806342842e0e1461033d578063514fcac7146103665780635fff09d51461038f5780636352211e146103cc57610204565b80630bd654ff116101d75780630bd654ff146102d75780630ccde8de146102e157806323b872dd146102eb5780633b5d1a241461031457610204565b806301ffc9a71461020957806306fdde0314610246578063081812fc14610271578063095ea7b3146102ae575b600080fd5b34801561021557600080fd5b50610230600480360381019061022b9190612af7565b61087f565b60405161023d9190612b3f565b60405180910390f35b34801561025257600080fd5b5061025b610961565b6040516102689190612bea565b60405180910390f35b34801561027d57600080fd5b5061029860048036038101906102939190612c42565b6109f3565b6040516102a59190612cb0565b60405180910390f35b3480156102ba57600080fd5b506102d560048036038101906102d09190612cf7565b610a39565b005b6102df610b50565b005b6102e9610bcd565b005b3480156102f757600080fd5b50610312600480360381019061030d9190612d37565b610c4a565b005b34801561032057600080fd5b5061033b60048036038101906103369190612c42565b610d00565b005b34801561034957600080fd5b50610364600480360381019061035f9190612d37565b610e61565b005b34801561037257600080fd5b5061038d60048036038101906103889190612c42565b610ed7565b005b34801561039b57600080fd5b506103b660048036038101906103b19190612c42565b610fd4565b6040516103c39190612d99565b60405180910390f35b3480156103d857600080fd5b506103f360048036038101906103ee9190612c42565b610fec565b6040516104009190612cb0565b60405180910390f35b34801561041557600080fd5b50610430600480360381019061042b9190612c42565b61109d565b60405161043d9190612cb0565b60405180910390f35b34801561045257600080fd5b5061045b6110d0565b005b34801561046957600080fd5b50610484600480360381019061047f9190612db4565b6111da565b6040516104919190612d99565b60405180910390f35b3480156104a657600080fd5b506104af611291565b6040516104bc9190612cb0565b60405180910390f35b3480156104d157600080fd5b506104da6112b7565b6040516104e79190612dfa565b60405180910390f35b3480156104fc57600080fd5b5061051760048036038101906105129190612db4565b611366565b6040516105249190612d99565b60405180910390f35b34801561053957600080fd5b5061054261137e565b60405161054f9190612bea565b60405180910390f35b34801561056457600080fd5b5061057f600480360381019061057a9190612cf7565b611410565b60405161058c9190612d99565b60405180910390f35b3480156105a157600080fd5b506105bc60048036038101906105b79190612e41565b611441565b005b3480156105ca57600080fd5b506105d3611457565b6040516105e09190612d99565b60405180910390f35b3480156105f557600080fd5b50610610600480360381019061060b9190612fb6565b611463565b005b34801561061e57600080fd5b5061063960048036038101906106349190612c42565b61151b565b6040516106469190612bea565b60405180910390f35b34801561065b57600080fd5b5061067660048036038101906106719190612cf7565b611583565b6040516106839190612d99565b60405180910390f35b34801561069857600080fd5b506106b360048036038101906106ae9190612c42565b6115b4565b6040516106c09190612d99565b60405180910390f35b3480156106d557600080fd5b506106f060048036038101906106eb9190612c42565b6115cc565b005b3480156106fe57600080fd5b5061071960048036038101906107149190613039565b61169c565b005b34801561072757600080fd5b50610742600480360381019061073d9190613079565b61172e565b60405161074f9190612b3f565b60405180910390f35b34801561076457600080fd5b5061077f600480360381019061077a9190612db4565b6117c2565b60405161078c9190613177565b60405180910390f35b6107af60048036038101906107aa9190613302565b611859565b005b3480156107bd57600080fd5b506107d860048036038101906107d39190612db4565b611a8c565b6040516107e59190612d99565b60405180910390f35b3480156107fa57600080fd5b5061081560048036038101906108109190612db4565b611aa4565b6040516108229190613177565b60405180910390f35b34801561083757600080fd5b50610852600480360381019061084d9190612c42565b611b3b565b60405161085f91906134af565b60405180910390f35b34801561087457600080fd5b5061087d611bc1565b005b60007f80ac58cd000000000000000000000000000000000000000000000000000000007bffffffffffffffffffffffffffffffffffffffffffffffffffffffff1916827bffffffffffffffffffffffffffffffffffffffffffffffffffffffff1916148061094a57507f5b5e139f000000000000000000000000000000000000000000000000000000007bffffffffffffffffffffffffffffffffffffffffffffffffffffffff1916827bffffffffffffffffffffffffffffffffffffffffffffffffffffffff1916145b8061095a575061095982611ccb565b5b9050919050565b60606000805461097090613500565b80601f016020809104026020016040519081016040528092919081815260200182805461099c90613500565b80156109e95780601f106109be576101008083540402835291602001916109e9565b820191906000526020600020905b8154815290600101906020018083116109cc57829003601f168201915b5050505050905090565b60006109fe82611d35565b6004600083815260200190815260200160002060009054906101000a900473ffffffffffffffffffffffffffffffffffffffff169050919050565b6000610a4482610fec565b90508073ffffffffffffffffffffffffffffffffffffffff168373ffffffffffffffffffffffffffffffffffffffff1603610ab4576040517f08c379a0000000000000000000000000000000000000000000000000000000008152600401610aab906135a3565b60405180910390fd5b8073ffffffffffffffffffffffffffffffffffffffff16610ad3611d80565b73ffffffffffffffffffffffffffffffffffffffff161480610b025750610b0181610afc611d80565b61172e565b5b610b41576040517f08c379a0000000000000000000000000000000000000000000000000000000008152600401610b3890613635565b60405180910390fd5b610b4b8383611d88565b505050565b34600860003373ffffffffffffffffffffffffffffffffffffffff1673ffffffffffffffffffffffffffffffffffffffff168152602001908152602001600020819055507fa39d022efec364dc4b1f13eb828747c5fb4b650e796f9d70150a9554dcbfce2a34604051610bc39190612d99565b60405180910390a1565b34600660003373ffffffffffffffffffffffffffffffffffffffff1673ffffffffffffffffffffffffffffffffffffffff168152602001908152602001600020819055507f3e37ced47252997d3ed42ecad1c1a2f6ea68da16c35a9342232c518e3a0935eb34604051610c409190612d99565b60405180910390a1565b610c5b610c55611d80565b82611e41565b610c9a576040517f08c379a0000000000000000000000000000000000000000000000000000000008152600401610c91906136c7565b60405180910390fd5b6003600f60008381526020019081526020016000205403610cf0576040517f08c379a0000000000000000000000000000000000000000000000000000000008152600401610ce790613733565b60405180910390fd5b610cfb838383611ed6565b505050565b662386f26fc10000600860003373ffffffffffffffffffffffffffffffffffffffff1673ffffffffffffffffffffffffffffffffffffffff168152602001908152602001600020541015610d89576040517f08c379a0000000000000000000000000000000000000000000000000000000008152600401610d80906137c5565b60405180910390fd5b6000600f60008381526020019081526020016000205414610ddf576040517f08c379a0000000000000000000000000000000000000000000000000000000008152600401610dd690613831565b60405180910390fd5b600960003373ffffffffffffffffffffffffffffffffffffffff1673ffffffffffffffffffffffffffffffffffffffff1681526020019081526020016000208190806001815401808255809150506001900390600052602060002001600090919091909150556001600f60008381526020019081526020016000208190555050565b6003600f60008381526020019081526020016000205403610eb7576040517f08c379a0000000000000000000000000000000000000000000000000000000008152600401610eae90613733565b60405180910390fd5b610ed283838360405180602001604052806000815250611463565b505050565b3373ffffffffffffffffffffffffffffffffffffffff16600a60009054906101000a900473ffffffffffffffffffffffffffffffffffffffff1673ffffffffffffffffffffffffffffffffffffffff1614610f67576040517f08c379a0000000000000000000000000000000000000000000000000000000008152600401610f5e9061389d565b60405180910390fd5b610f708161213c565b610faf576040517f08c379a0000000000000000000000000000000000000000000000000000000008152600401610fa69061392f565b60405180910390fd5b610fb8816121a8565b6005600f60008381526020019081526020016000208190555050565b60116020528060005260406000206000915090505481565b6000806002600084815260200190815260200160002060009054906101000a900473ffffffffffffffffffffffffffffffffffffffff169050600073ffffffffffffffffffffffffffffffffffffffff168173ffffffffffffffffffffffffffffffffffffffff1603611094576040517f08c379a000000000000000000000000000000000000000000000000000000000815260040161108b9061399b565b60405180910390fd5b80915050919050565b60106020528060005260406000206000915054906101000a900473ffffffffffffffffffffffffffffffffffffffff1681565b6000600860003373ffffffffffffffffffffffffffffffffffffffff1673ffffffffffffffffffffffffffffffffffffffff1681526020019081526020016000205411611152576040517f08c379a000000000000000000000000000000000000000000000000000000000815260040161114990613a2d565b60405180910390fd5b3373ffffffffffffffffffffffffffffffffffffffff166108fc600860003373ffffffffffffffffffffffffffffffffffffffff1673ffffffffffffffffffffffffffffffffffffffff168152602001908152602001600020549081150290604051600060405180830381858888f193505050501580156111d7573d6000803e3d6000fd5b50565b60008073ffffffffffffffffffffffffffffffffffffffff168273ffffffffffffffffffffffffffffffffffffffff160361124a576040517f08c379a000000000000000000000000000000000000000000000000000000000815260040161124190613abf565b60405180910390fd5b600360008373ffffffffffffffffffffffffffffffffffffffff1673ffffffffffffffffffffffffffffffffffffffff168152602001908152602001600020549050919050565b600a60009054906101000a900473ffffffffffffffffffffffffffffffffffffffff1681565b600080600080600080600b60009054906101000a900473ffffffffffffffffffffffffffffffffffffffff1673ffffffffffffffffffffffffffffffffffffffff1663feaf968c6040518163ffffffff1660e01b815260040160a060405180830381865afa15801561132d573d6000803e3d6000fd5b505050506040513d601f19601f820116820180604052508101906113519190613b62565b94509450945094509450839550505050505090565b60066020528060005260406000206000915090505481565b60606001805461138d90613500565b80601f01602080910402602001604051908101604052809291908181526020018280546113b990613500565b80156114065780601f106113db57610100808354040283529160200191611406565b820191906000526020600020905b8154815290600101906020018083116113e957829003601f168201915b5050505050905090565b6007602052816000526040600020818154811061142c57600080fd5b90600052602060002001600091509150505481565b61145361144c611d80565b83836122c5565b5050565b600c8060000154905081565b6003600f600084815260200190815260200160002054036114b9576040517f08c379a00000000000000000000000000000000000000000000000000000000081526004016114b090613733565b60405180910390fd5b6114ca6114c4611d80565b83611e41565b611509576040517f08c379a0000000000000000000000000000000000000000000000000000000008152600401611500906136c7565b60405180910390fd5b61151584848484612431565b50505050565b606061152682611d35565b600061153061248d565b90506000815111611550576040518060200160405280600081525061157b565b8061155a846124a4565b60405160200161156b929190613c19565b6040516020818303038152906040525b915050919050565b6009602052816000526040600020818154811061159f57600080fd5b90600052602060002001600091509150505481565b600f6020528060005260406000206000915090505481565b3373ffffffffffffffffffffffffffffffffffffffff166115ec82610fec565b73ffffffffffffffffffffffffffffffffffffffff1614611642576040517f08c379a000000000000000000000000000000000000000000000000000000000815260040161163990613c89565b60405180910390fd5b611680336010600084815260200190815260200160002060009054906101000a900473ffffffffffffffffffffffffffffffffffffffff1683610c4a565b6003600f60008381526020019081526020016000208190555050565b3373ffffffffffffffffffffffffffffffffffffffff166116bc83610fec565b73ffffffffffffffffffffffffffffffffffffffff1614611712576040517f08c379a000000000000000000000000000000000000000000000000000000000815260040161170990613c89565b60405180910390fd5b80600f6000848152602001908152602001600020819055505050565b6000600560008473ffffffffffffffffffffffffffffffffffffffff1673ffffffffffffffffffffffffffffffffffffffff16815260200190815260200160002060008373ffffffffffffffffffffffffffffffffffffffff1673ffffffffffffffffffffffffffffffffffffffff16815260200190815260200160002060009054906101000a900460ff16905092915050565b6060600960008373ffffffffffffffffffffffffffffffffffffffff1673ffffffffffffffffffffffffffffffffffffffff16815260200190815260200160002080548060200260200160405190810160405280929190818152602001828054801561184d57602002820191906000526020600020905b815481526020019060010190808311611839575b50505050509050919050565b60006118636112b7565b90508381346118729190613cd8565b10156118b3576040517f08c379a00000000000000000000000000000000000000000000000000000000081526004016118aa90613d66565b60405180910390fd5b662386f26fc10000600660003373ffffffffffffffffffffffffffffffffffffffff1673ffffffffffffffffffffffffffffffffffffffff16815260200190815260200160002054101561190657600080fd5b6000611912600c612604565b905061191e3382612612565b336010600083815260200190815260200160002060006101000a81548173ffffffffffffffffffffffffffffffffffffffff021916908373ffffffffffffffffffffffffffffffffffffffff16021790555061197a81886127eb565b611985338783611ed6565b3460116000838152602001908152602001600020819055506000600f60008381526020019081526020016000208190555060005b84518111611a6f57600e600083815260200190815260200160002060405180604001604052808784815181106119f2576119f1613d86565b5b60200260200101518152602001868481518110611a1257611a11613d86565b5b60200260200101518152509080600181540180825580915050600190039060005260206000209060020201600090919091909150600082015181600001556020820151816001015550508080611a6790613db5565b9150506119b9565b50611a7981612858565b611a83600c6128c1565b50505050505050565b60086020528060005260406000206000915090505481565b6060600760008373ffffffffffffffffffffffffffffffffffffffff1673ffffffffffffffffffffffffffffffffffffffff168152602001908152602001600020805480602002602001604051908101604052809291908181526020018280548015611b2f57602002820191906000526020600020905b815481526020019060010190808311611b1b575b50505050509050919050565b6060600e6000838152602001908152602001600020805480602002602001604051908101604052809291908181526020016000905b82821015611bb657838290600052602060002090600202016040518060400160405290816000820154815260200160018201548152505081526020019060010190611b70565b505050509050919050565b6000600660003373ffffffffffffffffffffffffffffffffffffffff1673ffffffffffffffffffffffffffffffffffffffff1681526020019081526020016000205411611c43576040517f08c379a0000000000000000000000000000000000000000000000000000000008152600401611c3a90613a2d565b60405180910390fd5b3373ffffffffffffffffffffffffffffffffffffffff166108fc600660003373ffffffffffffffffffffffffffffffffffffffff1673ffffffffffffffffffffffffffffffffffffffff168152602001908152602001600020549081150290604051600060405180830381858888f19350505050158015611cc8573d6000803e3d6000fd5b50565b60007f01ffc9a7000000000000000000000000000000000000000000000000000000007bffffffffffffffffffffffffffffffffffffffffffffffffffffffff1916827bffffffffffffffffffffffffffffffffffffffffffffffffffffffff1916149050919050565b611d3e8161213c565b611d7d576040517f08c379a0000000000000000000000000000000000000000000000000000000008152600401611d749061399b565b60405180910390fd5b50565b600033905090565b816004600083815260200190815260200160002060006101000a81548173ffffffffffffffffffffffffffffffffffffffff021916908373ffffffffffffffffffffffffffffffffffffffff160217905550808273ffffffffffffffffffffffffffffffffffffffff16611dfb83610fec565b73ffffffffffffffffffffffffffffffffffffffff167f8c5be1e5ebec7d5bd14f71427d1e84f3dd0314c0f7b2291e5b200ac8c7c3b92560405160405180910390a45050565b600080611e4d83610fec565b90508073ffffffffffffffffffffffffffffffffffffffff168473ffffffffffffffffffffffffffffffffffffffff161480611e8f5750611e8e818561172e565b5b80611ecd57508373ffffffffffffffffffffffffffffffffffffffff16611eb5846109f3565b73ffffffffffffffffffffffffffffffffffffffff16145b91505092915050565b8273ffffffffffffffffffffffffffffffffffffffff16611ef682610fec565b73ffffffffffffffffffffffffffffffffffffffff1614611f4c576040517f08c379a0000000000000000000000000000000000000000000000000000000008152600401611f4390613e6f565b60405180910390fd5b600073ffffffffffffffffffffffffffffffffffffffff168273ffffffffffffffffffffffffffffffffffffffff1603611fbb576040517f08c379a0000000000000000000000000000000000000000000000000000000008152600401611fb290613f01565b60405180910390fd5b611fc68383836128d7565b611fd1600082611d88565b6001600360008573ffffffffffffffffffffffffffffffffffffffff1673ffffffffffffffffffffffffffffffffffffffff16815260200190815260200160002060008282546120219190613f21565b925050819055506001600360008473ffffffffffffffffffffffffffffffffffffffff1673ffffffffffffffffffffffffffffffffffffffff16815260200190815260200160002060008282546120789190613f55565b92505081905550816002600083815260200190815260200160002060006101000a81548173ffffffffffffffffffffffffffffffffffffffff021916908373ffffffffffffffffffffffffffffffffffffffff160217905550808273ffffffffffffffffffffffffffffffffffffffff168473ffffffffffffffffffffffffffffffffffffffff167fddf252ad1be2c89b69c2b068fc378daa952ba7f163c4a11628f55a4df523b3ef60405160405180910390a46121378383836128dc565b505050565b60008073ffffffffffffffffffffffffffffffffffffffff166002600084815260200190815260200160002060009054906101000a900473ffffffffffffffffffffffffffffffffffffffff1673ffffffffffffffffffffffffffffffffffffffff1614159050919050565b60006121b382610fec565b90506121c1816000846128d7565b6121cc600083611d88565b6001600360008373ffffffffffffffffffffffffffffffffffffffff1673ffffffffffffffffffffffffffffffffffffffff168152602001908152602001600020600082825461221c9190613f21565b925050819055506002600083815260200190815260200160002060006101000a81549073ffffffffffffffffffffffffffffffffffffffff021916905581600073ffffffffffffffffffffffffffffffffffffffff168273ffffffffffffffffffffffffffffffffffffffff167fddf252ad1be2c89b69c2b068fc378daa952ba7f163c4a11628f55a4df523b3ef60405160405180910390a46122c1816000846128dc565b5050565b8173ffffffffffffffffffffffffffffffffffffffff168373ffffffffffffffffffffffffffffffffffffffff1603612333576040517f08c379a000000000000000000000000000000000000000000000000000000000815260040161232a90613fd5565b60405180910390fd5b80600560008573ffffffffffffffffffffffffffffffffffffffff1673ffffffffffffffffffffffffffffffffffffffff16815260200190815260200160002060008473ffffffffffffffffffffffffffffffffffffffff1673ffffffffffffffffffffffffffffffffffffffff16815260200190815260200160002060006101000a81548160ff0219169083151502179055508173ffffffffffffffffffffffffffffffffffffffff168373ffffffffffffffffffffffffffffffffffffffff167f17307eab39ab6107e8899845ad3d59bd9653f200f220920489ca2b5937696c31836040516124249190612b3f565b60405180910390a3505050565b61243c848484611ed6565b612448848484846128e1565b612487576040517f08c379a000000000000000000000000000000000000000000000000000000000815260040161247e90614067565b60405180910390fd5b50505050565b606060405180602001604052806000815250905090565b6060600082036124eb576040518060400160405280600181526020017f300000000000000000000000000000000000000000000000000000000000000081525090506125ff565b600082905060005b6000821461251d57808061250690613db5565b915050600a8261251691906140b6565b91506124f3565b60008167ffffffffffffffff81111561253957612538612e8b565b5b6040519080825280601f01601f19166020018201604052801561256b5781602001600182028036833780820191505090505b5090505b600085146125f8576001826125849190613f21565b9150600a8561259391906140e7565b603061259f9190613f55565b60f81b8183815181106125b5576125b4613d86565b5b60200101907effffffffffffffffffffffffffffffffffffffffffffffffffffffffffffff1916908160001a905350600a856125f191906140b6565b945061256f565b8093505050505b919050565b600081600001549050919050565b600073ffffffffffffffffffffffffffffffffffffffff168273ffffffffffffffffffffffffffffffffffffffff1603612681576040517f08c379a000000000000000000000000000000000000000000000000000000000815260040161267890614164565b60405180910390fd5b61268a8161213c565b156126ca576040517f08c379a00000000000000000000000000000000000000000000000000000000081526004016126c1906141d0565b60405180910390fd5b6126d6600083836128d7565b6001600360008473ffffffffffffffffffffffffffffffffffffffff1673ffffffffffffffffffffffffffffffffffffffff16815260200190815260200160002060008282546127269190613f55565b92505081905550816002600083815260200190815260200160002060006101000a81548173ffffffffffffffffffffffffffffffffffffffff021916908373ffffffffffffffffffffffffffffffffffffffff160217905550808273ffffffffffffffffffffffffffffffffffffffff16600073ffffffffffffffffffffffffffffffffffffffff167fddf252ad1be2c89b69c2b068fc378daa952ba7f163c4a11628f55a4df523b3ef60405160405180910390a46127e7600083836128dc565b5050565b6127f48261213c565b612833576040517f08c379a000000000000000000000000000000000000000000000000000000000815260040161282a9061392f565b60405180910390fd5b80600d60008481526020019081526020016000209081612853919061439c565b505050565b600960003373ffffffffffffffffffffffffffffffffffffffff1673ffffffffffffffffffffffffffffffffffffffff16815260200190815260200160002081908060018154018082558091505060019003906000526020600020016000909190919091505550565b6001816000016000828254019250508190555050565b505050565b505050565b60006129028473ffffffffffffffffffffffffffffffffffffffff16612a68565b15612a5b578373ffffffffffffffffffffffffffffffffffffffff1663150b7a0261292b611d80565b8786866040518563ffffffff1660e01b815260040161294d94939291906144c3565b6020604051808303816000875af192505050801561298957506040513d601f19601f820116820180604052508101906129869190614524565b60015b612a0b573d80600081146129b9576040519150601f19603f3d011682016040523d82523d6000602084013e6129be565b606091505b506000815103612a03576040517f08c379a00000000000000000000000000000000000000000000000000000000081526004016129fa90614067565b60405180910390fd5b805181602001fd5b63150b7a0260e01b7bffffffffffffffffffffffffffffffffffffffffffffffffffffffff1916817bffffffffffffffffffffffffffffffffffffffffffffffffffffffff191614915050612a60565b600190505b949350505050565b6000808273ffffffffffffffffffffffffffffffffffffffff163b119050919050565b6000604051905090565b600080fd5b600080fd5b60007fffffffff0000000000000000000000000000000000000000000000000000000082169050919050565b612ad481612a9f565b8114612adf57600080fd5b50565b600081359050612af181612acb565b92915050565b600060208284031215612b0d57612b0c612a95565b5b6000612b1b84828501612ae2565b91505092915050565b60008115159050919050565b612b3981612b24565b82525050565b6000602082019050612b546000830184612b30565b92915050565b600081519050919050565b600082825260208201905092915050565b60005b83811015612b94578082015181840152602081019050612b79565b60008484015250505050565b6000601f19601f8301169050919050565b6000612bbc82612b5a565b612bc68185612b65565b9350612bd6818560208601612b76565b612bdf81612ba0565b840191505092915050565b60006020820190508181036000830152612c048184612bb1565b905092915050565b6000819050919050565b612c1f81612c0c565b8114612c2a57600080fd5b50565b600081359050612c3c81612c16565b92915050565b600060208284031215612c5857612c57612a95565b5b6000612c6684828501612c2d565b91505092915050565b600073ffffffffffffffffffffffffffffffffffffffff82169050919050565b6000612c9a82612c6f565b9050919050565b612caa81612c8f565b82525050565b6000602082019050612cc56000830184612ca1565b92915050565b612cd481612c8f565b8114612cdf57600080fd5b50565b600081359050612cf181612ccb565b92915050565b60008060408385031215612d0e57612d0d612a95565b5b6000612d1c85828601612ce2565b9250506020612d2d85828601612c2d565b9150509250929050565b600080600060608486031215612d5057612d4f612a95565b5b6000612d5e86828701612ce2565b9350506020612d6f86828701612ce2565b9250506040612d8086828701612c2d565b9150509250925092565b612d9381612c0c565b82525050565b6000602082019050612dae6000830184612d8a565b92915050565b600060208284031215612dca57612dc9612a95565b5b6000612dd884828501612ce2565b91505092915050565b6000819050919050565b612df481612de1565b82525050565b6000602082019050612e0f6000830184612deb565b92915050565b612e1e81612b24565b8114612e2957600080fd5b50565b600081359050612e3b81612e15565b92915050565b60008060408385031215612e5857612e57612a95565b5b6000612e6685828601612ce2565b9250506020612e7785828601612e2c565b9150509250929050565b600080fd5b600080fd5b7f4e487b7100000000000000000000000000000000000000000000000000000000600052604160045260246000fd5b612ec382612ba0565b810181811067ffffffffffffffff82111715612ee257612ee1612e8b565b5b80604052505050565b6000612ef5612a8b565b9050612f018282612eba565b919050565b600067ffffffffffffffff821115612f2157612f20612e8b565b5b612f2a82612ba0565b9050602081019050919050565b82818337600083830152505050565b6000612f59612f5484612f06565b612eeb565b905082815260208101848484011115612f7557612f74612e86565b5b612f80848285612f37565b509392505050565b600082601f830112612f9d57612f9c612e81565b5b8135612fad848260208601612f46565b91505092915050565b60008060008060808587031215612fd057612fcf612a95565b5b6000612fde87828801612ce2565b9450506020612fef87828801612ce2565b935050604061300087828801612c2d565b925050606085013567ffffffffffffffff81111561302157613020612a9a565b5b61302d87828801612f88565b91505092959194509250565b600080604083850312156130505761304f612a95565b5b600061305e85828601612c2d565b925050602061306f85828601612c2d565b9150509250929050565b600080604083850312156130905761308f612a95565b5b600061309e85828601612ce2565b92505060206130af85828601612ce2565b9150509250929050565b600081519050919050565b600082825260208201905092915050565b6000819050602082019050919050565b6130ee81612c0c565b82525050565b600061310083836130e5565b60208301905092915050565b6000602082019050919050565b6000613124826130b9565b61312e81856130c4565b9350613139836130d5565b8060005b8381101561316a57815161315188826130f4565b975061315c8361310c565b92505060018101905061313d565b5085935050505092915050565b600060208201905081810360008301526131918184613119565b905092915050565b600067ffffffffffffffff8211156131b4576131b3612e8b565b5b6131bd82612ba0565b9050602081019050919050565b60006131dd6131d884613199565b612eeb565b9050828152602081018484840111156131f9576131f8612e86565b5b613204848285612f37565b509392505050565b600082601f83011261322157613220612e81565b5b81356132318482602086016131ca565b91505092915050565b600067ffffffffffffffff82111561325557613254612e8b565b5b602082029050602081019050919050565b600080fd5b600061327e6132798461323a565b612eeb565b905080838252602082019050602084028301858111156132a1576132a0613266565b5b835b818110156132ca57806132b68882612c2d565b8452602084019350506020810190506132a3565b5050509392505050565b600082601f8301126132e9576132e8612e81565b5b81356132f984826020860161326b565b91505092915050565b600080600080600060a0868803121561331e5761331d612a95565b5b600086013567ffffffffffffffff81111561333c5761333b612a9a565b5b6133488882890161320c565b955050602061335988828901612ce2565b945050604061336a88828901612c2d565b935050606086013567ffffffffffffffff81111561338b5761338a612a9a565b5b613397888289016132d4565b925050608086013567ffffffffffffffff8111156133b8576133b7612a9a565b5b6133c4888289016132d4565b9150509295509295909350565b600081519050919050565b600082825260208201905092915050565b6000819050602082019050919050565b60408201600082015161341360008501826130e5565b50602082015161342660208501826130e5565b50505050565b600061343883836133fd565b60408301905092915050565b6000602082019050919050565b600061345c826133d1565b61346681856133dc565b9350613471836133ed565b8060005b838110156134a2578151613489888261342c565b975061349483613444565b925050600181019050613475565b5085935050505092915050565b600060208201905081810360008301526134c98184613451565b905092915050565b7f4e487b7100000000000000000000000000000000000000000000000000000000600052602260045260246000fd5b6000600282049050600182168061351857607f821691505b60208210810361352b5761352a6134d1565b5b50919050565b7f4552433732313a20617070726f76616c20746f2063757272656e74206f776e6560008201527f7200000000000000000000000000000000000000000000000000000000000000602082015250565b600061358d602183612b65565b915061359882613531565b604082019050919050565b600060208201905081810360008301526135bc81613580565b9050919050565b7f4552433732313a20617070726f76652063616c6c6572206973206e6f7420746f60008201527f6b656e206f776e6572206e6f7220617070726f76656420666f7220616c6c0000602082015250565b600061361f603e83612b65565b915061362a826135c3565b604082019050919050565b6000602082019050818103600083015261364e81613612565b9050919050565b7f4552433732313a2063616c6c6572206973206e6f7420746f6b656e206f776e6560008201527f72206e6f7220617070726f766564000000000000000000000000000000000000602082015250565b60006136b1602e83612b65565b91506136bc82613655565b604082019050919050565b600060208201905081810360008301526136e0816136a4565b9050919050565b7f54686973206f7264657220697320616c72656164792066696e69736865640000600082015250565b600061371d601e83612b65565b9150613728826136e7565b602082019050919050565b6000602082019050818103600083015261374c81613710565b9050919050565b7f446f6e74206861766520656e6f75676874207374616b6564206d6f6e6579207460008201527f6f2064656c697665720000000000000000000000000000000000000000000000602082015250565b60006137af602983612b65565b91506137ba82613753565b604082019050919050565b600060208201905081810360008301526137de816137a2565b9050919050565b7f4f7264657220616c72656164792074616b656e00000000000000000000000000600082015250565b600061381b601383612b65565b9150613826826137e5565b602082019050919050565b6000602082019050818103600083015261384a8161380e565b9050919050565b7f4e6f74206f776e65720000000000000000000000000000000000000000000000600082015250565b6000613887600983612b65565b915061389282613851565b602082019050919050565b600060208201905081810360008301526138b68161387a565b9050919050565b7f4552433732314d657461646174613a2055524920736574206f66206e6f6e657860008201527f697374656e7420746f6b656e0000000000000000000000000000000000000000602082015250565b6000613919602c83612b65565b9150613924826138bd565b604082019050919050565b600060208201905081810360008301526139488161390c565b9050919050565b7f4552433732313a20696e76616c696420746f6b656e2049440000000000000000600082015250565b6000613985601883612b65565b91506139908261394f565b602082019050919050565b600060208201905081810360008301526139b481613978565b9050919050565b7f596f7520646f6e2774206861766520616e797468696e6720746f20776974686460008201527f7261770000000000000000000000000000000000000000000000000000000000602082015250565b6000613a17602383612b65565b9150613a22826139bb565b604082019050919050565b60006020820190508181036000830152613a4681613a0a565b9050919050565b7f4552433732313a2061646472657373207a65726f206973206e6f74206120766160008201527f6c6964206f776e65720000000000000000000000000000000000000000000000602082015250565b6000613aa9602983612b65565b9150613ab482613a4d565b604082019050919050565b60006020820190508181036000830152613ad881613a9c565b9050919050565b600069ffffffffffffffffffff82169050919050565b613afe81613adf565b8114613b0957600080fd5b50565b600081519050613b1b81613af5565b92915050565b613b2a81612de1565b8114613b3557600080fd5b50565b600081519050613b4781613b21565b92915050565b600081519050613b5c81612c16565b92915050565b600080600080600060a08688031215613b7e57613b7d612a95565b5b6000613b8c88828901613b0c565b9550506020613b9d88828901613b38565b9450506040613bae88828901613b4d565b9350506060613bbf88828901613b4d565b9250506080613bd088828901613b0c565b9150509295509295909350565b600081905092915050565b6000613bf382612b5a565b613bfd8185613bdd565b9350613c0d818560208601612b76565b80840191505092915050565b6000613c258285613be8565b9150613c318284613be8565b91508190509392505050565b7f4e6f74206f776e657220746f206368616e676520746869732073746174757300600082015250565b6000613c73601f83612b65565b9150613c7e82613c3d565b602082019050919050565b60006020820190508181036000830152613ca281613c66565b9050919050565b7f4e487b7100000000000000000000000000000000000000000000000000000000600052601160045260246000fd5b6000613ce382612c0c565b9150613cee83612c0c565b9250828202613cfc81612c0c565b91508282048414831517613d1357613d12613ca9565b5b5092915050565b7f57726f6e6720616d6d6f756e74206f6620455448000000000000000000000000600082015250565b6000613d50601483612b65565b9150613d5b82613d1a565b602082019050919050565b60006020820190508181036000830152613d7f81613d43565b9050919050565b7f4e487b7100000000000000000000000000000000000000000000000000000000600052603260045260246000fd5b6000613dc082612c0c565b91507fffffffffffffffffffffffffffffffffffffffffffffffffffffffffffffffff8203613df257613df1613ca9565b5b600182019050919050565b7f4552433732313a207472616e736665722066726f6d20696e636f72726563742060008201527f6f776e6572000000000000000000000000000000000000000000000000000000602082015250565b6000613e59602583612b65565b9150613e6482613dfd565b604082019050919050565b60006020820190508181036000830152613e8881613e4c565b9050919050565b7f4552433732313a207472616e7366657220746f20746865207a65726f2061646460008201527f7265737300000000000000000000000000000000000000000000000000000000602082015250565b6000613eeb602483612b65565b9150613ef682613e8f565b604082019050919050565b60006020820190508181036000830152613f1a81613ede565b9050919050565b6000613f2c82612c0c565b9150613f3783612c0c565b9250828203905081811115613f4f57613f4e613ca9565b5b92915050565b6000613f6082612c0c565b9150613f6b83612c0c565b9250828201905080821115613f8357613f82613ca9565b5b92915050565b7f4552433732313a20617070726f766520746f2063616c6c657200000000000000600082015250565b6000613fbf601983612b65565b9150613fca82613f89565b602082019050919050565b60006020820190508181036000830152613fee81613fb2565b9050919050565b7f4552433732313a207472616e7366657220746f206e6f6e20455243373231526560008201527f63656976657220696d706c656d656e7465720000000000000000000000000000602082015250565b6000614051603283612b65565b915061405c82613ff5565b604082019050919050565b6000602082019050818103600083015261408081614044565b9050919050565b7f4e487b7100000000000000000000000000000000000000000000000000000000600052601260045260246000fd5b60006140c182612c0c565b91506140cc83612c0c565b9250826140dc576140db614087565b5b828204905092915050565b60006140f282612c0c565b91506140fd83612c0c565b92508261410d5761410c614087565b5b828206905092915050565b7f4552433732313a206d696e7420746f20746865207a65726f2061646472657373600082015250565b600061414e602083612b65565b915061415982614118565b602082019050919050565b6000602082019050818103600083015261417d81614141565b9050919050565b7f4552433732313a20746f6b656e20616c7265616479206d696e74656400000000600082015250565b60006141ba601c83612b65565b91506141c582614184565b602082019050919050565b600060208201905081810360008301526141e9816141ad565b9050919050565b60008190508160005260206000209050919050565b60006020601f8301049050919050565b600082821b905092915050565b6000600883026142527fffffffffffffffffffffffffffffffffffffffffffffffffffffffffffffffff82614215565b61425c8683614215565b95508019841693508086168417925050509392505050565b6000819050919050565b600061429961429461428f84612c0c565b614274565b612c0c565b9050919050565b6000819050919050565b6142b38361427e565b6142c76142bf826142a0565b848454614222565b825550505050565b600090565b6142dc6142cf565b6142e78184846142aa565b505050565b5b8181101561430b576143006000826142d4565b6001810190506142ed565b5050565b601f82111561435057614321816141f0565b61432a84614205565b81016020851015614339578190505b61434d61434585614205565b8301826142ec565b50505b505050565b600082821c905092915050565b600061437360001984600802614355565b1980831691505092915050565b600061438c8383614362565b9150826002028217905092915050565b6143a582612b5a565b67ffffffffffffffff8111156143be576143bd612e8b565b5b6143c88254613500565b6143d382828561430f565b600060209050601f83116001811461440657600084156143f4578287015190505b6143fe8582614380565b865550614466565b601f198416614414866141f0565b60005b8281101561443c57848901518255600182019150602085019450602081019050614417565b868310156144595784890151614455601f891682614362565b8355505b6001600288020188555050505b505050505050565b600081519050919050565b600082825260208201905092915050565b60006144958261446e565b61449f8185614479565b93506144af818560208601612b76565b6144b881612ba0565b840191505092915050565b60006080820190506144d86000830187612ca1565b6144e56020830186612ca1565b6144f26040830185612d8a565b8181036060830152614504818461448a565b905095945050505050565b60008151905061451e81612acb565b92915050565b60006020828403121561453a57614539612a95565b5b60006145488482850161450f565b9150509291505056fea264697066735822122031a1c3086caa516a6353ac3bd3c0592baac46864b8407686b859f6273666a33764736f6c63430008110033",
  "immutableReferences": {},
  "source": "//SPDX-License-Identifier: GPL-3.0\r\npragma solidity ^0.8.0;\r\n\r\nimport \"./users.sol\";\r\nimport \"./deliveryMan.sol\";\r\nimport \"../node_modules/@openzeppelin/contracts/token/ERC721/ERC721.sol\";\r\nimport \"../node_modules/@openzeppelin/contracts/utils/Counters.sol\";\r\nimport \"../node_modules/@chainlink/contracts/src/v0.8/interfaces/AggregatorV3Interface.sol\";\r\n\r\ncontract Orders is ERC721, Users, DeliveryMan {\r\n    // State variables\r\n\r\n    address public owner;\r\n\r\n    AggregatorV3Interface internal priceFeed;\r\n\r\n    using Counters for Counters.Counter;\r\n    Counters.Counter public _tokenIds;\r\n\r\n    mapping(uint256 => string) private _tokenURIs;\r\n\r\n    mapping(uint256 => OrderDetails[]) private ordersItens;\r\n\r\n    mapping(uint256 => uint256) public ordersStatus;\r\n\r\n    mapping(uint256 => address) public orderCreator;\r\n\r\n    mapping(uint256 => uint256) public orderPrice;\r\n\r\n    struct OrderDetails {\r\n        uint256 _itemId;\r\n        uint256 _amount;\r\n    }\r\n\r\n    modifier isOwner() {\r\n        require(owner == msg.sender, \"Not owner\");\r\n        _;\r\n    }\r\n\r\n    constructor() ERC721(\"Order\", \"ODR\") {\r\n        owner = msg.sender;\r\n        priceFeed = AggregatorV3Interface(\r\n            0x0715A7794a1dc8e42615F059dD6e406A6594651A\r\n        );\r\n    }\r\n\r\n    //Getting the latestPrice of dollar throught chainlinks\r\n    function getLatestPrice() public view returns (int256) {\r\n        (\r\n            uint80 roundID,\r\n            int256 price,\r\n            uint256 startedAt,\r\n            uint256 timeStamp,\r\n            uint80 answeredInRound\r\n        ) = priceFeed.latestRoundData();\r\n        return price;\r\n    }\r\n\r\n    function createOrder(\r\n        string memory _tokenURI,\r\n        address _to,\r\n        uint256 _price,\r\n        uint256[] memory _orderItens,\r\n        uint256[] memory _amount\r\n    ) public payable {\r\n        // Verifying with the person that is ordering is able to order\r\n        uint256 usdPrice = uint256(getLatestPrice());\r\n        require((msg.value * usdPrice) >= _price, \"Wrong ammount of ETH\");\r\n        require(userStakedAmount[msg.sender] >= 10000000000000000);\r\n\r\n        // Picking the actual token id\r\n        uint256 newItemId = _tokenIds.current();\r\n\r\n        // Minting the order, setting its URI with the specifications of the order that is in IPFS and after that transfering it to the restaurant responsible for its preparation\r\n        _mint(msg.sender, newItemId);\r\n        orderCreator[newItemId] = msg.sender;\r\n        _setTokenURI(newItemId, _tokenURI);\r\n        _transfer(msg.sender, _to, newItemId);\r\n        orderPrice[newItemId] = msg.value;\r\n\r\n        // Setting the status of the order\r\n        ordersStatus[newItemId] = 0;\r\n\r\n        // a loop to set which products was solicited by the user\r\n        for (uint256 i = 0; i <= _orderItens.length; i++) {\r\n            ordersItens[newItemId].push(\r\n                OrderDetails(_orderItens[i], _amount[i])\r\n            );\r\n        }\r\n\r\n        // Registering the order ID to the wallet of the user\r\n        _ordered(newItemId);\r\n\r\n        // Increasing the id to create a new NFT after\r\n        _tokenIds.increment();\r\n    }\r\n\r\n    function cancelOrder(uint256 _id) public isOwner {\r\n        require(_exists(_id), \"ERC721Metadata: URI set of nonexistent token\");\r\n        _burn(_id);\r\n        ordersStatus[_id] = 5;\r\n    }\r\n\r\n    function getOrderDetailsArray(uint256 _orderItensIndex)\r\n        public\r\n        view\r\n        returns (OrderDetails[] memory)\r\n    {\r\n        return ordersItens[_orderItensIndex];\r\n    }\r\n\r\n    function takeOrder(uint256 _id) public {\r\n        require(\r\n            deliverManStakedAmount[msg.sender] >= 10000000000000000,\r\n            \"Dont have enought staked money to deliver\"\r\n        );\r\n        require(ordersStatus[_id] == 0, \"Order already taken\");\r\n        deliverManOrders[msg.sender].push(_id);\r\n        ordersStatus[_id] = 1;\r\n    }\r\n\r\n    function changeOrderStatus(uint256 _id, uint256 _newValue) public {\r\n        require(ownerOf(_id) == msg.sender, \"Not owner to change this status\");\r\n        ordersStatus[_id] = _newValue;\r\n    }\r\n\r\n    function deliverOrder(uint256 _orderId) public {\r\n        require(\r\n            ownerOf(_orderId) == msg.sender,\r\n            \"Not owner to change this status\"\r\n        );\r\n        transferFrom(msg.sender, orderCreator[_orderId], _orderId);\r\n        ordersStatus[_orderId] = 3;\r\n    }\r\n\r\n    // Functions overrides or internals\r\n\r\n    function _setTokenURI(uint256 tokenId, string memory _tokenURI) internal {\r\n        require(\r\n            _exists(tokenId),\r\n            \"ERC721Metadata: URI set of nonexistent token\"\r\n        );\r\n        _tokenURIs[tokenId] = _tokenURI;\r\n    }\r\n\r\n    function transferFrom(\r\n        address from,\r\n        address to,\r\n        uint256 tokenId\r\n    ) public override {\r\n        //solhint-disable-next-line max-line-length\r\n        require(\r\n            _isApprovedOrOwner(_msgSender(), tokenId),\r\n            \"ERC721: caller is not token owner nor approved\"\r\n        );\r\n        require(ordersStatus[tokenId] != 3, \"This order is already finished\");\r\n\r\n        _transfer(from, to, tokenId);\r\n    }\r\n\r\n    function safeTransferFrom(\r\n        address from,\r\n        address to,\r\n        uint256 tokenId\r\n    ) public override {\r\n        require(ordersStatus[tokenId] != 3, \"This order is already finished\");\r\n        safeTransferFrom(from, to, tokenId, \"\");\r\n    }\r\n\r\n    function safeTransferFrom(\r\n        address from,\r\n        address to,\r\n        uint256 tokenId,\r\n        bytes memory data\r\n    ) public override {\r\n        require(ordersStatus[tokenId] != 3, \"This order is already finished\");\r\n        require(\r\n            _isApprovedOrOwner(_msgSender(), tokenId),\r\n            \"ERC721: caller is not token owner nor approved\"\r\n        );\r\n        _safeTransfer(from, to, tokenId, data);\r\n    }\r\n}\r\n",
  "sourcePath": "C:\\Users\\reish\\Documents\\GitHub\\EthGlobalProject\\front\\src\\ethereum\\contracts\\orders.sol",
  "compiler": {
    "name": "solc",
    "version": "0.8.17+commit.8df45f5f.Emscripten.clang"
  },
  "schemaVersion": "3.4.10",
  "updatedAt": "2022-10-09T09:09:54.677Z",
  "devdoc": {
    "kind": "dev",
    "methods": {
      "approve(address,uint256)": {
        "details": "See {IERC721-approve}."
      },
      "balanceOf(address)": {
        "details": "See {IERC721-balanceOf}."
      },
      "getApproved(uint256)": {
        "details": "See {IERC721-getApproved}."
      },
      "isApprovedForAll(address,address)": {
        "details": "See {IERC721-isApprovedForAll}."
      },
      "name()": {
        "details": "See {IERC721Metadata-name}."
      },
      "ownerOf(uint256)": {
        "details": "See {IERC721-ownerOf}."
      },
      "safeTransferFrom(address,address,uint256)": {
        "details": "See {IERC721-safeTransferFrom}."
      },
      "safeTransferFrom(address,address,uint256,bytes)": {
        "details": "See {IERC721-safeTransferFrom}."
      },
      "setApprovalForAll(address,bool)": {
        "details": "See {IERC721-setApprovalForAll}."
      },
      "supportsInterface(bytes4)": {
        "details": "See {IERC165-supportsInterface}."
      },
      "symbol()": {
        "details": "See {IERC721Metadata-symbol}."
      },
      "tokenURI(uint256)": {
        "details": "See {IERC721Metadata-tokenURI}."
      },
      "transferFrom(address,address,uint256)": {
        "details": "See {IERC721-transferFrom}."
      }
    },
    "version": 1
  },
  "userdoc": {
    "kind": "user",
    "methods": {},
    "version": 1
  }
}