{
  "contractName": "DeliveryMan",
  "abi": [
    {
      "anonymous": false,
      "inputs": [
        {
          "indexed": false,
          "internalType": "uint256",
          "name": "",
          "type": "uint256"
        }
      ],
      "name": "stakeToDeliverReceived",
      "type": "event"
    },
    {
      "inputs": [
        {
          "internalType": "address",
          "name": "",
          "type": "address"
        },
        {
          "internalType": "uint256",
          "name": "",
          "type": "uint256"
        }
      ],
      "name": "deliverManOrders",
      "outputs": [
        {
          "internalType": "uint256",
          "name": "",
          "type": "uint256"
        }
      ],
      "stateMutability": "view",
      "type": "function",
      "constant": true
    },
    {
      "inputs": [
        {
          "internalType": "address",
          "name": "",
          "type": "address"
        }
      ],
      "name": "deliverManStakedAmount",
      "outputs": [
        {
          "internalType": "uint256",
          "name": "",
          "type": "uint256"
        }
      ],
      "stateMutability": "view",
      "type": "function",
      "constant": true
    },
    {
      "inputs": [],
      "name": "stakeToDeliver",
      "outputs": [],
      "stateMutability": "payable",
      "type": "function",
      "payable": true
    },
    {
      "inputs": [],
      "name": "unstakeToNotDeliver",
      "outputs": [],
      "stateMutability": "nonpayable",
      "type": "function"
    },
    {
      "inputs": [
        {
          "internalType": "address",
          "name": "_user",
          "type": "address"
        }
      ],
      "name": "seeOrders",
      "outputs": [
        {
          "internalType": "uint256[]",
          "name": "",
          "type": "uint256[]"
        }
      ],
      "stateMutability": "view",
      "type": "function",
      "constant": true
    }
  ],
  "bytecode": "0x608060405234801561001057600080fd5b50610674806100206000396000f3fe60806040526004361061004a5760003560e01c80630bd654ff1461004f578063699a00b814610059578063d42b5de914610070578063eba72082146100ad578063f78f332e146100ea575b600080fd5b610057610127565b005b34801561006557600080fd5b5061006e6101a3565b005b34801561007c57600080fd5b5061009760048036038101906100929190610424565b6102ab565b6040516100a49190610473565b60405180910390f35b3480156100b957600080fd5b506100d460048036038101906100cf919061048e565b6102dc565b6040516100e19190610579565b60405180910390f35b3480156100f657600080fd5b50610111600480360381019061010c919061048e565b610373565b60405161011e9190610473565b60405180910390f35b346000803373ffffffffffffffffffffffffffffffffffffffff1673ffffffffffffffffffffffffffffffffffffffff168152602001908152602001600020819055507fa39d022efec364dc4b1f13eb828747c5fb4b650e796f9d70150a9554dcbfce2a346040516101999190610473565b60405180910390a1565b60008060003373ffffffffffffffffffffffffffffffffffffffff1673ffffffffffffffffffffffffffffffffffffffff1681526020019081526020016000205411610224576040517f08c379a000000000000000000000000000000000000000000000000000000000815260040161021b9061061e565b60405180910390fd5b3373ffffffffffffffffffffffffffffffffffffffff166108fc6000803373ffffffffffffffffffffffffffffffffffffffff1673ffffffffffffffffffffffffffffffffffffffff168152602001908152602001600020549081150290604051600060405180830381858888f193505050501580156102a8573d6000803e3d6000fd5b50565b600160205281600052604060002081815481106102c757600080fd5b90600052602060002001600091509150505481565b6060600160008373ffffffffffffffffffffffffffffffffffffffff1673ffffffffffffffffffffffffffffffffffffffff16815260200190815260200160002080548060200260200160405190810160405280929190818152602001828054801561036757602002820191906000526020600020905b815481526020019060010190808311610353575b50505050509050919050565b60006020528060005260406000206000915090505481565b600080fd5b600073ffffffffffffffffffffffffffffffffffffffff82169050919050565b60006103bb82610390565b9050919050565b6103cb816103b0565b81146103d657600080fd5b50565b6000813590506103e8816103c2565b92915050565b6000819050919050565b610401816103ee565b811461040c57600080fd5b50565b60008135905061041e816103f8565b92915050565b6000806040838503121561043b5761043a61038b565b5b6000610449858286016103d9565b925050602061045a8582860161040f565b9150509250929050565b61046d816103ee565b82525050565b60006020820190506104886000830184610464565b92915050565b6000602082840312156104a4576104a361038b565b5b60006104b2848285016103d9565b91505092915050565b600081519050919050565b600082825260208201905092915050565b6000819050602082019050919050565b6104f0816103ee565b82525050565b600061050283836104e7565b60208301905092915050565b6000602082019050919050565b6000610526826104bb565b61053081856104c6565b935061053b836104d7565b8060005b8381101561056c57815161055388826104f6565b975061055e8361050e565b92505060018101905061053f565b5085935050505092915050565b60006020820190508181036000830152610593818461051b565b905092915050565b600082825260208201905092915050565b7f596f7520646f6e2774206861766520616e797468696e6720746f20776974686460008201527f7261770000000000000000000000000000000000000000000000000000000000602082015250565b600061060860238361059b565b9150610613826105ac565b604082019050919050565b60006020820190508181036000830152610637816105fb565b905091905056fea26469706673582212202ec8fac12402c1595a4a0cdb4e0a0f0126912a10ac078627fe3d976cd5eb6d8b64736f6c63430008110033",
  "immutableReferences": {},
  "source": "//SPDX-License-Identifier: GPL-3.0\r\npragma solidity ^0.8.0;\r\n\r\ncontract DeliveryMan {\r\n    // State variables\r\n\r\n    mapping(address => uint256) public deliverManStakedAmount;\r\n    mapping(address => uint256[]) public deliverManOrders;\r\n\r\n    event stakeToDeliverReceived(uint256);\r\n\r\n    function stakeToDeliver() public payable {\r\n        deliverManStakedAmount[msg.sender] = msg.value;\r\n        emit stakeToDeliverReceived(msg.value);\r\n    }\r\n\r\n    function unstakeToNotDeliver() public {\r\n        require(\r\n            deliverManStakedAmount[msg.sender] > 0,\r\n            \"You don't have anything to withdraw\"\r\n        );\r\n        payable(msg.sender).transfer(deliverManStakedAmount[msg.sender]);\r\n    }\r\n\r\n    function seeOrders(address _user) public view returns (uint256[] memory) {\r\n        return deliverManOrders[_user];\r\n    }\r\n\r\n    function _ordered(uint256 _orderId) internal {\r\n        deliverManOrders[msg.sender].push(_orderId);\r\n    }\r\n}\r\n",
  "sourcePath": "C:\\Users\\Inteli\\Documents\\GitHub\\snack-fair-hackathon\\ethereum\\contracts\\deliveryMan.sol",
  "compiler": {
    "name": "solc",
    "version": "0.8.17+commit.8df45f5f.Emscripten.clang"
  },
  "schemaVersion": "3.4.10",
  "updatedAt": "2022-10-09T05:42:21.808Z",
  "networkType": "ethereum",
  "devdoc": {
    "kind": "dev",
    "methods": {},
    "version": 1
  },
  "userdoc": {
    "kind": "user",
    "methods": {},
    "version": 1
  }
}