{
  "contractName": "Products",
  "abi": [
    {
      "inputs": [],
      "stateMutability": "nonpayable",
      "type": "constructor"
    },
    {
      "anonymous": false,
      "inputs": [
        {
          "indexed": true,
          "internalType": "address",
          "name": "account",
          "type": "address"
        },
        {
          "indexed": true,
          "internalType": "address",
          "name": "operator",
          "type": "address"
        },
        {
          "indexed": false,
          "internalType": "bool",
          "name": "approved",
          "type": "bool"
        }
      ],
      "name": "ApprovalForAll",
      "type": "event"
    },
    {
      "anonymous": false,
      "inputs": [
        {
          "indexed": true,
          "internalType": "address",
          "name": "operator",
          "type": "address"
        },
        {
          "indexed": true,
          "internalType": "address",
          "name": "from",
          "type": "address"
        },
        {
          "indexed": true,
          "internalType": "address",
          "name": "to",
          "type": "address"
        },
        {
          "indexed": false,
          "internalType": "uint256[]",
          "name": "ids",
          "type": "uint256[]"
        },
        {
          "indexed": false,
          "internalType": "uint256[]",
          "name": "values",
          "type": "uint256[]"
        }
      ],
      "name": "TransferBatch",
      "type": "event"
    },
    {
      "anonymous": false,
      "inputs": [
        {
          "indexed": true,
          "internalType": "address",
          "name": "operator",
          "type": "address"
        },
        {
          "indexed": true,
          "internalType": "address",
          "name": "from",
          "type": "address"
        },
        {
          "indexed": true,
          "internalType": "address",
          "name": "to",
          "type": "address"
        },
        {
          "indexed": false,
          "internalType": "uint256",
          "name": "id",
          "type": "uint256"
        },
        {
          "indexed": false,
          "internalType": "uint256",
          "name": "value",
          "type": "uint256"
        }
      ],
      "name": "TransferSingle",
      "type": "event"
    },
    {
      "anonymous": false,
      "inputs": [
        {
          "indexed": false,
          "internalType": "string",
          "name": "value",
          "type": "string"
        },
        {
          "indexed": true,
          "internalType": "uint256",
          "name": "id",
          "type": "uint256"
        }
      ],
      "name": "URI",
      "type": "event"
    },
    {
      "inputs": [],
      "name": "_tokenIds",
      "outputs": [
        {
          "internalType": "uint256",
          "name": "_value",
          "type": "uint256"
        }
      ],
      "stateMutability": "view",
      "type": "function"
    },
    {
      "inputs": [
        {
          "internalType": "address",
          "name": "account",
          "type": "address"
        },
        {
          "internalType": "uint256",
          "name": "id",
          "type": "uint256"
        }
      ],
      "name": "balanceOf",
      "outputs": [
        {
          "internalType": "uint256",
          "name": "",
          "type": "uint256"
        }
      ],
      "stateMutability": "view",
      "type": "function"
    },
    {
      "inputs": [
        {
          "internalType": "address[]",
          "name": "accounts",
          "type": "address[]"
        },
        {
          "internalType": "uint256[]",
          "name": "ids",
          "type": "uint256[]"
        }
      ],
      "name": "balanceOfBatch",
      "outputs": [
        {
          "internalType": "uint256[]",
          "name": "",
          "type": "uint256[]"
        }
      ],
      "stateMutability": "view",
      "type": "function"
    },
    {
      "inputs": [
        {
          "internalType": "address",
          "name": "account",
          "type": "address"
        },
        {
          "internalType": "address",
          "name": "operator",
          "type": "address"
        }
      ],
      "name": "isApprovedForAll",
      "outputs": [
        {
          "internalType": "bool",
          "name": "",
          "type": "bool"
        }
      ],
      "stateMutability": "view",
      "type": "function"
    },
    {
      "inputs": [],
      "name": "owner",
      "outputs": [
        {
          "internalType": "address",
          "name": "",
          "type": "address"
        }
      ],
      "stateMutability": "view",
      "type": "function"
    },
    {
      "inputs": [
        {
          "internalType": "address",
          "name": "from",
          "type": "address"
        },
        {
          "internalType": "address",
          "name": "to",
          "type": "address"
        },
        {
          "internalType": "uint256[]",
          "name": "ids",
          "type": "uint256[]"
        },
        {
          "internalType": "uint256[]",
          "name": "amounts",
          "type": "uint256[]"
        },
        {
          "internalType": "bytes",
          "name": "data",
          "type": "bytes"
        }
      ],
      "name": "safeBatchTransferFrom",
      "outputs": [],
      "stateMutability": "nonpayable",
      "type": "function"
    },
    {
      "inputs": [
        {
          "internalType": "address",
          "name": "from",
          "type": "address"
        },
        {
          "internalType": "address",
          "name": "to",
          "type": "address"
        },
        {
          "internalType": "uint256",
          "name": "id",
          "type": "uint256"
        },
        {
          "internalType": "uint256",
          "name": "amount",
          "type": "uint256"
        },
        {
          "internalType": "bytes",
          "name": "data",
          "type": "bytes"
        }
      ],
      "name": "safeTransferFrom",
      "outputs": [],
      "stateMutability": "nonpayable",
      "type": "function"
    },
    {
      "inputs": [
        {
          "internalType": "address",
          "name": "operator",
          "type": "address"
        },
        {
          "internalType": "bool",
          "name": "approved",
          "type": "bool"
        }
      ],
      "name": "setApprovalForAll",
      "outputs": [],
      "stateMutability": "nonpayable",
      "type": "function"
    },
    {
      "inputs": [
        {
          "internalType": "bytes4",
          "name": "interfaceId",
          "type": "bytes4"
        }
      ],
      "name": "supportsInterface",
      "outputs": [
        {
          "internalType": "bool",
          "name": "",
          "type": "bool"
        }
      ],
      "stateMutability": "view",
      "type": "function"
    },
    {
      "inputs": [
        {
          "internalType": "string",
          "name": "_tokenURI",
          "type": "string"
        }
      ],
      "name": "createProduct",
      "outputs": [],
      "stateMutability": "nonpayable",
      "type": "function"
    },
    {
      "inputs": [
        {
          "internalType": "uint256",
          "name": "_tokenId",
          "type": "uint256"
        },
        {
          "internalType": "uint256",
          "name": "_amount",
          "type": "uint256"
        }
      ],
      "name": "addProduct",
      "outputs": [],
      "stateMutability": "nonpayable",
      "type": "function"
    },
    {
      "inputs": [
        {
          "internalType": "uint256",
          "name": "_tokenId",
          "type": "uint256"
        }
      ],
      "name": "uri",
      "outputs": [
        {
          "internalType": "string",
          "name": "",
          "type": "string"
        }
      ],
      "stateMutability": "view",
      "type": "function"
    },
    {
      "inputs": [
        {
          "internalType": "uint256",
          "name": "_tokenId",
          "type": "uint256"
        },
        {
          "internalType": "string",
          "name": "_tokenURI",
          "type": "string"
        }
      ],
      "name": "updateURI",
      "outputs": [],
      "stateMutability": "nonpayable",
      "type": "function"
    },
    {
      "inputs": [
        {
          "internalType": "uint256",
          "name": "_id",
          "type": "uint256"
        }
      ],
      "name": "burnProduct",
      "outputs": [],
      "stateMutability": "nonpayable",
      "type": "function"
    }
  ],
  "bytecode": "0x60806040523480156200001157600080fd5b506040518060200160405280600081525062000033816200007b60201b60201c565b5033600360006101000a81548173ffffffffffffffffffffffffffffffffffffffff021916908373ffffffffffffffffffffffffffffffffffffffff160217905550620003f1565b80600290816200008c91906200030a565b5050565b600081519050919050565b7f4e487b7100000000000000000000000000000000000000000000000000000000600052604160045260246000fd5b7f4e487b7100000000000000000000000000000000000000000000000000000000600052602260045260246000fd5b600060028204905060018216806200011257607f821691505b602082108103620001285762000127620000ca565b5b50919050565b60008190508160005260206000209050919050565b60006020601f8301049050919050565b600082821b905092915050565b600060088302620001927fffffffffffffffffffffffffffffffffffffffffffffffffffffffffffffffff8262000153565b6200019e868362000153565b95508019841693508086168417925050509392505050565b6000819050919050565b6000819050919050565b6000620001eb620001e5620001df84620001b6565b620001c0565b620001b6565b9050919050565b6000819050919050565b6200020783620001ca565b6200021f6200021682620001f2565b84845462000160565b825550505050565b600090565b6200023662000227565b62000243818484620001fc565b505050565b5b818110156200026b576200025f6000826200022c565b60018101905062000249565b5050565b601f821115620002ba5762000284816200012e565b6200028f8462000143565b810160208510156200029f578190505b620002b7620002ae8562000143565b83018262000248565b50505b505050565b600082821c905092915050565b6000620002df60001984600802620002bf565b1980831691505092915050565b6000620002fa8383620002cc565b9150826002028217905092915050565b620003158262000090565b67ffffffffffffffff8111156200033157620003306200009b565b5b6200033d8254620000f9565b6200034a8282856200026f565b600060209050601f8311600181146200038257600084156200036d578287015190505b620003798582620002ec565b865550620003e9565b601f19841662000392866200012e565b60005b82811015620003bc5784890151825560018201915060208501945060208101905062000395565b86831015620003dc5784890151620003d8601f891682620002cc565b8355505b6001600288020188555050505b505050505050565b61338680620004016000396000f3fe608060405234801561001057600080fd5b50600436106100e95760003560e01c8063663465011161008c578063a22cb46511610066578063a22cb46514610258578063aa46a40014610274578063e985e9c514610292578063f242432a146102c2576100e9565b806366346501146102025780638b6924791461021e5780638da5cb5b1461023a576100e9565b80630e89341c116100c85780630e89341c1461016a5780632eb2c2d61461019a57806331d41c69146101b65780634e1273f4146101d2576100e9565b8062fdd58e146100ee57806301ffc9a71461011e57806302ec06be1461014e575b600080fd5b61010860048036038101906101039190611bfe565b6102de565b6040516101159190611c4d565b60405180910390f35b61013860048036038101906101339190611cc0565b6103a6565b6040516101459190611d08565b60405180910390f35b61016860048036038101906101639190611e69565b610488565b005b610184600480360381019061017f9190611eb2565b61055a565b6040516101919190611f5e565b60405180910390f35b6101b460048036038101906101af91906120e9565b6105ff565b005b6101d060048036038101906101cb91906121b8565b6106a0565b005b6101ec60048036038101906101e791906122d7565b61073e565b6040516101f9919061240d565b60405180910390f35b61021c60048036038101906102179190611eb2565b610857565b005b6102386004803603810190610233919061242f565b6108f6565b005b6102426109a5565b60405161024f919061247e565b60405180910390f35b610272600480360381019061026d91906124c5565b6109cb565b005b61027c6109e1565b6040516102899190611c4d565b60405180910390f35b6102ac60048036038101906102a79190612505565b6109ed565b6040516102b99190611d08565b60405180910390f35b6102dc60048036038101906102d79190612545565b610a81565b005b60008073ffffffffffffffffffffffffffffffffffffffff168373ffffffffffffffffffffffffffffffffffffffff160361034e576040517f08c379a00000000000000000000000000000000000000000000000000000000081526004016103459061264e565b60405180910390fd5b60008083815260200190815260200160002060008473ffffffffffffffffffffffffffffffffffffffff1673ffffffffffffffffffffffffffffffffffffffff16815260200190815260200160002054905092915050565b60007fd9b67a26000000000000000000000000000000000000000000000000000000007bffffffffffffffffffffffffffffffffffffffffffffffffffffffff1916827bffffffffffffffffffffffffffffffffffffffffffffffffffffffff1916148061047157507f0e89341c000000000000000000000000000000000000000000000000000000007bffffffffffffffffffffffffffffffffffffffffffffffffffffffff1916827bffffffffffffffffffffffffffffffffffffffffffffffffffffffff1916145b80610481575061048082610b22565b5b9050919050565b3373ffffffffffffffffffffffffffffffffffffffff16600360009054906101000a900473ffffffffffffffffffffffffffffffffffffffff1673ffffffffffffffffffffffffffffffffffffffff1614610518576040517f08c379a000000000000000000000000000000000000000000000000000000000815260040161050f906126ba565b60405180910390fd5b60006105246005610b8c565b90506105423382600160405180602001604052806000815250610b9a565b61054c8183610d4a565b6105566005610d6f565b5050565b606060046000838152602001908152602001600020805461057a90612709565b80601f01602080910402602001604051908101604052809291908181526020018280546105a690612709565b80156105f35780601f106105c8576101008083540402835291602001916105f3565b820191906000526020600020905b8154815290600101906020018083116105d657829003601f168201915b50505050509050919050565b610607610d85565b73ffffffffffffffffffffffffffffffffffffffff168573ffffffffffffffffffffffffffffffffffffffff16148061064d575061064c85610647610d85565b6109ed565b5b61068c576040517f08c379a0000000000000000000000000000000000000000000000000000000008152600401610683906127ac565b60405180910390fd5b6106998585858585610d8d565b5050505050565b3373ffffffffffffffffffffffffffffffffffffffff16600360009054906101000a900473ffffffffffffffffffffffffffffffffffffffff1673ffffffffffffffffffffffffffffffffffffffff1614610730576040517f08c379a0000000000000000000000000000000000000000000000000000000008152600401610727906126ba565b60405180910390fd5b61073a8282610d4a565b5050565b60608151835114610784576040517f08c379a000000000000000000000000000000000000000000000000000000000815260040161077b9061283e565b60405180910390fd5b6000835167ffffffffffffffff8111156107a1576107a0611d3e565b5b6040519080825280602002602001820160405280156107cf5781602001602082028036833780820191505090505b50905060005b845181101561084c5761081c8582815181106107f4576107f361285e565b5b602002602001015185838151811061080f5761080e61285e565b5b60200260200101516102de565b82828151811061082f5761082e61285e565b5b60200260200101818152505080610845906128bc565b90506107d5565b508091505092915050565b3373ffffffffffffffffffffffffffffffffffffffff16600360009054906101000a900473ffffffffffffffffffffffffffffffffffffffff1673ffffffffffffffffffffffffffffffffffffffff16146108e7576040517f08c379a00000000000000000000000000000000000000000000000000000000081526004016108de906126ba565b60405180910390fd5b6108f3338260016110ae565b50565b3373ffffffffffffffffffffffffffffffffffffffff16600360009054906101000a900473ffffffffffffffffffffffffffffffffffffffff1673ffffffffffffffffffffffffffffffffffffffff1614610986576040517f08c379a000000000000000000000000000000000000000000000000000000000815260040161097d906126ba565b60405180910390fd5b6109a133838360405180602001604052806000815250610b9a565b5050565b600360009054906101000a900473ffffffffffffffffffffffffffffffffffffffff1681565b6109dd6109d6610d85565b83836112f4565b5050565b60058060000154905081565b6000600160008473ffffffffffffffffffffffffffffffffffffffff1673ffffffffffffffffffffffffffffffffffffffff16815260200190815260200160002060008373ffffffffffffffffffffffffffffffffffffffff1673ffffffffffffffffffffffffffffffffffffffff16815260200190815260200160002060009054906101000a900460ff16905092915050565b610a89610d85565b73ffffffffffffffffffffffffffffffffffffffff168573ffffffffffffffffffffffffffffffffffffffff161480610acf5750610ace85610ac9610d85565b6109ed565b5b610b0e576040517f08c379a0000000000000000000000000000000000000000000000000000000008152600401610b05906127ac565b60405180910390fd5b610b1b8585858585611460565b5050505050565b60007f01ffc9a7000000000000000000000000000000000000000000000000000000007bffffffffffffffffffffffffffffffffffffffffffffffffffffffff1916827bffffffffffffffffffffffffffffffffffffffffffffffffffffffff1916149050919050565b600081600001549050919050565b600073ffffffffffffffffffffffffffffffffffffffff168473ffffffffffffffffffffffffffffffffffffffff1603610c09576040517f08c379a0000000000000000000000000000000000000000000000000000000008152600401610c0090612976565b60405180910390fd5b6000610c13610d85565b90506000610c20856116fb565b90506000610c2d856116fb565b9050610c3e83600089858589611775565b8460008088815260200190815260200160002060008973ffffffffffffffffffffffffffffffffffffffff1673ffffffffffffffffffffffffffffffffffffffff1681526020019081526020016000206000828254610c9d9190612996565b925050819055508673ffffffffffffffffffffffffffffffffffffffff16600073ffffffffffffffffffffffffffffffffffffffff168473ffffffffffffffffffffffffffffffffffffffff167fc3d58168c5ae7397731d063d5bbf3d657854427343f4c083240f7aacaa2d0f628989604051610d1b9291906129ca565b60405180910390a4610d328360008985858961177d565b610d4183600089898989611785565b50505050505050565b80600460008481526020019081526020016000209081610d6a9190612b9f565b505050565b6001816000016000828254019250508190555050565b600033905090565b8151835114610dd1576040517f08c379a0000000000000000000000000000000000000000000000000000000008152600401610dc890612ce3565b60405180910390fd5b600073ffffffffffffffffffffffffffffffffffffffff168473ffffffffffffffffffffffffffffffffffffffff1603610e40576040517f08c379a0000000000000000000000000000000000000000000000000000000008152600401610e3790612d75565b60405180910390fd5b6000610e4a610d85565b9050610e5a818787878787611775565b60005b845181101561100b576000858281518110610e7b57610e7a61285e565b5b602002602001015190506000858381518110610e9a57610e9961285e565b5b60200260200101519050600080600084815260200190815260200160002060008b73ffffffffffffffffffffffffffffffffffffffff1673ffffffffffffffffffffffffffffffffffffffff16815260200190815260200160002054905081811015610f3b576040517f08c379a0000000000000000000000000000000000000000000000000000000008152600401610f3290612e07565b60405180910390fd5b81810360008085815260200190815260200160002060008c73ffffffffffffffffffffffffffffffffffffffff1673ffffffffffffffffffffffffffffffffffffffff168152602001908152602001600020819055508160008085815260200190815260200160002060008b73ffffffffffffffffffffffffffffffffffffffff1673ffffffffffffffffffffffffffffffffffffffff1681526020019081526020016000206000828254610ff09190612996565b9250508190555050505080611004906128bc565b9050610e5d565b508473ffffffffffffffffffffffffffffffffffffffff168673ffffffffffffffffffffffffffffffffffffffff168273ffffffffffffffffffffffffffffffffffffffff167f4a39dc06d4c0dbc64b70af90fd698a233a518aa5d07e595d983b8c0526c8f7fb8787604051611082929190612e27565b60405180910390a461109881878787878761177d565b6110a681878787878761195c565b505050505050565b600073ffffffffffffffffffffffffffffffffffffffff168373ffffffffffffffffffffffffffffffffffffffff160361111d576040517f08c379a000000000000000000000000000000000000000000000000000000000815260040161111490612ed0565b60405180910390fd5b6000611127610d85565b90506000611134846116fb565b90506000611141846116fb565b905061116183876000858560405180602001604052806000815250611775565b600080600087815260200190815260200160002060008873ffffffffffffffffffffffffffffffffffffffff1673ffffffffffffffffffffffffffffffffffffffff168152602001908152602001600020549050848110156111f8576040517f08c379a00000000000000000000000000000000000000000000000000000000081526004016111ef90612f62565b60405180910390fd5b84810360008088815260200190815260200160002060008973ffffffffffffffffffffffffffffffffffffffff1673ffffffffffffffffffffffffffffffffffffffff16815260200190815260200160002081905550600073ffffffffffffffffffffffffffffffffffffffff168773ffffffffffffffffffffffffffffffffffffffff168573ffffffffffffffffffffffffffffffffffffffff167fc3d58168c5ae7397731d063d5bbf3d657854427343f4c083240f7aacaa2d0f6289896040516112c59291906129ca565b60405180910390a46112eb8488600086866040518060200160405280600081525061177d565b50505050505050565b8173ffffffffffffffffffffffffffffffffffffffff168373ffffffffffffffffffffffffffffffffffffffff1603611362576040517f08c379a000000000000000000000000000000000000000000000000000000000815260040161135990612ff4565b60405180910390fd5b80600160008573ffffffffffffffffffffffffffffffffffffffff1673ffffffffffffffffffffffffffffffffffffffff16815260200190815260200160002060008473ffffffffffffffffffffffffffffffffffffffff1673ffffffffffffffffffffffffffffffffffffffff16815260200190815260200160002060006101000a81548160ff0219169083151502179055508173ffffffffffffffffffffffffffffffffffffffff168373ffffffffffffffffffffffffffffffffffffffff167f17307eab39ab6107e8899845ad3d59bd9653f200f220920489ca2b5937696c31836040516114539190611d08565b60405180910390a3505050565b600073ffffffffffffffffffffffffffffffffffffffff168473ffffffffffffffffffffffffffffffffffffffff16036114cf576040517f08c379a00000000000000000000000000000000000000000000000000000000081526004016114c690612d75565b60405180910390fd5b60006114d9610d85565b905060006114e6856116fb565b905060006114f3856116fb565b9050611503838989858589611775565b600080600088815260200190815260200160002060008a73ffffffffffffffffffffffffffffffffffffffff1673ffffffffffffffffffffffffffffffffffffffff1681526020019081526020016000205490508581101561159a576040517f08c379a000000000000000000000000000000000000000000000000000000000815260040161159190612e07565b60405180910390fd5b85810360008089815260200190815260200160002060008b73ffffffffffffffffffffffffffffffffffffffff1673ffffffffffffffffffffffffffffffffffffffff168152602001908152602001600020819055508560008089815260200190815260200160002060008a73ffffffffffffffffffffffffffffffffffffffff1673ffffffffffffffffffffffffffffffffffffffff168152602001908152602001600020600082825461164f9190612996565b925050819055508773ffffffffffffffffffffffffffffffffffffffff168973ffffffffffffffffffffffffffffffffffffffff168573ffffffffffffffffffffffffffffffffffffffff167fc3d58168c5ae7397731d063d5bbf3d657854427343f4c083240f7aacaa2d0f628a8a6040516116cc9291906129ca565b60405180910390a46116e2848a8a86868a61177d565b6116f0848a8a8a8a8a611785565b505050505050505050565b60606000600167ffffffffffffffff81111561171a57611719611d3e565b5b6040519080825280602002602001820160405280156117485781602001602082028036833780820191505090505b50905082816000815181106117605761175f61285e565b5b60200260200101818152505080915050919050565b505050505050565b505050505050565b6117a48473ffffffffffffffffffffffffffffffffffffffff16611b33565b15611954578373ffffffffffffffffffffffffffffffffffffffff1663f23a6e6187878686866040518663ffffffff1660e01b81526004016117ea959493929190613069565b6020604051808303816000875af192505050801561182657506040513d601f19601f8201168201806040525081019061182391906130d8565b60015b6118cb57611832613112565b806308c379a00361188e5750611846613134565b806118515750611890565b806040517f08c379a00000000000000000000000000000000000000000000000000000000081526004016118859190611f5e565b60405180910390fd5b505b6040517f08c379a00000000000000000000000000000000000000000000000000000000081526004016118c290613236565b60405180910390fd5b63f23a6e6160e01b7bffffffffffffffffffffffffffffffffffffffffffffffffffffffff1916817bffffffffffffffffffffffffffffffffffffffffffffffffffffffff191614611952576040517f08c379a0000000000000000000000000000000000000000000000000000000008152600401611949906132c8565b60405180910390fd5b505b505050505050565b61197b8473ffffffffffffffffffffffffffffffffffffffff16611b33565b15611b2b578373ffffffffffffffffffffffffffffffffffffffff1663bc197c8187878686866040518663ffffffff1660e01b81526004016119c19594939291906132e8565b6020604051808303816000875af19250505080156119fd57506040513d601f19601f820116820180604052508101906119fa91906130d8565b60015b611aa257611a09613112565b806308c379a003611a655750611a1d613134565b80611a285750611a67565b806040517f08c379a0000000000000000000000000000000000000000000000000000000008152600401611a5c9190611f5e565b60405180910390fd5b505b6040517f08c379a0000000000000000000000000000000000000000000000000000000008152600401611a9990613236565b60405180910390fd5b63bc197c8160e01b7bffffffffffffffffffffffffffffffffffffffffffffffffffffffff1916817bffffffffffffffffffffffffffffffffffffffffffffffffffffffff191614611b29576040517f08c379a0000000000000000000000000000000000000000000000000000000008152600401611b20906132c8565b60405180910390fd5b505b505050505050565b6000808273ffffffffffffffffffffffffffffffffffffffff163b119050919050565b6000604051905090565b600080fd5b600080fd5b600073ffffffffffffffffffffffffffffffffffffffff82169050919050565b6000611b9582611b6a565b9050919050565b611ba581611b8a565b8114611bb057600080fd5b50565b600081359050611bc281611b9c565b92915050565b6000819050919050565b611bdb81611bc8565b8114611be657600080fd5b50565b600081359050611bf881611bd2565b92915050565b60008060408385031215611c1557611c14611b60565b5b6000611c2385828601611bb3565b9250506020611c3485828601611be9565b9150509250929050565b611c4781611bc8565b82525050565b6000602082019050611c626000830184611c3e565b92915050565b60007fffffffff0000000000000000000000000000000000000000000000000000000082169050919050565b611c9d81611c68565b8114611ca857600080fd5b50565b600081359050611cba81611c94565b92915050565b600060208284031215611cd657611cd5611b60565b5b6000611ce484828501611cab565b91505092915050565b60008115159050919050565b611d0281611ced565b82525050565b6000602082019050611d1d6000830184611cf9565b92915050565b600080fd5b600080fd5b6000601f19601f8301169050919050565b7f4e487b7100000000000000000000000000000000000000000000000000000000600052604160045260246000fd5b611d7682611d2d565b810181811067ffffffffffffffff82111715611d9557611d94611d3e565b5b80604052505050565b6000611da8611b56565b9050611db48282611d6d565b919050565b600067ffffffffffffffff821115611dd457611dd3611d3e565b5b611ddd82611d2d565b9050602081019050919050565b82818337600083830152505050565b6000611e0c611e0784611db9565b611d9e565b905082815260208101848484011115611e2857611e27611d28565b5b611e33848285611dea565b509392505050565b600082601f830112611e5057611e4f611d23565b5b8135611e60848260208601611df9565b91505092915050565b600060208284031215611e7f57611e7e611b60565b5b600082013567ffffffffffffffff811115611e9d57611e9c611b65565b5b611ea984828501611e3b565b91505092915050565b600060208284031215611ec857611ec7611b60565b5b6000611ed684828501611be9565b91505092915050565b600081519050919050565b600082825260208201905092915050565b60005b83811015611f19578082015181840152602081019050611efe565b60008484015250505050565b6000611f3082611edf565b611f3a8185611eea565b9350611f4a818560208601611efb565b611f5381611d2d565b840191505092915050565b60006020820190508181036000830152611f788184611f25565b905092915050565b600067ffffffffffffffff821115611f9b57611f9a611d3e565b5b602082029050602081019050919050565b600080fd5b6000611fc4611fbf84611f80565b611d9e565b90508083825260208201905060208402830185811115611fe757611fe6611fac565b5b835b818110156120105780611ffc8882611be9565b845260208401935050602081019050611fe9565b5050509392505050565b600082601f83011261202f5761202e611d23565b5b813561203f848260208601611fb1565b91505092915050565b600067ffffffffffffffff82111561206357612062611d3e565b5b61206c82611d2d565b9050602081019050919050565b600061208c61208784612048565b611d9e565b9050828152602081018484840111156120a8576120a7611d28565b5b6120b3848285611dea565b509392505050565b600082601f8301126120d0576120cf611d23565b5b81356120e0848260208601612079565b91505092915050565b600080600080600060a0868803121561210557612104611b60565b5b600061211388828901611bb3565b955050602061212488828901611bb3565b945050604086013567ffffffffffffffff81111561214557612144611b65565b5b6121518882890161201a565b935050606086013567ffffffffffffffff81111561217257612171611b65565b5b61217e8882890161201a565b925050608086013567ffffffffffffffff81111561219f5761219e611b65565b5b6121ab888289016120bb565b9150509295509295909350565b600080604083850312156121cf576121ce611b60565b5b60006121dd85828601611be9565b925050602083013567ffffffffffffffff8111156121fe576121fd611b65565b5b61220a85828601611e3b565b9150509250929050565b600067ffffffffffffffff82111561222f5761222e611d3e565b5b602082029050602081019050919050565b600061225361224e84612214565b611d9e565b9050808382526020820190506020840283018581111561227657612275611fac565b5b835b8181101561229f578061228b8882611bb3565b845260208401935050602081019050612278565b5050509392505050565b600082601f8301126122be576122bd611d23565b5b81356122ce848260208601612240565b91505092915050565b600080604083850312156122ee576122ed611b60565b5b600083013567ffffffffffffffff81111561230c5761230b611b65565b5b612318858286016122a9565b925050602083013567ffffffffffffffff81111561233957612338611b65565b5b6123458582860161201a565b9150509250929050565b600081519050919050565b600082825260208201905092915050565b6000819050602082019050919050565b61238481611bc8565b82525050565b6000612396838361237b565b60208301905092915050565b6000602082019050919050565b60006123ba8261234f565b6123c4818561235a565b93506123cf8361236b565b8060005b838110156124005781516123e7888261238a565b97506123f2836123a2565b9250506001810190506123d3565b5085935050505092915050565b6000602082019050818103600083015261242781846123af565b905092915050565b6000806040838503121561244657612445611b60565b5b600061245485828601611be9565b925050602061246585828601611be9565b9150509250929050565b61247881611b8a565b82525050565b6000602082019050612493600083018461246f565b92915050565b6124a281611ced565b81146124ad57600080fd5b50565b6000813590506124bf81612499565b92915050565b600080604083850312156124dc576124db611b60565b5b60006124ea85828601611bb3565b92505060206124fb858286016124b0565b9150509250929050565b6000806040838503121561251c5761251b611b60565b5b600061252a85828601611bb3565b925050602061253b85828601611bb3565b9150509250929050565b600080600080600060a0868803121561256157612560611b60565b5b600061256f88828901611bb3565b955050602061258088828901611bb3565b945050604061259188828901611be9565b93505060606125a288828901611be9565b925050608086013567ffffffffffffffff8111156125c3576125c2611b65565b5b6125cf888289016120bb565b9150509295509295909350565b7f455243313135353a2061646472657373207a65726f206973206e6f742061207660008201527f616c6964206f776e657200000000000000000000000000000000000000000000602082015250565b6000612638602a83611eea565b9150612643826125dc565b604082019050919050565b600060208201905081810360008301526126678161262b565b9050919050565b7f4e6f74206f776e65720000000000000000000000000000000000000000000000600082015250565b60006126a4600983611eea565b91506126af8261266e565b602082019050919050565b600060208201905081810360008301526126d381612697565b9050919050565b7f4e487b7100000000000000000000000000000000000000000000000000000000600052602260045260246000fd5b6000600282049050600182168061272157607f821691505b602082108103612734576127336126da565b5b50919050565b7f455243313135353a2063616c6c6572206973206e6f7420746f6b656e206f776e60008201527f6572206e6f7220617070726f7665640000000000000000000000000000000000602082015250565b6000612796602f83611eea565b91506127a18261273a565b604082019050919050565b600060208201905081810360008301526127c581612789565b9050919050565b7f455243313135353a206163636f756e747320616e6420696473206c656e67746860008201527f206d69736d617463680000000000000000000000000000000000000000000000602082015250565b6000612828602983611eea565b9150612833826127cc565b604082019050919050565b600060208201905081810360008301526128578161281b565b9050919050565b7f4e487b7100000000000000000000000000000000000000000000000000000000600052603260045260246000fd5b7f4e487b7100000000000000000000000000000000000000000000000000000000600052601160045260246000fd5b60006128c782611bc8565b91507fffffffffffffffffffffffffffffffffffffffffffffffffffffffffffffffff82036128f9576128f861288d565b5b600182019050919050565b7f455243313135353a206d696e7420746f20746865207a65726f2061646472657360008201527f7300000000000000000000000000000000000000000000000000000000000000602082015250565b6000612960602183611eea565b915061296b82612904565b604082019050919050565b6000602082019050818103600083015261298f81612953565b9050919050565b60006129a182611bc8565b91506129ac83611bc8565b92508282019050808211156129c4576129c361288d565b5b92915050565b60006040820190506129df6000830185611c3e565b6129ec6020830184611c3e565b9392505050565b60008190508160005260206000209050919050565b60006020601f8301049050919050565b600082821b905092915050565b600060088302612a557fffffffffffffffffffffffffffffffffffffffffffffffffffffffffffffffff82612a18565b612a5f8683612a18565b95508019841693508086168417925050509392505050565b6000819050919050565b6000612a9c612a97612a9284611bc8565b612a77565b611bc8565b9050919050565b6000819050919050565b612ab683612a81565b612aca612ac282612aa3565b848454612a25565b825550505050565b600090565b612adf612ad2565b612aea818484612aad565b505050565b5b81811015612b0e57612b03600082612ad7565b600181019050612af0565b5050565b601f821115612b5357612b24816129f3565b612b2d84612a08565b81016020851015612b3c578190505b612b50612b4885612a08565b830182612aef565b50505b505050565b600082821c905092915050565b6000612b7660001984600802612b58565b1980831691505092915050565b6000612b8f8383612b65565b9150826002028217905092915050565b612ba882611edf565b67ffffffffffffffff811115612bc157612bc0611d3e565b5b612bcb8254612709565b612bd6828285612b12565b600060209050601f831160018114612c095760008415612bf7578287015190505b612c018582612b83565b865550612c69565b601f198416612c17866129f3565b60005b82811015612c3f57848901518255600182019150602085019450602081019050612c1a565b86831015612c5c5784890151612c58601f891682612b65565b8355505b6001600288020188555050505b505050505050565b7f455243313135353a2069647320616e6420616d6f756e7473206c656e6774682060008201527f6d69736d61746368000000000000000000000000000000000000000000000000602082015250565b6000612ccd602883611eea565b9150612cd882612c71565b604082019050919050565b60006020820190508181036000830152612cfc81612cc0565b9050919050565b7f455243313135353a207472616e7366657220746f20746865207a65726f20616460008201527f6472657373000000000000000000000000000000000000000000000000000000602082015250565b6000612d5f602583611eea565b9150612d6a82612d03565b604082019050919050565b60006020820190508181036000830152612d8e81612d52565b9050919050565b7f455243313135353a20696e73756666696369656e742062616c616e636520666f60008201527f72207472616e7366657200000000000000000000000000000000000000000000602082015250565b6000612df1602a83611eea565b9150612dfc82612d95565b604082019050919050565b60006020820190508181036000830152612e2081612de4565b9050919050565b60006040820190508181036000830152612e4181856123af565b90508181036020830152612e5581846123af565b90509392505050565b7f455243313135353a206275726e2066726f6d20746865207a65726f206164647260008201527f6573730000000000000000000000000000000000000000000000000000000000602082015250565b6000612eba602383611eea565b9150612ec582612e5e565b604082019050919050565b60006020820190508181036000830152612ee981612ead565b9050919050565b7f455243313135353a206275726e20616d6f756e7420657863656564732062616c60008201527f616e636500000000000000000000000000000000000000000000000000000000602082015250565b6000612f4c602483611eea565b9150612f5782612ef0565b604082019050919050565b60006020820190508181036000830152612f7b81612f3f565b9050919050565b7f455243313135353a2073657474696e6720617070726f76616c2073746174757360008201527f20666f722073656c660000000000000000000000000000000000000000000000602082015250565b6000612fde602983611eea565b9150612fe982612f82565b604082019050919050565b6000602082019050818103600083015261300d81612fd1565b9050919050565b600081519050919050565b600082825260208201905092915050565b600061303b82613014565b613045818561301f565b9350613055818560208601611efb565b61305e81611d2d565b840191505092915050565b600060a08201905061307e600083018861246f565b61308b602083018761246f565b6130986040830186611c3e565b6130a56060830185611c3e565b81810360808301526130b78184613030565b90509695505050505050565b6000815190506130d281611c94565b92915050565b6000602082840312156130ee576130ed611b60565b5b60006130fc848285016130c3565b91505092915050565b60008160e01c9050919050565b600060033d11156131315760046000803e61312e600051613105565b90505b90565b600060443d106131c157613146611b56565b60043d036004823e80513d602482011167ffffffffffffffff8211171561316e5750506131c1565b808201805167ffffffffffffffff81111561318c57505050506131c1565b80602083010160043d0385018111156131a95750505050506131c1565b6131b882602001850186611d6d565b82955050505050505b90565b7f455243313135353a207472616e7366657220746f206e6f6e204552433131353560008201527f526563656976657220696d706c656d656e746572000000000000000000000000602082015250565b6000613220603483611eea565b915061322b826131c4565b604082019050919050565b6000602082019050818103600083015261324f81613213565b9050919050565b7f455243313135353a204552433131353552656365697665722072656a6563746560008201527f6420746f6b656e73000000000000000000000000000000000000000000000000602082015250565b60006132b2602883611eea565b91506132bd82613256565b604082019050919050565b600060208201905081810360008301526132e1816132a5565b9050919050565b600060a0820190506132fd600083018861246f565b61330a602083018761246f565b818103604083015261331c81866123af565b9050818103606083015261333081856123af565b905081810360808301526133448184613030565b9050969550505050505056fea2646970667358221220820a41503a3c76280691a84936a7ce119729d317973042cfca827becde6a368164736f6c63430008110033",
  "immutableReferences": {},
  "source": "//SPDX-License-Identifier: GPL-3.0\r\npragma solidity ^0.8.0;\r\n\r\nimport \"../node_modules/@openzeppelin/contracts/token/ERC1155/ERC1155.sol\";\r\nimport \"../node_modules/@openzeppelin/contracts/utils/Counters.sol\";\r\n\r\ncontract Products is ERC1155 {\r\n    address public owner;\r\n    mapping(uint256 => string) private _tokenURIs;\r\n    using Counters for Counters.Counter;\r\n    Counters.Counter public _tokenIds;\r\n\r\n    modifier isOwner() {\r\n        require(owner == msg.sender, \"Not owner\");\r\n        _;\r\n    }\r\n\r\n    constructor() ERC1155(\"\") {\r\n        owner = msg.sender;\r\n    }\r\n\r\n    function createProduct(string memory _tokenURI) public isOwner {\r\n        uint256 newItemId = _tokenIds.current();\r\n        _mint(msg.sender, newItemId, 1, \"\");\r\n        _setTokenUri(newItemId, _tokenURI);\r\n        _tokenIds.increment();\r\n    }\r\n\r\n    function addProduct(uint _tokenId, uint _amount) public isOwner {\r\n        _mint(msg.sender, _tokenId, _amount, \"\");\r\n    }\r\n\r\n    function uri(uint256 _tokenId) public view override returns (string memory) {\r\n        return (_tokenURIs[_tokenId]);\r\n    }\r\n\r\n    function updateURI(uint _tokenId, string memory _tokenURI) public isOwner {\r\n        _setTokenUri(_tokenId, _tokenURI);\r\n    }\r\n\r\n    function _setTokenUri(uint256 _tokenId, string memory _tokenURI) private {\r\n        _tokenURIs[_tokenId] = _tokenURI;\r\n    }\r\n\r\n    function burnProduct(uint256 _id) public isOwner {\r\n        _burn(msg.sender, _id, 1);\r\n    }\r\n}\r\n",
  "sourcePath": "C:\\Users\\Inteli\\Documents\\GitHub\\snack-fair-hackathon\\ethereum\\contracts\\product.sol",
  "compiler": {
    "name": "solc",
    "version": "0.8.17+commit.8df45f5f.Emscripten.clang"
  },
  "schemaVersion": "3.4.10",
  "updatedAt": "2022-10-09T05:41:37.355Z",
  "devdoc": {
    "kind": "dev",
    "methods": {
      "balanceOf(address,uint256)": {
        "details": "See {IERC1155-balanceOf}. Requirements: - `account` cannot be the zero address."
      },
      "balanceOfBatch(address[],uint256[])": {
        "details": "See {IERC1155-balanceOfBatch}. Requirements: - `accounts` and `ids` must have the same length."
      },
      "isApprovedForAll(address,address)": {
        "details": "See {IERC1155-isApprovedForAll}."
      },
      "safeBatchTransferFrom(address,address,uint256[],uint256[],bytes)": {
        "details": "See {IERC1155-safeBatchTransferFrom}."
      },
      "safeTransferFrom(address,address,uint256,uint256,bytes)": {
        "details": "See {IERC1155-safeTransferFrom}."
      },
      "setApprovalForAll(address,bool)": {
        "details": "See {IERC1155-setApprovalForAll}."
      },
      "supportsInterface(bytes4)": {
        "details": "See {IERC165-supportsInterface}."
      }
    },
    "version": 1
  },
  "userdoc": {
    "kind": "user",
    "methods": {},
    "version": 1
  }
}