{
  "contractName": "Products",
  "abi": [
    {
      "inputs": [],
      "stateMutability": "nonpayable",
      "type": "constructor"
    },
    {
      "anonymous": false,
      "inputs": [
        {
          "indexed": true,
          "internalType": "address",
          "name": "account",
          "type": "address"
        },
        {
          "indexed": true,
          "internalType": "address",
          "name": "operator",
          "type": "address"
        },
        {
          "indexed": false,
          "internalType": "bool",
          "name": "approved",
          "type": "bool"
        }
      ],
      "name": "ApprovalForAll",
      "type": "event"
    },
    {
      "anonymous": false,
      "inputs": [
        {
          "indexed": true,
          "internalType": "address",
          "name": "operator",
          "type": "address"
        },
        {
          "indexed": true,
          "internalType": "address",
          "name": "from",
          "type": "address"
        },
        {
          "indexed": true,
          "internalType": "address",
          "name": "to",
          "type": "address"
        },
        {
          "indexed": false,
          "internalType": "uint256[]",
          "name": "ids",
          "type": "uint256[]"
        },
        {
          "indexed": false,
          "internalType": "uint256[]",
          "name": "values",
          "type": "uint256[]"
        }
      ],
      "name": "TransferBatch",
      "type": "event"
    },
    {
      "anonymous": false,
      "inputs": [
        {
          "indexed": true,
          "internalType": "address",
          "name": "operator",
          "type": "address"
        },
        {
          "indexed": true,
          "internalType": "address",
          "name": "from",
          "type": "address"
        },
        {
          "indexed": true,
          "internalType": "address",
          "name": "to",
          "type": "address"
        },
        {
          "indexed": false,
          "internalType": "uint256",
          "name": "id",
          "type": "uint256"
        },
        {
          "indexed": false,
          "internalType": "uint256",
          "name": "value",
          "type": "uint256"
        }
      ],
      "name": "TransferSingle",
      "type": "event"
    },
    {
      "anonymous": false,
      "inputs": [
        {
          "indexed": false,
          "internalType": "string",
          "name": "value",
          "type": "string"
        },
        {
          "indexed": true,
          "internalType": "uint256",
          "name": "id",
          "type": "uint256"
        }
      ],
      "name": "URI",
      "type": "event"
    },
    {
      "inputs": [],
      "name": "_tokenIds",
      "outputs": [
        {
          "internalType": "uint256",
          "name": "_value",
          "type": "uint256"
        }
      ],
      "stateMutability": "view",
      "type": "function"
    },
    {
      "inputs": [
        {
          "internalType": "address",
          "name": "account",
          "type": "address"
        },
        {
          "internalType": "uint256",
          "name": "id",
          "type": "uint256"
        }
      ],
      "name": "balanceOf",
      "outputs": [
        {
          "internalType": "uint256",
          "name": "",
          "type": "uint256"
        }
      ],
      "stateMutability": "view",
      "type": "function"
    },
    {
      "inputs": [
        {
          "internalType": "address[]",
          "name": "accounts",
          "type": "address[]"
        },
        {
          "internalType": "uint256[]",
          "name": "ids",
          "type": "uint256[]"
        }
      ],
      "name": "balanceOfBatch",
      "outputs": [
        {
          "internalType": "uint256[]",
          "name": "",
          "type": "uint256[]"
        }
      ],
      "stateMutability": "view",
      "type": "function"
    },
    {
      "inputs": [
        {
          "internalType": "address",
          "name": "account",
          "type": "address"
        },
        {
          "internalType": "address",
          "name": "operator",
          "type": "address"
        }
      ],
      "name": "isApprovedForAll",
      "outputs": [
        {
          "internalType": "bool",
          "name": "",
          "type": "bool"
        }
      ],
      "stateMutability": "view",
      "type": "function"
    },
    {
      "inputs": [],
      "name": "owner",
      "outputs": [
        {
          "internalType": "address",
          "name": "",
          "type": "address"
        }
      ],
      "stateMutability": "view",
      "type": "function"
    },
    {
      "inputs": [
        {
          "internalType": "address",
          "name": "from",
          "type": "address"
        },
        {
          "internalType": "address",
          "name": "to",
          "type": "address"
        },
        {
          "internalType": "uint256[]",
          "name": "ids",
          "type": "uint256[]"
        },
        {
          "internalType": "uint256[]",
          "name": "amounts",
          "type": "uint256[]"
        },
        {
          "internalType": "bytes",
          "name": "data",
          "type": "bytes"
        }
      ],
      "name": "safeBatchTransferFrom",
      "outputs": [],
      "stateMutability": "nonpayable",
      "type": "function"
    },
    {
      "inputs": [
        {
          "internalType": "address",
          "name": "from",
          "type": "address"
        },
        {
          "internalType": "address",
          "name": "to",
          "type": "address"
        },
        {
          "internalType": "uint256",
          "name": "id",
          "type": "uint256"
        },
        {
          "internalType": "uint256",
          "name": "amount",
          "type": "uint256"
        },
        {
          "internalType": "bytes",
          "name": "data",
          "type": "bytes"
        }
      ],
      "name": "safeTransferFrom",
      "outputs": [],
      "stateMutability": "nonpayable",
      "type": "function"
    },
    {
      "inputs": [
        {
          "internalType": "address",
          "name": "operator",
          "type": "address"
        },
        {
          "internalType": "bool",
          "name": "approved",
          "type": "bool"
        }
      ],
      "name": "setApprovalForAll",
      "outputs": [],
      "stateMutability": "nonpayable",
      "type": "function"
    },
    {
      "inputs": [
        {
          "internalType": "bytes4",
          "name": "interfaceId",
          "type": "bytes4"
        }
      ],
      "name": "supportsInterface",
      "outputs": [
        {
          "internalType": "bool",
          "name": "",
          "type": "bool"
        }
      ],
      "stateMutability": "view",
      "type": "function"
    },
    {
      "inputs": [
        {
          "internalType": "string",
          "name": "_tokenURI",
          "type": "string"
        },
        {
          "internalType": "uint256",
          "name": "_amount",
          "type": "uint256"
        }
      ],
      "name": "createProduct",
      "outputs": [],
      "stateMutability": "nonpayable",
      "type": "function"
    },
    {
      "inputs": [
        {
          "internalType": "uint256",
          "name": "_tokenId",
          "type": "uint256"
        },
        {
          "internalType": "uint256",
          "name": "_amount",
          "type": "uint256"
        }
      ],
      "name": "addProduct",
      "outputs": [],
      "stateMutability": "nonpayable",
      "type": "function"
    },
    {
      "inputs": [
        {
          "internalType": "uint256",
          "name": "_tokenId",
          "type": "uint256"
        }
      ],
      "name": "uri",
      "outputs": [
        {
          "internalType": "string",
          "name": "",
          "type": "string"
        }
      ],
      "stateMutability": "view",
      "type": "function"
    },
    {
      "inputs": [
        {
          "internalType": "uint256",
          "name": "_tokenId",
          "type": "uint256"
        },
        {
          "internalType": "string",
          "name": "_tokenURI",
          "type": "string"
        }
      ],
      "name": "updateURI",
      "outputs": [],
      "stateMutability": "nonpayable",
      "type": "function"
    },
    {
      "inputs": [
        {
          "internalType": "uint256",
          "name": "_id",
          "type": "uint256"
        },
        {
          "internalType": "uint256",
          "name": "_amount",
          "type": "uint256"
        }
      ],
      "name": "burnProduct",
      "outputs": [],
      "stateMutability": "nonpayable",
      "type": "function"
    }
  ],
  "bytecode": "0x60806040523480156200001157600080fd5b506040518060200160405280600081525062000033816200007b60201b60201c565b5033600360006101000a81548173ffffffffffffffffffffffffffffffffffffffff021916908373ffffffffffffffffffffffffffffffffffffffff160217905550620003f1565b80600290816200008c91906200030a565b5050565b600081519050919050565b7f4e487b7100000000000000000000000000000000000000000000000000000000600052604160045260246000fd5b7f4e487b7100000000000000000000000000000000000000000000000000000000600052602260045260246000fd5b600060028204905060018216806200011257607f821691505b602082108103620001285762000127620000ca565b5b50919050565b60008190508160005260206000209050919050565b60006020601f8301049050919050565b600082821b905092915050565b600060088302620001927fffffffffffffffffffffffffffffffffffffffffffffffffffffffffffffffff8262000153565b6200019e868362000153565b95508019841693508086168417925050509392505050565b6000819050919050565b6000819050919050565b6000620001eb620001e5620001df84620001b6565b620001c0565b620001b6565b9050919050565b6000819050919050565b6200020783620001ca565b6200021f6200021682620001f2565b84845462000160565b825550505050565b600090565b6200023662000227565b62000243818484620001fc565b505050565b5b818110156200026b576200025f6000826200022c565b60018101905062000249565b5050565b601f821115620002ba5762000284816200012e565b6200028f8462000143565b810160208510156200029f578190505b620002b7620002ae8562000143565b83018262000248565b50505b505050565b600082821c905092915050565b6000620002df60001984600802620002bf565b1980831691505092915050565b6000620002fa8383620002cc565b9150826002028217905092915050565b620003158262000090565b67ffffffffffffffff8111156200033157620003306200009b565b5b6200033d8254620000f9565b6200034a8282856200026f565b600060209050601f8311600181146200038257600084156200036d578287015190505b620003798582620002ec565b865550620003e9565b601f19841662000392866200012e565b60005b82811015620003bc5784890151825560018201915060208501945060208101905062000395565b86831015620003dc5784890151620003d8601f891682620002cc565b8355505b6001600288020188555050505b505050505050565b61339980620004016000396000f3fe608060405234801561001057600080fd5b50600436106100e95760003560e01c80638b6924791161008c578063aa46a40011610066578063aa46a40014610258578063e9300c6c14610276578063e985e9c514610292578063f242432a146102c2576100e9565b80638b692479146102025780638da5cb5b1461021e578063a22cb4651461023c576100e9565b80632eb2c2d6116100c85780632eb2c2d61461017e57806331d41c691461019a57806334286758146101b65780634e1273f4146101d2576100e9565b8062fdd58e146100ee57806301ffc9a71461011e5780630e89341c1461014e575b600080fd5b61010860048036038101906101039190611bfe565b6102de565b6040516101159190611c4d565b60405180910390f35b61013860048036038101906101339190611cc0565b6103a6565b6040516101459190611d08565b60405180910390f35b61016860048036038101906101639190611d23565b610488565b6040516101759190611de0565b60405180910390f35b61019860048036038101906101939190611fff565b61052d565b005b6101b460048036038101906101af919061216f565b6105ce565b005b6101d060048036038101906101cb91906121cb565b61066c565b005b6101ec60048036038101906101e791906122ce565b61070b565b6040516101f99190612404565b60405180910390f35b61021c600480360381019061021791906121cb565b610824565b005b6102266108d3565b6040516102339190612435565b60405180910390f35b6102566004803603810190610251919061247c565b6108f9565b005b61026061090f565b60405161026d9190611c4d565b60405180910390f35b610290600480360381019061028b91906124bc565b61091b565b005b6102ac60048036038101906102a79190612518565b6109ed565b6040516102b99190611d08565b60405180910390f35b6102dc60048036038101906102d79190612558565b610a81565b005b60008073ffffffffffffffffffffffffffffffffffffffff168373ffffffffffffffffffffffffffffffffffffffff160361034e576040517f08c379a000000000000000000000000000000000000000000000000000000000815260040161034590612661565b60405180910390fd5b60008083815260200190815260200160002060008473ffffffffffffffffffffffffffffffffffffffff1673ffffffffffffffffffffffffffffffffffffffff16815260200190815260200160002054905092915050565b60007fd9b67a26000000000000000000000000000000000000000000000000000000007bffffffffffffffffffffffffffffffffffffffffffffffffffffffff1916827bffffffffffffffffffffffffffffffffffffffffffffffffffffffff1916148061047157507f0e89341c000000000000000000000000000000000000000000000000000000007bffffffffffffffffffffffffffffffffffffffffffffffffffffffff1916827bffffffffffffffffffffffffffffffffffffffffffffffffffffffff1916145b80610481575061048082610b22565b5b9050919050565b60606004600083815260200190815260200160002080546104a8906126b0565b80601f01602080910402602001604051908101604052809291908181526020018280546104d4906126b0565b80156105215780601f106104f657610100808354040283529160200191610521565b820191906000526020600020905b81548152906001019060200180831161050457829003601f168201915b50505050509050919050565b610535610b8c565b73ffffffffffffffffffffffffffffffffffffffff168573ffffffffffffffffffffffffffffffffffffffff16148061057b575061057a85610575610b8c565b6109ed565b5b6105ba576040517f08c379a00000000000000000000000000000000000000000000000000000000081526004016105b190612753565b60405180910390fd5b6105c78585858585610b94565b5050505050565b3373ffffffffffffffffffffffffffffffffffffffff16600360009054906101000a900473ffffffffffffffffffffffffffffffffffffffff1673ffffffffffffffffffffffffffffffffffffffff161461065e576040517f08c379a0000000000000000000000000000000000000000000000000000000008152600401610655906127bf565b60405180910390fd5b6106688282610eb5565b5050565b3373ffffffffffffffffffffffffffffffffffffffff16600360009054906101000a900473ffffffffffffffffffffffffffffffffffffffff1673ffffffffffffffffffffffffffffffffffffffff16146106fc576040517f08c379a00000000000000000000000000000000000000000000000000000000081526004016106f3906127bf565b60405180910390fd5b610707338383610eda565b5050565b60608151835114610751576040517f08c379a000000000000000000000000000000000000000000000000000000000815260040161074890612851565b60405180910390fd5b6000835167ffffffffffffffff81111561076e5761076d611e07565b5b60405190808252806020026020018201604052801561079c5781602001602082028036833780820191505090505b50905060005b8451811015610819576107e98582815181106107c1576107c0612871565b5b60200260200101518583815181106107dc576107db612871565b5b60200260200101516102de565b8282815181106107fc576107fb612871565b5b60200260200101818152505080610812906128cf565b90506107a2565b508091505092915050565b3373ffffffffffffffffffffffffffffffffffffffff16600360009054906101000a900473ffffffffffffffffffffffffffffffffffffffff1673ffffffffffffffffffffffffffffffffffffffff16146108b4576040517f08c379a00000000000000000000000000000000000000000000000000000000081526004016108ab906127bf565b60405180910390fd5b6108cf33838360405180602001604052806000815250611120565b5050565b600360009054906101000a900473ffffffffffffffffffffffffffffffffffffffff1681565b61090b610904610b8c565b83836112d0565b5050565b60058060000154905081565b3373ffffffffffffffffffffffffffffffffffffffff16600360009054906101000a900473ffffffffffffffffffffffffffffffffffffffff1673ffffffffffffffffffffffffffffffffffffffff16146109ab576040517f08c379a00000000000000000000000000000000000000000000000000000000081526004016109a2906127bf565b60405180910390fd5b60006109b7600561143c565b90506109d433828460405180602001604052806000815250611120565b6109de8184610eb5565b6109e8600561144a565b505050565b6000600160008473ffffffffffffffffffffffffffffffffffffffff1673ffffffffffffffffffffffffffffffffffffffff16815260200190815260200160002060008373ffffffffffffffffffffffffffffffffffffffff1673ffffffffffffffffffffffffffffffffffffffff16815260200190815260200160002060009054906101000a900460ff16905092915050565b610a89610b8c565b73ffffffffffffffffffffffffffffffffffffffff168573ffffffffffffffffffffffffffffffffffffffff161480610acf5750610ace85610ac9610b8c565b6109ed565b5b610b0e576040517f08c379a0000000000000000000000000000000000000000000000000000000008152600401610b0590612753565b60405180910390fd5b610b1b8585858585611460565b5050505050565b60007f01ffc9a7000000000000000000000000000000000000000000000000000000007bffffffffffffffffffffffffffffffffffffffffffffffffffffffff1916827bffffffffffffffffffffffffffffffffffffffffffffffffffffffff1916149050919050565b600033905090565b8151835114610bd8576040517f08c379a0000000000000000000000000000000000000000000000000000000008152600401610bcf90612989565b60405180910390fd5b600073ffffffffffffffffffffffffffffffffffffffff168473ffffffffffffffffffffffffffffffffffffffff1603610c47576040517f08c379a0000000000000000000000000000000000000000000000000000000008152600401610c3e90612a1b565b60405180910390fd5b6000610c51610b8c565b9050610c618187878787876116fb565b60005b8451811015610e12576000858281518110610c8257610c81612871565b5b602002602001015190506000858381518110610ca157610ca0612871565b5b60200260200101519050600080600084815260200190815260200160002060008b73ffffffffffffffffffffffffffffffffffffffff1673ffffffffffffffffffffffffffffffffffffffff16815260200190815260200160002054905081811015610d42576040517f08c379a0000000000000000000000000000000000000000000000000000000008152600401610d3990612aad565b60405180910390fd5b81810360008085815260200190815260200160002060008c73ffffffffffffffffffffffffffffffffffffffff1673ffffffffffffffffffffffffffffffffffffffff168152602001908152602001600020819055508160008085815260200190815260200160002060008b73ffffffffffffffffffffffffffffffffffffffff1673ffffffffffffffffffffffffffffffffffffffff1681526020019081526020016000206000828254610df79190612acd565b9250508190555050505080610e0b906128cf565b9050610c64565b508473ffffffffffffffffffffffffffffffffffffffff168673ffffffffffffffffffffffffffffffffffffffff168273ffffffffffffffffffffffffffffffffffffffff167f4a39dc06d4c0dbc64b70af90fd698a233a518aa5d07e595d983b8c0526c8f7fb8787604051610e89929190612b01565b60405180910390a4610e9f818787878787611703565b610ead81878787878761170b565b505050505050565b80600460008481526020019081526020016000209081610ed59190612ce4565b505050565b600073ffffffffffffffffffffffffffffffffffffffff168373ffffffffffffffffffffffffffffffffffffffff1603610f49576040517f08c379a0000000000000000000000000000000000000000000000000000000008152600401610f4090612e28565b60405180910390fd5b6000610f53610b8c565b90506000610f60846118e2565b90506000610f6d846118e2565b9050610f8d838760008585604051806020016040528060008152506116fb565b600080600087815260200190815260200160002060008873ffffffffffffffffffffffffffffffffffffffff1673ffffffffffffffffffffffffffffffffffffffff16815260200190815260200160002054905084811015611024576040517f08c379a000000000000000000000000000000000000000000000000000000000815260040161101b90612eba565b60405180910390fd5b84810360008088815260200190815260200160002060008973ffffffffffffffffffffffffffffffffffffffff1673ffffffffffffffffffffffffffffffffffffffff16815260200190815260200160002081905550600073ffffffffffffffffffffffffffffffffffffffff168773ffffffffffffffffffffffffffffffffffffffff168573ffffffffffffffffffffffffffffffffffffffff167fc3d58168c5ae7397731d063d5bbf3d657854427343f4c083240f7aacaa2d0f6289896040516110f1929190612eda565b60405180910390a461111784886000868660405180602001604052806000815250611703565b50505050505050565b600073ffffffffffffffffffffffffffffffffffffffff168473ffffffffffffffffffffffffffffffffffffffff160361118f576040517f08c379a000000000000000000000000000000000000000000000000000000000815260040161118690612f75565b60405180910390fd5b6000611199610b8c565b905060006111a6856118e2565b905060006111b3856118e2565b90506111c4836000898585896116fb565b8460008088815260200190815260200160002060008973ffffffffffffffffffffffffffffffffffffffff1673ffffffffffffffffffffffffffffffffffffffff16815260200190815260200160002060008282546112239190612acd565b925050819055508673ffffffffffffffffffffffffffffffffffffffff16600073ffffffffffffffffffffffffffffffffffffffff168473ffffffffffffffffffffffffffffffffffffffff167fc3d58168c5ae7397731d063d5bbf3d657854427343f4c083240f7aacaa2d0f6289896040516112a1929190612eda565b60405180910390a46112b883600089858589611703565b6112c78360008989898961195c565b50505050505050565b8173ffffffffffffffffffffffffffffffffffffffff168373ffffffffffffffffffffffffffffffffffffffff160361133e576040517f08c379a000000000000000000000000000000000000000000000000000000000815260040161133590613007565b60405180910390fd5b80600160008573ffffffffffffffffffffffffffffffffffffffff1673ffffffffffffffffffffffffffffffffffffffff16815260200190815260200160002060008473ffffffffffffffffffffffffffffffffffffffff1673ffffffffffffffffffffffffffffffffffffffff16815260200190815260200160002060006101000a81548160ff0219169083151502179055508173ffffffffffffffffffffffffffffffffffffffff168373ffffffffffffffffffffffffffffffffffffffff167f17307eab39ab6107e8899845ad3d59bd9653f200f220920489ca2b5937696c318360405161142f9190611d08565b60405180910390a3505050565b600081600001549050919050565b6001816000016000828254019250508190555050565b600073ffffffffffffffffffffffffffffffffffffffff168473ffffffffffffffffffffffffffffffffffffffff16036114cf576040517f08c379a00000000000000000000000000000000000000000000000000000000081526004016114c690612a1b565b60405180910390fd5b60006114d9610b8c565b905060006114e6856118e2565b905060006114f3856118e2565b90506115038389898585896116fb565b600080600088815260200190815260200160002060008a73ffffffffffffffffffffffffffffffffffffffff1673ffffffffffffffffffffffffffffffffffffffff1681526020019081526020016000205490508581101561159a576040517f08c379a000000000000000000000000000000000000000000000000000000000815260040161159190612aad565b60405180910390fd5b85810360008089815260200190815260200160002060008b73ffffffffffffffffffffffffffffffffffffffff1673ffffffffffffffffffffffffffffffffffffffff168152602001908152602001600020819055508560008089815260200190815260200160002060008a73ffffffffffffffffffffffffffffffffffffffff1673ffffffffffffffffffffffffffffffffffffffff168152602001908152602001600020600082825461164f9190612acd565b925050819055508773ffffffffffffffffffffffffffffffffffffffff168973ffffffffffffffffffffffffffffffffffffffff168573ffffffffffffffffffffffffffffffffffffffff167fc3d58168c5ae7397731d063d5bbf3d657854427343f4c083240f7aacaa2d0f628a8a6040516116cc929190612eda565b60405180910390a46116e2848a8a86868a611703565b6116f0848a8a8a8a8a61195c565b505050505050505050565b505050505050565b505050505050565b61172a8473ffffffffffffffffffffffffffffffffffffffff16611b33565b156118da578373ffffffffffffffffffffffffffffffffffffffff1663bc197c8187878686866040518663ffffffff1660e01b815260040161177095949392919061307c565b6020604051808303816000875af19250505080156117ac57506040513d601f19601f820116820180604052508101906117a991906130f9565b60015b611851576117b8613133565b806308c379a00361181457506117cc613155565b806117d75750611816565b806040517f08c379a000000000000000000000000000000000000000000000000000000000815260040161180b9190611de0565b60405180910390fd5b505b6040517f08c379a000000000000000000000000000000000000000000000000000000000815260040161184890613257565b60405180910390fd5b63bc197c8160e01b7bffffffffffffffffffffffffffffffffffffffffffffffffffffffff1916817bffffffffffffffffffffffffffffffffffffffffffffffffffffffff1916146118d8576040517f08c379a00000000000000000000000000000000000000000000000000000000081526004016118cf906132e9565b60405180910390fd5b505b505050505050565b60606000600167ffffffffffffffff81111561190157611900611e07565b5b60405190808252806020026020018201604052801561192f5781602001602082028036833780820191505090505b509050828160008151811061194757611946612871565b5b60200260200101818152505080915050919050565b61197b8473ffffffffffffffffffffffffffffffffffffffff16611b33565b15611b2b578373ffffffffffffffffffffffffffffffffffffffff1663f23a6e6187878686866040518663ffffffff1660e01b81526004016119c1959493929190613309565b6020604051808303816000875af19250505080156119fd57506040513d601f19601f820116820180604052508101906119fa91906130f9565b60015b611aa257611a09613133565b806308c379a003611a655750611a1d613155565b80611a285750611a67565b806040517f08c379a0000000000000000000000000000000000000000000000000000000008152600401611a5c9190611de0565b60405180910390fd5b505b6040517f08c379a0000000000000000000000000000000000000000000000000000000008152600401611a9990613257565b60405180910390fd5b63f23a6e6160e01b7bffffffffffffffffffffffffffffffffffffffffffffffffffffffff1916817bffffffffffffffffffffffffffffffffffffffffffffffffffffffff191614611b29576040517f08c379a0000000000000000000000000000000000000000000000000000000008152600401611b20906132e9565b60405180910390fd5b505b505050505050565b6000808273ffffffffffffffffffffffffffffffffffffffff163b119050919050565b6000604051905090565b600080fd5b600080fd5b600073ffffffffffffffffffffffffffffffffffffffff82169050919050565b6000611b9582611b6a565b9050919050565b611ba581611b8a565b8114611bb057600080fd5b50565b600081359050611bc281611b9c565b92915050565b6000819050919050565b611bdb81611bc8565b8114611be657600080fd5b50565b600081359050611bf881611bd2565b92915050565b60008060408385031215611c1557611c14611b60565b5b6000611c2385828601611bb3565b9250506020611c3485828601611be9565b9150509250929050565b611c4781611bc8565b82525050565b6000602082019050611c626000830184611c3e565b92915050565b60007fffffffff0000000000000000000000000000000000000000000000000000000082169050919050565b611c9d81611c68565b8114611ca857600080fd5b50565b600081359050611cba81611c94565b92915050565b600060208284031215611cd657611cd5611b60565b5b6000611ce484828501611cab565b91505092915050565b60008115159050919050565b611d0281611ced565b82525050565b6000602082019050611d1d6000830184611cf9565b92915050565b600060208284031215611d3957611d38611b60565b5b6000611d4784828501611be9565b91505092915050565b600081519050919050565b600082825260208201905092915050565b60005b83811015611d8a578082015181840152602081019050611d6f565b60008484015250505050565b6000601f19601f8301169050919050565b6000611db282611d50565b611dbc8185611d5b565b9350611dcc818560208601611d6c565b611dd581611d96565b840191505092915050565b60006020820190508181036000830152611dfa8184611da7565b905092915050565b600080fd5b7f4e487b7100000000000000000000000000000000000000000000000000000000600052604160045260246000fd5b611e3f82611d96565b810181811067ffffffffffffffff82111715611e5e57611e5d611e07565b5b80604052505050565b6000611e71611b56565b9050611e7d8282611e36565b919050565b600067ffffffffffffffff821115611e9d57611e9c611e07565b5b602082029050602081019050919050565b600080fd5b6000611ec6611ec184611e82565b611e67565b90508083825260208201905060208402830185811115611ee957611ee8611eae565b5b835b81811015611f125780611efe8882611be9565b845260208401935050602081019050611eeb565b5050509392505050565b600082601f830112611f3157611f30611e02565b5b8135611f41848260208601611eb3565b91505092915050565b600080fd5b600067ffffffffffffffff821115611f6a57611f69611e07565b5b611f7382611d96565b9050602081019050919050565b82818337600083830152505050565b6000611fa2611f9d84611f4f565b611e67565b905082815260208101848484011115611fbe57611fbd611f4a565b5b611fc9848285611f80565b509392505050565b600082601f830112611fe657611fe5611e02565b5b8135611ff6848260208601611f8f565b91505092915050565b600080600080600060a0868803121561201b5761201a611b60565b5b600061202988828901611bb3565b955050602061203a88828901611bb3565b945050604086013567ffffffffffffffff81111561205b5761205a611b65565b5b61206788828901611f1c565b935050606086013567ffffffffffffffff81111561208857612087611b65565b5b61209488828901611f1c565b925050608086013567ffffffffffffffff8111156120b5576120b4611b65565b5b6120c188828901611fd1565b9150509295509295909350565b600067ffffffffffffffff8211156120e9576120e8611e07565b5b6120f282611d96565b9050602081019050919050565b600061211261210d846120ce565b611e67565b90508281526020810184848401111561212e5761212d611f4a565b5b612139848285611f80565b509392505050565b600082601f83011261215657612155611e02565b5b81356121668482602086016120ff565b91505092915050565b6000806040838503121561218657612185611b60565b5b600061219485828601611be9565b925050602083013567ffffffffffffffff8111156121b5576121b4611b65565b5b6121c185828601612141565b9150509250929050565b600080604083850312156121e2576121e1611b60565b5b60006121f085828601611be9565b925050602061220185828601611be9565b9150509250929050565b600067ffffffffffffffff82111561222657612225611e07565b5b602082029050602081019050919050565b600061224a6122458461220b565b611e67565b9050808382526020820190506020840283018581111561226d5761226c611eae565b5b835b8181101561229657806122828882611bb3565b84526020840193505060208101905061226f565b5050509392505050565b600082601f8301126122b5576122b4611e02565b5b81356122c5848260208601612237565b91505092915050565b600080604083850312156122e5576122e4611b60565b5b600083013567ffffffffffffffff81111561230357612302611b65565b5b61230f858286016122a0565b925050602083013567ffffffffffffffff8111156123305761232f611b65565b5b61233c85828601611f1c565b9150509250929050565b600081519050919050565b600082825260208201905092915050565b6000819050602082019050919050565b61237b81611bc8565b82525050565b600061238d8383612372565b60208301905092915050565b6000602082019050919050565b60006123b182612346565b6123bb8185612351565b93506123c683612362565b8060005b838110156123f75781516123de8882612381565b97506123e983612399565b9250506001810190506123ca565b5085935050505092915050565b6000602082019050818103600083015261241e81846123a6565b905092915050565b61242f81611b8a565b82525050565b600060208201905061244a6000830184612426565b92915050565b61245981611ced565b811461246457600080fd5b50565b60008135905061247681612450565b92915050565b6000806040838503121561249357612492611b60565b5b60006124a185828601611bb3565b92505060206124b285828601612467565b9150509250929050565b600080604083850312156124d3576124d2611b60565b5b600083013567ffffffffffffffff8111156124f1576124f0611b65565b5b6124fd85828601612141565b925050602061250e85828601611be9565b9150509250929050565b6000806040838503121561252f5761252e611b60565b5b600061253d85828601611bb3565b925050602061254e85828601611bb3565b9150509250929050565b600080600080600060a0868803121561257457612573611b60565b5b600061258288828901611bb3565b955050602061259388828901611bb3565b94505060406125a488828901611be9565b93505060606125b588828901611be9565b925050608086013567ffffffffffffffff8111156125d6576125d5611b65565b5b6125e288828901611fd1565b9150509295509295909350565b7f455243313135353a2061646472657373207a65726f206973206e6f742061207660008201527f616c6964206f776e657200000000000000000000000000000000000000000000602082015250565b600061264b602a83611d5b565b9150612656826125ef565b604082019050919050565b6000602082019050818103600083015261267a8161263e565b9050919050565b7f4e487b7100000000000000000000000000000000000000000000000000000000600052602260045260246000fd5b600060028204905060018216806126c857607f821691505b6020821081036126db576126da612681565b5b50919050565b7f455243313135353a2063616c6c6572206973206e6f7420746f6b656e206f776e60008201527f6572206e6f7220617070726f7665640000000000000000000000000000000000602082015250565b600061273d602f83611d5b565b9150612748826126e1565b604082019050919050565b6000602082019050818103600083015261276c81612730565b9050919050565b7f4e6f74206f776e65720000000000000000000000000000000000000000000000600082015250565b60006127a9600983611d5b565b91506127b482612773565b602082019050919050565b600060208201905081810360008301526127d88161279c565b9050919050565b7f455243313135353a206163636f756e747320616e6420696473206c656e67746860008201527f206d69736d617463680000000000000000000000000000000000000000000000602082015250565b600061283b602983611d5b565b9150612846826127df565b604082019050919050565b6000602082019050818103600083015261286a8161282e565b9050919050565b7f4e487b7100000000000000000000000000000000000000000000000000000000600052603260045260246000fd5b7f4e487b7100000000000000000000000000000000000000000000000000000000600052601160045260246000fd5b60006128da82611bc8565b91507fffffffffffffffffffffffffffffffffffffffffffffffffffffffffffffffff820361290c5761290b6128a0565b5b600182019050919050565b7f455243313135353a2069647320616e6420616d6f756e7473206c656e6774682060008201527f6d69736d61746368000000000000000000000000000000000000000000000000602082015250565b6000612973602883611d5b565b915061297e82612917565b604082019050919050565b600060208201905081810360008301526129a281612966565b9050919050565b7f455243313135353a207472616e7366657220746f20746865207a65726f20616460008201527f6472657373000000000000000000000000000000000000000000000000000000602082015250565b6000612a05602583611d5b565b9150612a10826129a9565b604082019050919050565b60006020820190508181036000830152612a34816129f8565b9050919050565b7f455243313135353a20696e73756666696369656e742062616c616e636520666f60008201527f72207472616e7366657200000000000000000000000000000000000000000000602082015250565b6000612a97602a83611d5b565b9150612aa282612a3b565b604082019050919050565b60006020820190508181036000830152612ac681612a8a565b9050919050565b6000612ad882611bc8565b9150612ae383611bc8565b9250828201905080821115612afb57612afa6128a0565b5b92915050565b60006040820190508181036000830152612b1b81856123a6565b90508181036020830152612b2f81846123a6565b90509392505050565b60008190508160005260206000209050919050565b60006020601f8301049050919050565b600082821b905092915050565b600060088302612b9a7fffffffffffffffffffffffffffffffffffffffffffffffffffffffffffffffff82612b5d565b612ba48683612b5d565b95508019841693508086168417925050509392505050565b6000819050919050565b6000612be1612bdc612bd784611bc8565b612bbc565b611bc8565b9050919050565b6000819050919050565b612bfb83612bc6565b612c0f612c0782612be8565b848454612b6a565b825550505050565b600090565b612c24612c17565b612c2f818484612bf2565b505050565b5b81811015612c5357612c48600082612c1c565b600181019050612c35565b5050565b601f821115612c9857612c6981612b38565b612c7284612b4d565b81016020851015612c81578190505b612c95612c8d85612b4d565b830182612c34565b50505b505050565b600082821c905092915050565b6000612cbb60001984600802612c9d565b1980831691505092915050565b6000612cd48383612caa565b9150826002028217905092915050565b612ced82611d50565b67ffffffffffffffff811115612d0657612d05611e07565b5b612d1082546126b0565b612d1b828285612c57565b600060209050601f831160018114612d4e5760008415612d3c578287015190505b612d468582612cc8565b865550612dae565b601f198416612d5c86612b38565b60005b82811015612d8457848901518255600182019150602085019450602081019050612d5f565b86831015612da15784890151612d9d601f891682612caa565b8355505b6001600288020188555050505b505050505050565b7f455243313135353a206275726e2066726f6d20746865207a65726f206164647260008201527f6573730000000000000000000000000000000000000000000000000000000000602082015250565b6000612e12602383611d5b565b9150612e1d82612db6565b604082019050919050565b60006020820190508181036000830152612e4181612e05565b9050919050565b7f455243313135353a206275726e20616d6f756e7420657863656564732062616c60008201527f616e636500000000000000000000000000000000000000000000000000000000602082015250565b6000612ea4602483611d5b565b9150612eaf82612e48565b604082019050919050565b60006020820190508181036000830152612ed381612e97565b9050919050565b6000604082019050612eef6000830185611c3e565b612efc6020830184611c3e565b9392505050565b7f455243313135353a206d696e7420746f20746865207a65726f2061646472657360008201527f7300000000000000000000000000000000000000000000000000000000000000602082015250565b6000612f5f602183611d5b565b9150612f6a82612f03565b604082019050919050565b60006020820190508181036000830152612f8e81612f52565b9050919050565b7f455243313135353a2073657474696e6720617070726f76616c2073746174757360008201527f20666f722073656c660000000000000000000000000000000000000000000000602082015250565b6000612ff1602983611d5b565b9150612ffc82612f95565b604082019050919050565b6000602082019050818103600083015261302081612fe4565b9050919050565b600081519050919050565b600082825260208201905092915050565b600061304e82613027565b6130588185613032565b9350613068818560208601611d6c565b61307181611d96565b840191505092915050565b600060a0820190506130916000830188612426565b61309e6020830187612426565b81810360408301526130b081866123a6565b905081810360608301526130c481856123a6565b905081810360808301526130d88184613043565b90509695505050505050565b6000815190506130f381611c94565b92915050565b60006020828403121561310f5761310e611b60565b5b600061311d848285016130e4565b91505092915050565b60008160e01c9050919050565b600060033d11156131525760046000803e61314f600051613126565b90505b90565b600060443d106131e257613167611b56565b60043d036004823e80513d602482011167ffffffffffffffff8211171561318f5750506131e2565b808201805167ffffffffffffffff8111156131ad57505050506131e2565b80602083010160043d0385018111156131ca5750505050506131e2565b6131d982602001850186611e36565b82955050505050505b90565b7f455243313135353a207472616e7366657220746f206e6f6e204552433131353560008201527f526563656976657220696d706c656d656e746572000000000000000000000000602082015250565b6000613241603483611d5b565b915061324c826131e5565b604082019050919050565b6000602082019050818103600083015261327081613234565b9050919050565b7f455243313135353a204552433131353552656365697665722072656a6563746560008201527f6420746f6b656e73000000000000000000000000000000000000000000000000602082015250565b60006132d3602883611d5b565b91506132de82613277565b604082019050919050565b60006020820190508181036000830152613302816132c6565b9050919050565b600060a08201905061331e6000830188612426565b61332b6020830187612426565b6133386040830186611c3e565b6133456060830185611c3e565b81810360808301526133578184613043565b9050969550505050505056fea264697066735822122064b9a5a83f503f618b715a12e9e2517e0acd09a45a958609aa451b55986e4a0d64736f6c63430008110033",
  "immutableReferences": {},
  "source": "//SPDX-License-Identifier: GPL-3.0\r\npragma solidity ^0.8.0;\r\n\r\nimport \"../node_modules/@openzeppelin/contracts/token/ERC1155/ERC1155.sol\";\r\nimport \"../node_modules/@openzeppelin/contracts/utils/Counters.sol\";\r\n\r\ncontract Products is ERC1155 {\r\n    address public owner;\r\n    mapping(uint256 => string) private _tokenURIs;\r\n    using Counters for Counters.Counter;\r\n    Counters.Counter public _tokenIds;\r\n\r\n    modifier isOwner() {\r\n        require(owner == msg.sender, \"Not owner\");\r\n        _;\r\n    }\r\n\r\n    constructor() ERC1155(\"\") {\r\n        owner = msg.sender;\r\n    }\r\n\r\n    function createProduct(string memory _tokenURI, uint256 _amount)\r\n        public\r\n        isOwner\r\n    {\r\n        uint256 newItemId = _tokenIds.current();\r\n        _mint(msg.sender, newItemId, _amount, \"\");\r\n        _setTokenUri(newItemId, _tokenURI);\r\n        _tokenIds.increment();\r\n    }\r\n\r\n    function addProduct(uint256 _tokenId, uint256 _amount) public isOwner {\r\n        _mint(msg.sender, _tokenId, _amount, \"\");\r\n    }\r\n\r\n    function uri(uint256 _tokenId)\r\n        public\r\n        view\r\n        override\r\n        returns (string memory)\r\n    {\r\n        return (_tokenURIs[_tokenId]);\r\n    }\r\n\r\n    function updateURI(uint256 _tokenId, string memory _tokenURI)\r\n        public\r\n        isOwner\r\n    {\r\n        _setTokenUri(_tokenId, _tokenURI);\r\n    }\r\n\r\n    function _setTokenUri(uint256 _tokenId, string memory _tokenURI) private {\r\n        _tokenURIs[_tokenId] = _tokenURI;\r\n    }\r\n\r\n    function burnProduct(uint256 _id, uint256 _amount) public isOwner {\r\n        _burn(msg.sender, _id, _amount);\r\n    }\r\n}\r\n",
  "sourcePath": "C:\\Users\\reish\\Documents\\GitHub\\EthGlobalProject\\front\\src\\ethereum\\contracts\\product.sol",
  "compiler": {
    "name": "solc",
    "version": "0.8.17+commit.8df45f5f.Emscripten.clang"
  },
  "schemaVersion": "3.4.10",
  "updatedAt": "2022-10-09T09:09:54.715Z",
  "devdoc": {
    "kind": "dev",
    "methods": {
      "balanceOf(address,uint256)": {
        "details": "See {IERC1155-balanceOf}. Requirements: - `account` cannot be the zero address."
      },
      "balanceOfBatch(address[],uint256[])": {
        "details": "See {IERC1155-balanceOfBatch}. Requirements: - `accounts` and `ids` must have the same length."
      },
      "isApprovedForAll(address,address)": {
        "details": "See {IERC1155-isApprovedForAll}."
      },
      "safeBatchTransferFrom(address,address,uint256[],uint256[],bytes)": {
        "details": "See {IERC1155-safeBatchTransferFrom}."
      },
      "safeTransferFrom(address,address,uint256,uint256,bytes)": {
        "details": "See {IERC1155-safeTransferFrom}."
      },
      "setApprovalForAll(address,bool)": {
        "details": "See {IERC1155-setApprovalForAll}."
      },
      "supportsInterface(bytes4)": {
        "details": "See {IERC165-supportsInterface}."
      }
    },
    "version": 1
  },
  "userdoc": {
    "kind": "user",
    "methods": {},
    "version": 1
  }
}