{
  "contractName": "StakeERC20",
  "abi": [
    {
      "inputs": [
        {
          "internalType": "address",
          "name": "_address",
          "type": "address"
        }
      ],
      "stateMutability": "nonpayable",
      "type": "constructor"
    },
    {
      "inputs": [],
      "name": "snackFairAddress",
      "outputs": [
        {
          "internalType": "address",
          "name": "",
          "type": "address"
        }
      ],
      "stateMutability": "view",
      "type": "function"
    },
    {
      "inputs": [
        {
          "internalType": "uint256",
          "name": "_stakedAmount",
          "type": "uint256"
        }
      ],
      "name": "stakeTokens",
      "outputs": [],
      "stateMutability": "payable",
      "type": "function"
    },
    {
      "inputs": [],
      "name": "unstakeTokens",
      "outputs": [],
      "stateMutability": "nonpayable",
      "type": "function"
    }
  ],
  "bytecode": "0x608060405234801561001057600080fd5b506040516106c73803806106c7833981810160405281019061003291906100dc565b80600160006101000a81548173ffffffffffffffffffffffffffffffffffffffff021916908373ffffffffffffffffffffffffffffffffffffffff16021790555050610109565b600080fd5b600073ffffffffffffffffffffffffffffffffffffffff82169050919050565b60006100a98261007e565b9050919050565b6100b98161009e565b81146100c457600080fd5b50565b6000815190506100d6816100b0565b92915050565b6000602082840312156100f2576100f1610079565b5b6000610100848285016100c7565b91505092915050565b6105af806101186000396000f3fe6080604052600436106100345760003560e01c80634a5512b8146100395780637547c7a314610064578063a5ce413b14610080575b600080fd5b34801561004557600080fd5b5061004e610097565b60405161005b919061035d565b60405180910390f35b61007e600480360381019061007991906103b3565b6100bd565b005b34801561008c57600080fd5b506100956101b8565b005b600160009054906101000a900473ffffffffffffffffffffffffffffffffffffffff1681565b60006018826100cc919061040f565b9050600160009054906101000a900473ffffffffffffffffffffffffffffffffffffffff1673ffffffffffffffffffffffffffffffffffffffff166323b872dd3330846040518463ffffffff1660e01b815260040161012d93929190610460565b6020604051808303816000875af115801561014c573d6000803e3d6000fd5b505050506040513d601f19601f8201168201806040525081019061017091906104cf565b50806000803373ffffffffffffffffffffffffffffffffffffffff1673ffffffffffffffffffffffffffffffffffffffff168152602001908152602001600020819055505050565b60008060003373ffffffffffffffffffffffffffffffffffffffff1673ffffffffffffffffffffffffffffffffffffffff1681526020019081526020016000205411610239576040517f08c379a000000000000000000000000000000000000000000000000000000000815260040161023090610559565b60405180910390fd5b600160009054906101000a900473ffffffffffffffffffffffffffffffffffffffff1673ffffffffffffffffffffffffffffffffffffffff166323b872dd30336000803373ffffffffffffffffffffffffffffffffffffffff1673ffffffffffffffffffffffffffffffffffffffff168152602001908152602001600020546040518463ffffffff1660e01b81526004016102d693929190610460565b6020604051808303816000875af11580156102f5573d6000803e3d6000fd5b505050506040513d601f19601f8201168201806040525081019061031991906104cf565b50565b600073ffffffffffffffffffffffffffffffffffffffff82169050919050565b60006103478261031c565b9050919050565b6103578161033c565b82525050565b6000602082019050610372600083018461034e565b92915050565b600080fd5b6000819050919050565b6103908161037d565b811461039b57600080fd5b50565b6000813590506103ad81610387565b92915050565b6000602082840312156103c9576103c8610378565b5b60006103d78482850161039e565b91505092915050565b7f4e487b7100000000000000000000000000000000000000000000000000000000600052601160045260246000fd5b600061041a8261037d565b91506104258361037d565b92508282026104338161037d565b9150828204841483151761044a576104496103e0565b5b5092915050565b61045a8161037d565b82525050565b6000606082019050610475600083018661034e565b610482602083018561034e565b61048f6040830184610451565b949350505050565b60008115159050919050565b6104ac81610497565b81146104b757600080fd5b50565b6000815190506104c9816104a3565b92915050565b6000602082840312156104e5576104e4610378565b5b60006104f3848285016104ba565b91505092915050565b600082825260208201905092915050565b7f446f6e2774206861766520616e7920746f6b656e7320746f20756e7374616b65600082015250565b60006105436020836104fc565b915061054e8261050d565b602082019050919050565b6000602082019050818103600083015261057281610536565b905091905056fea26469706673582212201f4ae49a27710d3591a95bdf916b0995412ec7b0f6b7629b210cbb79248fbc4e64736f6c63430008110033",
  "immutableReferences": {},
  "source": "// SPDX-License-Identifier: MIT\r\npragma solidity ^0.8.15;\r\n\r\nimport \"./snackFairERC20.sol\";\r\n\r\ncontract StakeERC20 {\r\n    mapping(address => uint256) tokensStaked;\r\n\r\n    address public snackFairAddress;\r\n\r\n    constructor(address _address) {\r\n        snackFairAddress = _address;\r\n    }\r\n\r\n    function stakeTokens(uint256 _stakedAmount) public payable {\r\n        uint256 amount = _stakedAmount * (10 ^ 18);\r\n        SnackFairERC20(snackFairAddress).transferFrom(\r\n            msg.sender,\r\n            address(this),\r\n            amount\r\n        );\r\n\r\n        tokensStaked[msg.sender] = amount;\r\n    }\r\n\r\n    function unstakeTokens() public {\r\n        require(\r\n            tokensStaked[msg.sender] > 0,\r\n            \"Don't have any tokens to unstake\"\r\n        );\r\n        SnackFairERC20(snackFairAddress).transferFrom(\r\n            address(this),\r\n            msg.sender,\r\n            tokensStaked[msg.sender]\r\n        );\r\n    }\r\n}\r\n",
  "sourcePath": "C:\\Users\\reish\\Documents\\GitHub\\EthGlobalProject\\front\\src\\ethereum\\contracts\\stakeERC20.sol",
  "compiler": {
    "name": "solc",
    "version": "0.8.17+commit.8df45f5f.Emscripten.clang"
  },
  "schemaVersion": "3.4.10",
  "updatedAt": "2022-10-09T09:09:54.765Z",
  "devdoc": {
    "kind": "dev",
    "methods": {},
    "version": 1
  },
  "userdoc": {
    "kind": "user",
    "methods": {},
    "version": 1
  }
}