{
  "contractName": "Store",
  "abi": [
    {
      "inputs": [
        {
          "internalType": "string",
          "name": "_name",
          "type": "string"
        },
        {
          "internalType": "string",
          "name": "_document",
          "type": "string"
        },
        {
          "internalType": "address",
          "name": "_ordersAddress",
          "type": "address"
        },
        {
          "internalType": "address",
          "name": "_storesManagementAddress",
          "type": "address"
        },
        {
          "internalType": "string",
          "name": "_physicalAddress",
          "type": "string"
        },
        {
          "internalType": "string",
          "name": "_uri",
          "type": "string"
        }
      ],
      "stateMutability": "nonpayable",
      "type": "constructor"
    },
    {
      "anonymous": false,
      "inputs": [
        {
          "indexed": false,
          "internalType": "address",
          "name": "",
          "type": "address"
        }
      ],
      "name": "OrderReceived",
      "type": "event"
    },
    {
      "anonymous": false,
      "inputs": [
        {
          "indexed": false,
          "internalType": "string",
          "name": "",
          "type": "string"
        }
      ],
      "name": "ProductAdded",
      "type": "event"
    },
    {
      "inputs": [],
      "name": "document",
      "outputs": [
        {
          "internalType": "string",
          "name": "",
          "type": "string"
        }
      ],
      "stateMutability": "view",
      "type": "function"
    },
    {
      "inputs": [],
      "name": "name",
      "outputs": [
        {
          "internalType": "string",
          "name": "",
          "type": "string"
        }
      ],
      "stateMutability": "view",
      "type": "function"
    },
    {
      "inputs": [
        {
          "internalType": "address",
          "name": "",
          "type": "address"
        },
        {
          "internalType": "address",
          "name": "",
          "type": "address"
        },
        {
          "internalType": "uint256[]",
          "name": "",
          "type": "uint256[]"
        },
        {
          "internalType": "uint256[]",
          "name": "",
          "type": "uint256[]"
        },
        {
          "internalType": "bytes",
          "name": "",
          "type": "bytes"
        }
      ],
      "name": "onERC1155BatchReceived",
      "outputs": [
        {
          "internalType": "bytes4",
          "name": "",
          "type": "bytes4"
        }
      ],
      "stateMutability": "nonpayable",
      "type": "function"
    },
    {
      "inputs": [],
      "name": "openRequests",
      "outputs": [
        {
          "internalType": "uint256",
          "name": "",
          "type": "uint256"
        }
      ],
      "stateMutability": "view",
      "type": "function"
    },
    {
      "inputs": [],
      "name": "owner",
      "outputs": [
        {
          "internalType": "address",
          "name": "",
          "type": "address"
        }
      ],
      "stateMutability": "view",
      "type": "function"
    },
    {
      "inputs": [],
      "name": "physicalAddress",
      "outputs": [
        {
          "internalType": "string",
          "name": "",
          "type": "string"
        }
      ],
      "stateMutability": "view",
      "type": "function"
    },
    {
      "inputs": [],
      "name": "products",
      "outputs": [
        {
          "internalType": "contract Products",
          "name": "",
          "type": "address"
        }
      ],
      "stateMutability": "view",
      "type": "function"
    },
    {
      "inputs": [
        {
          "internalType": "bytes4",
          "name": "interfaceId",
          "type": "bytes4"
        }
      ],
      "name": "supportsInterface",
      "outputs": [
        {
          "internalType": "bool",
          "name": "",
          "type": "bool"
        }
      ],
      "stateMutability": "view",
      "type": "function"
    },
    {
      "inputs": [],
      "name": "uri",
      "outputs": [
        {
          "internalType": "string",
          "name": "",
          "type": "string"
        }
      ],
      "stateMutability": "view",
      "type": "function"
    },
    {
      "inputs": [
        {
          "internalType": "string",
          "name": "_tokenURI",
          "type": "string"
        },
        {
          "internalType": "uint256",
          "name": "_amount",
          "type": "uint256"
        }
      ],
      "name": "createProduct",
      "outputs": [],
      "stateMutability": "nonpayable",
      "type": "function"
    },
    {
      "inputs": [
        {
          "internalType": "uint256",
          "name": "_id",
          "type": "uint256"
        },
        {
          "internalType": "uint256",
          "name": "_amount",
          "type": "uint256"
        }
      ],
      "name": "removeProduct",
      "outputs": [],
      "stateMutability": "nonpayable",
      "type": "function"
    },
    {
      "inputs": [],
      "name": "getProducts",
      "outputs": [
        {
          "internalType": "string[]",
          "name": "",
          "type": "string[]"
        }
      ],
      "stateMutability": "view",
      "type": "function"
    },
    {
      "inputs": [
        {
          "internalType": "address",
          "name": "_deliveryMan",
          "type": "address"
        },
        {
          "internalType": "uint256",
          "name": "_orderId",
          "type": "uint256"
        }
      ],
      "name": "sendOrder",
      "outputs": [],
      "stateMutability": "nonpayable",
      "type": "function"
    },
    {
      "inputs": [
        {
          "internalType": "address",
          "name": "",
          "type": "address"
        },
        {
          "internalType": "address",
          "name": "",
          "type": "address"
        },
        {
          "internalType": "uint256",
          "name": "",
          "type": "uint256"
        },
        {
          "internalType": "uint256",
          "name": "",
          "type": "uint256"
        },
        {
          "internalType": "bytes",
          "name": "",
          "type": "bytes"
        }
      ],
      "name": "onERC1155Received",
      "outputs": [
        {
          "internalType": "bytes4",
          "name": "",
          "type": "bytes4"
        }
      ],
      "stateMutability": "nonpayable",
      "type": "function"
    },
    {
      "inputs": [
        {
          "internalType": "address",
          "name": "",
          "type": "address"
        },
        {
          "internalType": "address",
          "name": "",
          "type": "address"
        },
        {
          "internalType": "uint256",
          "name": "",
          "type": "uint256"
        },
        {
          "internalType": "bytes",
          "name": "",
          "type": "bytes"
        }
      ],
      "name": "onERC721Received",
      "outputs": [
        {
          "internalType": "bytes4",
          "name": "",
          "type": "bytes4"
        }
      ],
      "stateMutability": "nonpayable",
      "type": "function"
    }
  ],
  "bytecode": "0x60806040523480156200001157600080fd5b5060405162006325380380620063258339818101604052810190620000379190620004b4565b33600460006101000a81548173ffffffffffffffffffffffffffffffffffffffff021916908373ffffffffffffffffffffffffffffffffffffffff160217905550856000908162000089919062000817565b5084600190816200009b919062000817565b50604051620000aa90620002ae565b604051809103906000f080158015620000c7573d6000803e3d6000fd5b50600760006101000a81548173ffffffffffffffffffffffffffffffffffffffff021916908373ffffffffffffffffffffffffffffffffffffffff16021790555083600660006101000a81548173ffffffffffffffffffffffffffffffffffffffff021916908373ffffffffffffffffffffffffffffffffffffffff160217905550600660009054906101000a900473ffffffffffffffffffffffffffffffffffffffff16600860006101000a81548173ffffffffffffffffffffffffffffffffffffffff021916908373ffffffffffffffffffffffffffffffffffffffff16021790555082600960006101000a81548173ffffffffffffffffffffffffffffffffffffffff021916908373ffffffffffffffffffffffffffffffffffffffff160217905550600960009054906101000a900473ffffffffffffffffffffffffffffffffffffffff1673ffffffffffffffffffffffffffffffffffffffff1663cfc80714306040518263ffffffff1660e01b81526004016200024a91906200090f565b600060405180830381600087803b1580156200026557600080fd5b505af11580156200027a573d6000803e3d6000fd5b5050505080600290816200028f919062000817565b508160039081620002a1919062000817565b505050505050506200092c565b61379a8062002b8b83390190565b6000604051905090565b600080fd5b600080fd5b600080fd5b600080fd5b6000601f19601f8301169050919050565b7f4e487b7100000000000000000000000000000000000000000000000000000000600052604160045260246000fd5b6200032582620002da565b810181811067ffffffffffffffff82111715620003475762000346620002eb565b5b80604052505050565b60006200035c620002bc565b90506200036a82826200031a565b919050565b600067ffffffffffffffff8211156200038d576200038c620002eb565b5b6200039882620002da565b9050602081019050919050565b60005b83811015620003c5578082015181840152602081019050620003a8565b60008484015250505050565b6000620003e8620003e2846200036f565b62000350565b905082815260208101848484011115620004075762000406620002d5565b5b62000414848285620003a5565b509392505050565b600082601f830112620004345762000433620002d0565b5b815162000446848260208601620003d1565b91505092915050565b600073ffffffffffffffffffffffffffffffffffffffff82169050919050565b60006200047c826200044f565b9050919050565b6200048e816200046f565b81146200049a57600080fd5b50565b600081519050620004ae8162000483565b92915050565b60008060008060008060c08789031215620004d457620004d3620002c6565b5b600087015167ffffffffffffffff811115620004f557620004f4620002cb565b5b6200050389828a016200041c565b965050602087015167ffffffffffffffff811115620005275762000526620002cb565b5b6200053589828a016200041c565b95505060406200054889828a016200049d565b94505060606200055b89828a016200049d565b935050608087015167ffffffffffffffff8111156200057f576200057e620002cb565b5b6200058d89828a016200041c565b92505060a087015167ffffffffffffffff811115620005b157620005b0620002cb565b5b620005bf89828a016200041c565b9150509295509295509295565b600081519050919050565b7f4e487b7100000000000000000000000000000000000000000000000000000000600052602260045260246000fd5b600060028204905060018216806200061f57607f821691505b602082108103620006355762000634620005d7565b5b50919050565b60008190508160005260206000209050919050565b60006020601f8301049050919050565b600082821b905092915050565b6000600883026200069f7fffffffffffffffffffffffffffffffffffffffffffffffffffffffffffffffff8262000660565b620006ab868362000660565b95508019841693508086168417925050509392505050565b6000819050919050565b6000819050919050565b6000620006f8620006f2620006ec84620006c3565b620006cd565b620006c3565b9050919050565b6000819050919050565b6200071483620006d7565b6200072c6200072382620006ff565b8484546200066d565b825550505050565b600090565b6200074362000734565b6200075081848462000709565b505050565b5b8181101562000778576200076c60008262000739565b60018101905062000756565b5050565b601f821115620007c75762000791816200063b565b6200079c8462000650565b81016020851015620007ac578190505b620007c4620007bb8562000650565b83018262000755565b50505b505050565b600082821c905092915050565b6000620007ec60001984600802620007cc565b1980831691505092915050565b6000620008078383620007d9565b9150826002028217905092915050565b6200082282620005cc565b67ffffffffffffffff8111156200083e576200083d620002eb565b5b6200084a825462000606565b620008578282856200077c565b600060209050601f8311600181146200088f57600084156200087a578287015190505b620008868582620007f9565b865550620008f6565b601f1984166200089f866200063b565b60005b82811015620008c957848901518255600182019150602085019450602081019050620008a2565b86831015620008e95784890151620008e5601f891682620007d9565b8355505b6001600288020188555050505b505050505050565b62000909816200046f565b82525050565b6000602082019050620009266000830184620008fe565b92915050565b61224f806200093c6000396000f3fe608060405234801561001057600080fd5b50600436106100f55760003560e01c8063bc197c8111610097578063c9db736f11610066578063c9db736f14610278578063e9300c6c14610294578063eac989f8146102b0578063f23a6e61146102ce576100f5565b8063bc197c81146101ee578063c29b2f201461021e578063c4becd6d1461023c578063c71e261f1461025a576100f5565b80631f4339d8116100d35780631f4339d81461017857806340868fff146101965780635287d535146101b45780638da5cb5b146101d0576100f5565b806301ffc9a7146100fa57806306fdde031461012a578063150b7a0214610148575b600080fd5b610114600480360381019061010f9190611089565b6102fe565b60405161012191906110d1565b60405180910390f35b610132610378565b60405161013f919061117c565b60405180910390f35b610162600480360381019061015d9190611367565b610406565b60405161016f91906113f9565b60405180910390f35b6101806104a7565b60405161018d919061117c565b60405180910390f35b61019e610535565b6040516101ab919061117c565b60405180910390f35b6101ce60048036038101906101c99190611414565b6105c3565b005b6101d86106e6565b6040516101e59190611463565b60405180910390f35b61020860048036038101906102039190611546565b61070c565b60405161021591906113f9565b60405180910390f35b610226610721565b6040516102339190611721565b60405180910390f35b6102446109fe565b6040516102519190611752565b60405180910390f35b610262610a04565b60405161026f91906117cc565b60405180910390f35b610292600480360381019061028d91906117e7565b610a2a565b005b6102ae60048036038101906102a991906118c8565b610db8565b005b6102b8610edb565b6040516102c5919061117c565b60405180910390f35b6102e860048036038101906102e39190611924565b610f69565b6040516102f591906113f9565b60405180910390f35b60007f4e2312e0000000000000000000000000000000000000000000000000000000007bffffffffffffffffffffffffffffffffffffffffffffffffffffffff1916827bffffffffffffffffffffffffffffffffffffffffffffffffffffffff19161480610371575061037082610fb3565b5b9050919050565b60008054610385906119ea565b80601f01602080910402602001604051908101604052809291908181526020018280546103b1906119ea565b80156103fe5780601f106103d3576101008083540402835291602001916103fe565b820191906000526020600020905b8154815290600101906020018083116103e157829003601f168201915b505050505081565b6000600660009054906101000a900473ffffffffffffffffffffffffffffffffffffffff1673ffffffffffffffffffffffffffffffffffffffff163373ffffffffffffffffffffffffffffffffffffffff1603610495577f6d9014527f153ecbcd106c871d992f9b59b9ef0595af45a6c816e9bb9cc62c813360405161048c9190611463565b60405180910390a15b63150b7a0260e01b9050949350505050565b600180546104b4906119ea565b80601f01602080910402602001604051908101604052809291908181526020018280546104e0906119ea565b801561052d5780601f106105025761010080835404028352916020019161052d565b820191906000526020600020905b81548152906001019060200180831161051057829003601f168201915b505050505081565b60038054610542906119ea565b80601f016020809104026020016040519081016040528092919081815260200182805461056e906119ea565b80156105bb5780601f10610590576101008083540402835291602001916105bb565b820191906000526020600020905b81548152906001019060200180831161059e57829003601f168201915b505050505081565b3373ffffffffffffffffffffffffffffffffffffffff16600460009054906101000a900473ffffffffffffffffffffffffffffffffffffffff1673ffffffffffffffffffffffffffffffffffffffff1614610653576040517f08c379a000000000000000000000000000000000000000000000000000000000815260040161064a90611a67565b60405180910390fd5b600760009054906101000a900473ffffffffffffffffffffffffffffffffffffffff1673ffffffffffffffffffffffffffffffffffffffff16633428675883836040518363ffffffff1660e01b81526004016106b0929190611a87565b600060405180830381600087803b1580156106ca57600080fd5b505af11580156106de573d6000803e3d6000fd5b505050505050565b600460009054906101000a900473ffffffffffffffffffffffffffffffffffffffff1681565b600063bc197c8160e01b905095945050505050565b60606000600760009054906101000a900473ffffffffffffffffffffffffffffffffffffffff1673ffffffffffffffffffffffffffffffffffffffff1663aa46a4006040518163ffffffff1660e01b8152600401602060405180830381865afa158015610792573d6000803e3d6000fd5b505050506040513d601f19601f820116820180604052508101906107b69190611ac5565b9050606080606060005b8481101561084957808482815181106107dc576107db611af2565b5b602002602001018181525050308382815181106107fc576107fb611af2565b5b602002602001019073ffffffffffffffffffffffffffffffffffffffff16908173ffffffffffffffffffffffffffffffffffffffff1681525050808061084190611b50565b9150506107c0565b506000600760009054906101000a900473ffffffffffffffffffffffffffffffffffffffff1673ffffffffffffffffffffffffffffffffffffffff16634e1273f484866040518363ffffffff1660e01b81526004016108a9929190611d14565b600060405180830381865afa1580156108c6573d6000803e3d6000fd5b505050506040513d6000823e3d601f19601f820116820180604052508101906108ef9190611de2565b905060005b858110156109f257600082828151811061091157610910611af2565b5b602002602001015111156109df57600760009054906101000a900473ffffffffffffffffffffffffffffffffffffffff1673ffffffffffffffffffffffffffffffffffffffff16630e89341c826040518263ffffffff1660e01b815260040161097a9190611752565b600060405180830381865afa158015610997573d6000803e3d6000fd5b505050506040513d6000823e3d601f19601f820116820180604052508101906109c09190611e9b565b8382815181106109d3576109d2611af2565b5b60200260200101819052505b80806109ea90611b50565b9150506108f4565b50819550505050505090565b60055481565b600760009054906101000a900473ffffffffffffffffffffffffffffffffffffffff1681565b3373ffffffffffffffffffffffffffffffffffffffff16600460009054906101000a900473ffffffffffffffffffffffffffffffffffffffff1673ffffffffffffffffffffffffffffffffffffffff1614610aba576040517f08c379a0000000000000000000000000000000000000000000000000000000008152600401610ab190611a67565b60405180910390fd5b6000600860009054906101000a900473ffffffffffffffffffffffffffffffffffffffff1673ffffffffffffffffffffffffffffffffffffffff1663fa5a7fc2836040518263ffffffff1660e01b8152600401610b179190611752565b600060405180830381865afa158015610b34573d6000803e3d6000fd5b505050506040513d6000823e3d601f19601f82011682018060405250810190610b5d9190611ffc565b905060608060005b83518111610bfc57838181518110610b8057610b7f611af2565b5b602002602001015160000151838281518110610b9f57610b9e611af2565b5b602002602001018181525050838181518110610bbe57610bbd611af2565b5b602002602001015160200151828281518110610bdd57610bdc611af2565b5b6020026020010181815250508080610bf490611b50565b915050610b65565b50600760009054906101000a900473ffffffffffffffffffffffffffffffffffffffff1673ffffffffffffffffffffffffffffffffffffffff16632eb2c2d6338785856040518563ffffffff1660e01b8152600401610c5e949392919061207c565b600060405180830381600087803b158015610c7857600080fd5b505af1158015610c8c573d6000803e3d6000fd5b50505050600860009054906101000a900473ffffffffffffffffffffffffffffffffffffffff1673ffffffffffffffffffffffffffffffffffffffff1663deb7bfea8560026040518363ffffffff1660e01b8152600401610cee92919061211d565b600060405180830381600087803b158015610d0857600080fd5b505af1158015610d1c573d6000803e3d6000fd5b50505050600860009054906101000a900473ffffffffffffffffffffffffffffffffffffffff1673ffffffffffffffffffffffffffffffffffffffff166323b872dd3387876040518463ffffffff1660e01b8152600401610d7f93929190612146565b600060405180830381600087803b158015610d9957600080fd5b505af1158015610dad573d6000803e3d6000fd5b505050505050505050565b3373ffffffffffffffffffffffffffffffffffffffff16600460009054906101000a900473ffffffffffffffffffffffffffffffffffffffff1673ffffffffffffffffffffffffffffffffffffffff1614610e48576040517f08c379a0000000000000000000000000000000000000000000000000000000008152600401610e3f90611a67565b60405180910390fd5b600760009054906101000a900473ffffffffffffffffffffffffffffffffffffffff1673ffffffffffffffffffffffffffffffffffffffff1663e9300c6c83836040518363ffffffff1660e01b8152600401610ea592919061217d565b600060405180830381600087803b158015610ebf57600080fd5b505af1158015610ed3573d6000803e3d6000fd5b505050505050565b60028054610ee8906119ea565b80601f0160208091040260200160405190810160405280929190818152602001828054610f14906119ea565b8015610f615780601f10610f3657610100808354040283529160200191610f61565b820191906000526020600020905b815481529060010190602001808311610f4457829003601f168201915b505050505081565b60007f276b58cbf13b39452b15dc9de0fcf4b0126e4ee90c5cddb1f0c44b9556277dad604051610f98906121f9565b60405180910390a163f23a6e6160e01b905095945050505050565b60007f01ffc9a7000000000000000000000000000000000000000000000000000000007bffffffffffffffffffffffffffffffffffffffffffffffffffffffff1916827bffffffffffffffffffffffffffffffffffffffffffffffffffffffff1916149050919050565b6000604051905090565b600080fd5b600080fd5b60007fffffffff0000000000000000000000000000000000000000000000000000000082169050919050565b61106681611031565b811461107157600080fd5b50565b6000813590506110838161105d565b92915050565b60006020828403121561109f5761109e611027565b5b60006110ad84828501611074565b91505092915050565b60008115159050919050565b6110cb816110b6565b82525050565b60006020820190506110e660008301846110c2565b92915050565b600081519050919050565b600082825260208201905092915050565b60005b8381101561112657808201518184015260208101905061110b565b60008484015250505050565b6000601f19601f8301169050919050565b600061114e826110ec565b61115881856110f7565b9350611168818560208601611108565b61117181611132565b840191505092915050565b600060208201905081810360008301526111968184611143565b905092915050565b600073ffffffffffffffffffffffffffffffffffffffff82169050919050565b60006111c98261119e565b9050919050565b6111d9816111be565b81146111e457600080fd5b50565b6000813590506111f6816111d0565b92915050565b6000819050919050565b61120f816111fc565b811461121a57600080fd5b50565b60008135905061122c81611206565b92915050565b600080fd5b600080fd5b7f4e487b7100000000000000000000000000000000000000000000000000000000600052604160045260246000fd5b61127482611132565b810181811067ffffffffffffffff821117156112935761129261123c565b5b80604052505050565b60006112a661101d565b90506112b2828261126b565b919050565b600067ffffffffffffffff8211156112d2576112d161123c565b5b6112db82611132565b9050602081019050919050565b82818337600083830152505050565b600061130a611305846112b7565b61129c565b90508281526020810184848401111561132657611325611237565b5b6113318482856112e8565b509392505050565b600082601f83011261134e5761134d611232565b5b813561135e8482602086016112f7565b91505092915050565b6000806000806080858703121561138157611380611027565b5b600061138f878288016111e7565b94505060206113a0878288016111e7565b93505060406113b18782880161121d565b925050606085013567ffffffffffffffff8111156113d2576113d161102c565b5b6113de87828801611339565b91505092959194509250565b6113f381611031565b82525050565b600060208201905061140e60008301846113ea565b92915050565b6000806040838503121561142b5761142a611027565b5b60006114398582860161121d565b925050602061144a8582860161121d565b9150509250929050565b61145d816111be565b82525050565b60006020820190506114786000830184611454565b92915050565b600067ffffffffffffffff8211156114995761149861123c565b5b602082029050602081019050919050565b600080fd5b60006114c26114bd8461147e565b61129c565b905080838252602082019050602084028301858111156114e5576114e46114aa565b5b835b8181101561150e57806114fa888261121d565b8452602084019350506020810190506114e7565b5050509392505050565b600082601f83011261152d5761152c611232565b5b813561153d8482602086016114af565b91505092915050565b600080600080600060a0868803121561156257611561611027565b5b6000611570888289016111e7565b9550506020611581888289016111e7565b945050604086013567ffffffffffffffff8111156115a2576115a161102c565b5b6115ae88828901611518565b935050606086013567ffffffffffffffff8111156115cf576115ce61102c565b5b6115db88828901611518565b925050608086013567ffffffffffffffff8111156115fc576115fb61102c565b5b61160888828901611339565b9150509295509295909350565b600081519050919050565b600082825260208201905092915050565b6000819050602082019050919050565b600082825260208201905092915050565b600061165d826110ec565b6116678185611641565b9350611677818560208601611108565b61168081611132565b840191505092915050565b60006116978383611652565b905092915050565b6000602082019050919050565b60006116b782611615565b6116c18185611620565b9350836020820285016116d385611631565b8060005b8581101561170f57848403895281516116f0858261168b565b94506116fb8361169f565b925060208a019950506001810190506116d7565b50829750879550505050505092915050565b6000602082019050818103600083015261173b81846116ac565b905092915050565b61174c816111fc565b82525050565b60006020820190506117676000830184611743565b92915050565b6000819050919050565b600061179261178d6117888461119e565b61176d565b61119e565b9050919050565b60006117a482611777565b9050919050565b60006117b682611799565b9050919050565b6117c6816117ab565b82525050565b60006020820190506117e160008301846117bd565b92915050565b600080604083850312156117fe576117fd611027565b5b600061180c858286016111e7565b925050602061181d8582860161121d565b9150509250929050565b600067ffffffffffffffff8211156118425761184161123c565b5b61184b82611132565b9050602081019050919050565b600061186b61186684611827565b61129c565b90508281526020810184848401111561188757611886611237565b5b6118928482856112e8565b509392505050565b600082601f8301126118af576118ae611232565b5b81356118bf848260208601611858565b91505092915050565b600080604083850312156118df576118de611027565b5b600083013567ffffffffffffffff8111156118fd576118fc61102c565b5b6119098582860161189a565b925050602061191a8582860161121d565b9150509250929050565b600080600080600060a086880312156119405761193f611027565b5b600061194e888289016111e7565b955050602061195f888289016111e7565b94505060406119708882890161121d565b93505060606119818882890161121d565b925050608086013567ffffffffffffffff8111156119a2576119a161102c565b5b6119ae88828901611339565b9150509295509295909350565b7f4e487b7100000000000000000000000000000000000000000000000000000000600052602260045260246000fd5b60006002820490506001821680611a0257607f821691505b602082108103611a1557611a146119bb565b5b50919050565b7f4e6f74206f776e65720000000000000000000000000000000000000000000000600082015250565b6000611a516009836110f7565b9150611a5c82611a1b565b602082019050919050565b60006020820190508181036000830152611a8081611a44565b9050919050565b6000604082019050611a9c6000830185611743565b611aa96020830184611743565b9392505050565b600081519050611abf81611206565b92915050565b600060208284031215611adb57611ada611027565b5b6000611ae984828501611ab0565b91505092915050565b7f4e487b7100000000000000000000000000000000000000000000000000000000600052603260045260246000fd5b7f4e487b7100000000000000000000000000000000000000000000000000000000600052601160045260246000fd5b6000611b5b826111fc565b91507fffffffffffffffffffffffffffffffffffffffffffffffffffffffffffffffff8203611b8d57611b8c611b21565b5b600182019050919050565b600081519050919050565b600082825260208201905092915050565b6000819050602082019050919050565b611bcd816111be565b82525050565b6000611bdf8383611bc4565b60208301905092915050565b6000602082019050919050565b6000611c0382611b98565b611c0d8185611ba3565b9350611c1883611bb4565b8060005b83811015611c49578151611c308882611bd3565b9750611c3b83611beb565b925050600181019050611c1c565b5085935050505092915050565b600081519050919050565b600082825260208201905092915050565b6000819050602082019050919050565b611c8b816111fc565b82525050565b6000611c9d8383611c82565b60208301905092915050565b6000602082019050919050565b6000611cc182611c56565b611ccb8185611c61565b9350611cd683611c72565b8060005b83811015611d07578151611cee8882611c91565b9750611cf983611ca9565b925050600181019050611cda565b5085935050505092915050565b60006040820190508181036000830152611d2e8185611bf8565b90508181036020830152611d428184611cb6565b90509392505050565b6000611d5e611d598461147e565b61129c565b90508083825260208201905060208402830185811115611d8157611d806114aa565b5b835b81811015611daa5780611d968882611ab0565b845260208401935050602081019050611d83565b5050509392505050565b600082601f830112611dc957611dc8611232565b5b8151611dd9848260208601611d4b565b91505092915050565b600060208284031215611df857611df7611027565b5b600082015167ffffffffffffffff811115611e1657611e1561102c565b5b611e2284828501611db4565b91505092915050565b6000611e3e611e3984611827565b61129c565b905082815260208101848484011115611e5a57611e59611237565b5b611e65848285611108565b509392505050565b600082601f830112611e8257611e81611232565b5b8151611e92848260208601611e2b565b91505092915050565b600060208284031215611eb157611eb0611027565b5b600082015167ffffffffffffffff811115611ecf57611ece61102c565b5b611edb84828501611e6d565b91505092915050565b600067ffffffffffffffff821115611eff57611efe61123c565b5b602082029050602081019050919050565b600080fd5b600060408284031215611f2b57611f2a611f10565b5b611f35604061129c565b90506000611f4584828501611ab0565b6000830152506020611f5984828501611ab0565b60208301525092915050565b6000611f78611f7384611ee4565b61129c565b90508083825260208201905060408402830185811115611f9b57611f9a6114aa565b5b835b81811015611fc45780611fb08882611f15565b845260208401935050604081019050611f9d565b5050509392505050565b600082601f830112611fe357611fe2611232565b5b8151611ff3848260208601611f65565b91505092915050565b60006020828403121561201257612011611027565b5b600082015167ffffffffffffffff8111156120305761202f61102c565b5b61203c84828501611fce565b91505092915050565b600082825260208201905092915050565b50565b6000612066600083612045565b915061207182612056565b600082019050919050565b600060a0820190506120916000830187611454565b61209e6020830186611454565b81810360408301526120b08185611cb6565b905081810360608301526120c48184611cb6565b905081810360808301526120d781612059565b905095945050505050565b6000819050919050565b60006121076121026120fd846120e2565b61176d565b6111fc565b9050919050565b612117816120ec565b82525050565b60006040820190506121326000830185611743565b61213f602083018461210e565b9392505050565b600060608201905061215b6000830186611454565b6121686020830185611454565b6121756040830184611743565b949350505050565b600060408201905081810360008301526121978185611143565b90506121a66020830184611743565b9392505050565b7f50726f6475637420616464656420776974682073756363657373000000000000600082015250565b60006121e3601a836110f7565b91506121ee826121ad565b602082019050919050565b60006020820190508181036000830152612212816121d6565b905091905056fea2646970667358221220a307fed65f3735f5ed81f1af8ea830b0a34e981daeca9fc09d9a4a3af276d7a364736f6c6343000811003360806040523480156200001157600080fd5b506040518060200160405280600081525062000033816200007b60201b60201c565b5033600360006101000a81548173ffffffffffffffffffffffffffffffffffffffff021916908373ffffffffffffffffffffffffffffffffffffffff160217905550620003f1565b80600290816200008c91906200030a565b5050565b600081519050919050565b7f4e487b7100000000000000000000000000000000000000000000000000000000600052604160045260246000fd5b7f4e487b7100000000000000000000000000000000000000000000000000000000600052602260045260246000fd5b600060028204905060018216806200011257607f821691505b602082108103620001285762000127620000ca565b5b50919050565b60008190508160005260206000209050919050565b60006020601f8301049050919050565b600082821b905092915050565b600060088302620001927fffffffffffffffffffffffffffffffffffffffffffffffffffffffffffffffff8262000153565b6200019e868362000153565b95508019841693508086168417925050509392505050565b6000819050919050565b6000819050919050565b6000620001eb620001e5620001df84620001b6565b620001c0565b620001b6565b9050919050565b6000819050919050565b6200020783620001ca565b6200021f6200021682620001f2565b84845462000160565b825550505050565b600090565b6200023662000227565b62000243818484620001fc565b505050565b5b818110156200026b576200025f6000826200022c565b60018101905062000249565b5050565b601f821115620002ba5762000284816200012e565b6200028f8462000143565b810160208510156200029f578190505b620002b7620002ae8562000143565b83018262000248565b50505b505050565b600082821c905092915050565b6000620002df60001984600802620002bf565b1980831691505092915050565b6000620002fa8383620002cc565b9150826002028217905092915050565b620003158262000090565b67ffffffffffffffff8111156200033157620003306200009b565b5b6200033d8254620000f9565b6200034a8282856200026f565b600060209050601f8311600181146200038257600084156200036d578287015190505b620003798582620002ec565b865550620003e9565b601f19841662000392866200012e565b60005b82811015620003bc5784890151825560018201915060208501945060208101905062000395565b86831015620003dc5784890151620003d8601f891682620002cc565b8355505b6001600288020188555050505b505050505050565b61339980620004016000396000f3fe608060405234801561001057600080fd5b50600436106100e95760003560e01c80638b6924791161008c578063aa46a40011610066578063aa46a40014610258578063e9300c6c14610276578063e985e9c514610292578063f242432a146102c2576100e9565b80638b692479146102025780638da5cb5b1461021e578063a22cb4651461023c576100e9565b80632eb2c2d6116100c85780632eb2c2d61461017e57806331d41c691461019a57806334286758146101b65780634e1273f4146101d2576100e9565b8062fdd58e146100ee57806301ffc9a71461011e5780630e89341c1461014e575b600080fd5b61010860048036038101906101039190611bfe565b6102de565b6040516101159190611c4d565b60405180910390f35b61013860048036038101906101339190611cc0565b6103a6565b6040516101459190611d08565b60405180910390f35b61016860048036038101906101639190611d23565b610488565b6040516101759190611de0565b60405180910390f35b61019860048036038101906101939190611fff565b61052d565b005b6101b460048036038101906101af919061216f565b6105ce565b005b6101d060048036038101906101cb91906121cb565b61066c565b005b6101ec60048036038101906101e791906122ce565b61070b565b6040516101f99190612404565b60405180910390f35b61021c600480360381019061021791906121cb565b610824565b005b6102266108d3565b6040516102339190612435565b60405180910390f35b6102566004803603810190610251919061247c565b6108f9565b005b61026061090f565b60405161026d9190611c4d565b60405180910390f35b610290600480360381019061028b91906124bc565b61091b565b005b6102ac60048036038101906102a79190612518565b6109ed565b6040516102b99190611d08565b60405180910390f35b6102dc60048036038101906102d79190612558565b610a81565b005b60008073ffffffffffffffffffffffffffffffffffffffff168373ffffffffffffffffffffffffffffffffffffffff160361034e576040517f08c379a000000000000000000000000000000000000000000000000000000000815260040161034590612661565b60405180910390fd5b60008083815260200190815260200160002060008473ffffffffffffffffffffffffffffffffffffffff1673ffffffffffffffffffffffffffffffffffffffff16815260200190815260200160002054905092915050565b60007fd9b67a26000000000000000000000000000000000000000000000000000000007bffffffffffffffffffffffffffffffffffffffffffffffffffffffff1916827bffffffffffffffffffffffffffffffffffffffffffffffffffffffff1916148061047157507f0e89341c000000000000000000000000000000000000000000000000000000007bffffffffffffffffffffffffffffffffffffffffffffffffffffffff1916827bffffffffffffffffffffffffffffffffffffffffffffffffffffffff1916145b80610481575061048082610b22565b5b9050919050565b60606004600083815260200190815260200160002080546104a8906126b0565b80601f01602080910402602001604051908101604052809291908181526020018280546104d4906126b0565b80156105215780601f106104f657610100808354040283529160200191610521565b820191906000526020600020905b81548152906001019060200180831161050457829003601f168201915b50505050509050919050565b610535610b8c565b73ffffffffffffffffffffffffffffffffffffffff168573ffffffffffffffffffffffffffffffffffffffff16148061057b575061057a85610575610b8c565b6109ed565b5b6105ba576040517f08c379a00000000000000000000000000000000000000000000000000000000081526004016105b190612753565b60405180910390fd5b6105c78585858585610b94565b5050505050565b3373ffffffffffffffffffffffffffffffffffffffff16600360009054906101000a900473ffffffffffffffffffffffffffffffffffffffff1673ffffffffffffffffffffffffffffffffffffffff161461065e576040517f08c379a0000000000000000000000000000000000000000000000000000000008152600401610655906127bf565b60405180910390fd5b6106688282610eb5565b5050565b3373ffffffffffffffffffffffffffffffffffffffff16600360009054906101000a900473ffffffffffffffffffffffffffffffffffffffff1673ffffffffffffffffffffffffffffffffffffffff16146106fc576040517f08c379a00000000000000000000000000000000000000000000000000000000081526004016106f3906127bf565b60405180910390fd5b610707338383610eda565b5050565b60608151835114610751576040517f08c379a000000000000000000000000000000000000000000000000000000000815260040161074890612851565b60405180910390fd5b6000835167ffffffffffffffff81111561076e5761076d611e07565b5b60405190808252806020026020018201604052801561079c5781602001602082028036833780820191505090505b50905060005b8451811015610819576107e98582815181106107c1576107c0612871565b5b60200260200101518583815181106107dc576107db612871565b5b60200260200101516102de565b8282815181106107fc576107fb612871565b5b60200260200101818152505080610812906128cf565b90506107a2565b508091505092915050565b3373ffffffffffffffffffffffffffffffffffffffff16600360009054906101000a900473ffffffffffffffffffffffffffffffffffffffff1673ffffffffffffffffffffffffffffffffffffffff16146108b4576040517f08c379a00000000000000000000000000000000000000000000000000000000081526004016108ab906127bf565b60405180910390fd5b6108cf33838360405180602001604052806000815250611120565b5050565b600360009054906101000a900473ffffffffffffffffffffffffffffffffffffffff1681565b61090b610904610b8c565b83836112d0565b5050565b60058060000154905081565b3373ffffffffffffffffffffffffffffffffffffffff16600360009054906101000a900473ffffffffffffffffffffffffffffffffffffffff1673ffffffffffffffffffffffffffffffffffffffff16146109ab576040517f08c379a00000000000000000000000000000000000000000000000000000000081526004016109a2906127bf565b60405180910390fd5b60006109b7600561143c565b90506109d433828460405180602001604052806000815250611120565b6109de8184610eb5565b6109e8600561144a565b505050565b6000600160008473ffffffffffffffffffffffffffffffffffffffff1673ffffffffffffffffffffffffffffffffffffffff16815260200190815260200160002060008373ffffffffffffffffffffffffffffffffffffffff1673ffffffffffffffffffffffffffffffffffffffff16815260200190815260200160002060009054906101000a900460ff16905092915050565b610a89610b8c565b73ffffffffffffffffffffffffffffffffffffffff168573ffffffffffffffffffffffffffffffffffffffff161480610acf5750610ace85610ac9610b8c565b6109ed565b5b610b0e576040517f08c379a0000000000000000000000000000000000000000000000000000000008152600401610b0590612753565b60405180910390fd5b610b1b8585858585611460565b5050505050565b60007f01ffc9a7000000000000000000000000000000000000000000000000000000007bffffffffffffffffffffffffffffffffffffffffffffffffffffffff1916827bffffffffffffffffffffffffffffffffffffffffffffffffffffffff1916149050919050565b600033905090565b8151835114610bd8576040517f08c379a0000000000000000000000000000000000000000000000000000000008152600401610bcf90612989565b60405180910390fd5b600073ffffffffffffffffffffffffffffffffffffffff168473ffffffffffffffffffffffffffffffffffffffff1603610c47576040517f08c379a0000000000000000000000000000000000000000000000000000000008152600401610c3e90612a1b565b60405180910390fd5b6000610c51610b8c565b9050610c618187878787876116fb565b60005b8451811015610e12576000858281518110610c8257610c81612871565b5b602002602001015190506000858381518110610ca157610ca0612871565b5b60200260200101519050600080600084815260200190815260200160002060008b73ffffffffffffffffffffffffffffffffffffffff1673ffffffffffffffffffffffffffffffffffffffff16815260200190815260200160002054905081811015610d42576040517f08c379a0000000000000000000000000000000000000000000000000000000008152600401610d3990612aad565b60405180910390fd5b81810360008085815260200190815260200160002060008c73ffffffffffffffffffffffffffffffffffffffff1673ffffffffffffffffffffffffffffffffffffffff168152602001908152602001600020819055508160008085815260200190815260200160002060008b73ffffffffffffffffffffffffffffffffffffffff1673ffffffffffffffffffffffffffffffffffffffff1681526020019081526020016000206000828254610df79190612acd565b9250508190555050505080610e0b906128cf565b9050610c64565b508473ffffffffffffffffffffffffffffffffffffffff168673ffffffffffffffffffffffffffffffffffffffff168273ffffffffffffffffffffffffffffffffffffffff167f4a39dc06d4c0dbc64b70af90fd698a233a518aa5d07e595d983b8c0526c8f7fb8787604051610e89929190612b01565b60405180910390a4610e9f818787878787611703565b610ead81878787878761170b565b505050505050565b80600460008481526020019081526020016000209081610ed59190612ce4565b505050565b600073ffffffffffffffffffffffffffffffffffffffff168373ffffffffffffffffffffffffffffffffffffffff1603610f49576040517f08c379a0000000000000000000000000000000000000000000000000000000008152600401610f4090612e28565b60405180910390fd5b6000610f53610b8c565b90506000610f60846118e2565b90506000610f6d846118e2565b9050610f8d838760008585604051806020016040528060008152506116fb565b600080600087815260200190815260200160002060008873ffffffffffffffffffffffffffffffffffffffff1673ffffffffffffffffffffffffffffffffffffffff16815260200190815260200160002054905084811015611024576040517f08c379a000000000000000000000000000000000000000000000000000000000815260040161101b90612eba565b60405180910390fd5b84810360008088815260200190815260200160002060008973ffffffffffffffffffffffffffffffffffffffff1673ffffffffffffffffffffffffffffffffffffffff16815260200190815260200160002081905550600073ffffffffffffffffffffffffffffffffffffffff168773ffffffffffffffffffffffffffffffffffffffff168573ffffffffffffffffffffffffffffffffffffffff167fc3d58168c5ae7397731d063d5bbf3d657854427343f4c083240f7aacaa2d0f6289896040516110f1929190612eda565b60405180910390a461111784886000868660405180602001604052806000815250611703565b50505050505050565b600073ffffffffffffffffffffffffffffffffffffffff168473ffffffffffffffffffffffffffffffffffffffff160361118f576040517f08c379a000000000000000000000000000000000000000000000000000000000815260040161118690612f75565b60405180910390fd5b6000611199610b8c565b905060006111a6856118e2565b905060006111b3856118e2565b90506111c4836000898585896116fb565b8460008088815260200190815260200160002060008973ffffffffffffffffffffffffffffffffffffffff1673ffffffffffffffffffffffffffffffffffffffff16815260200190815260200160002060008282546112239190612acd565b925050819055508673ffffffffffffffffffffffffffffffffffffffff16600073ffffffffffffffffffffffffffffffffffffffff168473ffffffffffffffffffffffffffffffffffffffff167fc3d58168c5ae7397731d063d5bbf3d657854427343f4c083240f7aacaa2d0f6289896040516112a1929190612eda565b60405180910390a46112b883600089858589611703565b6112c78360008989898961195c565b50505050505050565b8173ffffffffffffffffffffffffffffffffffffffff168373ffffffffffffffffffffffffffffffffffffffff160361133e576040517f08c379a000000000000000000000000000000000000000000000000000000000815260040161133590613007565b60405180910390fd5b80600160008573ffffffffffffffffffffffffffffffffffffffff1673ffffffffffffffffffffffffffffffffffffffff16815260200190815260200160002060008473ffffffffffffffffffffffffffffffffffffffff1673ffffffffffffffffffffffffffffffffffffffff16815260200190815260200160002060006101000a81548160ff0219169083151502179055508173ffffffffffffffffffffffffffffffffffffffff168373ffffffffffffffffffffffffffffffffffffffff167f17307eab39ab6107e8899845ad3d59bd9653f200f220920489ca2b5937696c318360405161142f9190611d08565b60405180910390a3505050565b600081600001549050919050565b6001816000016000828254019250508190555050565b600073ffffffffffffffffffffffffffffffffffffffff168473ffffffffffffffffffffffffffffffffffffffff16036114cf576040517f08c379a00000000000000000000000000000000000000000000000000000000081526004016114c690612a1b565b60405180910390fd5b60006114d9610b8c565b905060006114e6856118e2565b905060006114f3856118e2565b90506115038389898585896116fb565b600080600088815260200190815260200160002060008a73ffffffffffffffffffffffffffffffffffffffff1673ffffffffffffffffffffffffffffffffffffffff1681526020019081526020016000205490508581101561159a576040517f08c379a000000000000000000000000000000000000000000000000000000000815260040161159190612aad565b60405180910390fd5b85810360008089815260200190815260200160002060008b73ffffffffffffffffffffffffffffffffffffffff1673ffffffffffffffffffffffffffffffffffffffff168152602001908152602001600020819055508560008089815260200190815260200160002060008a73ffffffffffffffffffffffffffffffffffffffff1673ffffffffffffffffffffffffffffffffffffffff168152602001908152602001600020600082825461164f9190612acd565b925050819055508773ffffffffffffffffffffffffffffffffffffffff168973ffffffffffffffffffffffffffffffffffffffff168573ffffffffffffffffffffffffffffffffffffffff167fc3d58168c5ae7397731d063d5bbf3d657854427343f4c083240f7aacaa2d0f628a8a6040516116cc929190612eda565b60405180910390a46116e2848a8a86868a611703565b6116f0848a8a8a8a8a61195c565b505050505050505050565b505050505050565b505050505050565b61172a8473ffffffffffffffffffffffffffffffffffffffff16611b33565b156118da578373ffffffffffffffffffffffffffffffffffffffff1663bc197c8187878686866040518663ffffffff1660e01b815260040161177095949392919061307c565b6020604051808303816000875af19250505080156117ac57506040513d601f19601f820116820180604052508101906117a991906130f9565b60015b611851576117b8613133565b806308c379a00361181457506117cc613155565b806117d75750611816565b806040517f08c379a000000000000000000000000000000000000000000000000000000000815260040161180b9190611de0565b60405180910390fd5b505b6040517f08c379a000000000000000000000000000000000000000000000000000000000815260040161184890613257565b60405180910390fd5b63bc197c8160e01b7bffffffffffffffffffffffffffffffffffffffffffffffffffffffff1916817bffffffffffffffffffffffffffffffffffffffffffffffffffffffff1916146118d8576040517f08c379a00000000000000000000000000000000000000000000000000000000081526004016118cf906132e9565b60405180910390fd5b505b505050505050565b60606000600167ffffffffffffffff81111561190157611900611e07565b5b60405190808252806020026020018201604052801561192f5781602001602082028036833780820191505090505b509050828160008151811061194757611946612871565b5b60200260200101818152505080915050919050565b61197b8473ffffffffffffffffffffffffffffffffffffffff16611b33565b15611b2b578373ffffffffffffffffffffffffffffffffffffffff1663f23a6e6187878686866040518663ffffffff1660e01b81526004016119c1959493929190613309565b6020604051808303816000875af19250505080156119fd57506040513d601f19601f820116820180604052508101906119fa91906130f9565b60015b611aa257611a09613133565b806308c379a003611a655750611a1d613155565b80611a285750611a67565b806040517f08c379a0000000000000000000000000000000000000000000000000000000008152600401611a5c9190611de0565b60405180910390fd5b505b6040517f08c379a0000000000000000000000000000000000000000000000000000000008152600401611a9990613257565b60405180910390fd5b63f23a6e6160e01b7bffffffffffffffffffffffffffffffffffffffffffffffffffffffff1916817bffffffffffffffffffffffffffffffffffffffffffffffffffffffff191614611b29576040517f08c379a0000000000000000000000000000000000000000000000000000000008152600401611b20906132e9565b60405180910390fd5b505b505050505050565b6000808273ffffffffffffffffffffffffffffffffffffffff163b119050919050565b6000604051905090565b600080fd5b600080fd5b600073ffffffffffffffffffffffffffffffffffffffff82169050919050565b6000611b9582611b6a565b9050919050565b611ba581611b8a565b8114611bb057600080fd5b50565b600081359050611bc281611b9c565b92915050565b6000819050919050565b611bdb81611bc8565b8114611be657600080fd5b50565b600081359050611bf881611bd2565b92915050565b60008060408385031215611c1557611c14611b60565b5b6000611c2385828601611bb3565b9250506020611c3485828601611be9565b9150509250929050565b611c4781611bc8565b82525050565b6000602082019050611c626000830184611c3e565b92915050565b60007fffffffff0000000000000000000000000000000000000000000000000000000082169050919050565b611c9d81611c68565b8114611ca857600080fd5b50565b600081359050611cba81611c94565b92915050565b600060208284031215611cd657611cd5611b60565b5b6000611ce484828501611cab565b91505092915050565b60008115159050919050565b611d0281611ced565b82525050565b6000602082019050611d1d6000830184611cf9565b92915050565b600060208284031215611d3957611d38611b60565b5b6000611d4784828501611be9565b91505092915050565b600081519050919050565b600082825260208201905092915050565b60005b83811015611d8a578082015181840152602081019050611d6f565b60008484015250505050565b6000601f19601f8301169050919050565b6000611db282611d50565b611dbc8185611d5b565b9350611dcc818560208601611d6c565b611dd581611d96565b840191505092915050565b60006020820190508181036000830152611dfa8184611da7565b905092915050565b600080fd5b7f4e487b7100000000000000000000000000000000000000000000000000000000600052604160045260246000fd5b611e3f82611d96565b810181811067ffffffffffffffff82111715611e5e57611e5d611e07565b5b80604052505050565b6000611e71611b56565b9050611e7d8282611e36565b919050565b600067ffffffffffffffff821115611e9d57611e9c611e07565b5b602082029050602081019050919050565b600080fd5b6000611ec6611ec184611e82565b611e67565b90508083825260208201905060208402830185811115611ee957611ee8611eae565b5b835b81811015611f125780611efe8882611be9565b845260208401935050602081019050611eeb565b5050509392505050565b600082601f830112611f3157611f30611e02565b5b8135611f41848260208601611eb3565b91505092915050565b600080fd5b600067ffffffffffffffff821115611f6a57611f69611e07565b5b611f7382611d96565b9050602081019050919050565b82818337600083830152505050565b6000611fa2611f9d84611f4f565b611e67565b905082815260208101848484011115611fbe57611fbd611f4a565b5b611fc9848285611f80565b509392505050565b600082601f830112611fe657611fe5611e02565b5b8135611ff6848260208601611f8f565b91505092915050565b600080600080600060a0868803121561201b5761201a611b60565b5b600061202988828901611bb3565b955050602061203a88828901611bb3565b945050604086013567ffffffffffffffff81111561205b5761205a611b65565b5b61206788828901611f1c565b935050606086013567ffffffffffffffff81111561208857612087611b65565b5b61209488828901611f1c565b925050608086013567ffffffffffffffff8111156120b5576120b4611b65565b5b6120c188828901611fd1565b9150509295509295909350565b600067ffffffffffffffff8211156120e9576120e8611e07565b5b6120f282611d96565b9050602081019050919050565b600061211261210d846120ce565b611e67565b90508281526020810184848401111561212e5761212d611f4a565b5b612139848285611f80565b509392505050565b600082601f83011261215657612155611e02565b5b81356121668482602086016120ff565b91505092915050565b6000806040838503121561218657612185611b60565b5b600061219485828601611be9565b925050602083013567ffffffffffffffff8111156121b5576121b4611b65565b5b6121c185828601612141565b9150509250929050565b600080604083850312156121e2576121e1611b60565b5b60006121f085828601611be9565b925050602061220185828601611be9565b9150509250929050565b600067ffffffffffffffff82111561222657612225611e07565b5b602082029050602081019050919050565b600061224a6122458461220b565b611e67565b9050808382526020820190506020840283018581111561226d5761226c611eae565b5b835b8181101561229657806122828882611bb3565b84526020840193505060208101905061226f565b5050509392505050565b600082601f8301126122b5576122b4611e02565b5b81356122c5848260208601612237565b91505092915050565b600080604083850312156122e5576122e4611b60565b5b600083013567ffffffffffffffff81111561230357612302611b65565b5b61230f858286016122a0565b925050602083013567ffffffffffffffff8111156123305761232f611b65565b5b61233c85828601611f1c565b9150509250929050565b600081519050919050565b600082825260208201905092915050565b6000819050602082019050919050565b61237b81611bc8565b82525050565b600061238d8383612372565b60208301905092915050565b6000602082019050919050565b60006123b182612346565b6123bb8185612351565b93506123c683612362565b8060005b838110156123f75781516123de8882612381565b97506123e983612399565b9250506001810190506123ca565b5085935050505092915050565b6000602082019050818103600083015261241e81846123a6565b905092915050565b61242f81611b8a565b82525050565b600060208201905061244a6000830184612426565b92915050565b61245981611ced565b811461246457600080fd5b50565b60008135905061247681612450565b92915050565b6000806040838503121561249357612492611b60565b5b60006124a185828601611bb3565b92505060206124b285828601612467565b9150509250929050565b600080604083850312156124d3576124d2611b60565b5b600083013567ffffffffffffffff8111156124f1576124f0611b65565b5b6124fd85828601612141565b925050602061250e85828601611be9565b9150509250929050565b6000806040838503121561252f5761252e611b60565b5b600061253d85828601611bb3565b925050602061254e85828601611bb3565b9150509250929050565b600080600080600060a0868803121561257457612573611b60565b5b600061258288828901611bb3565b955050602061259388828901611bb3565b94505060406125a488828901611be9565b93505060606125b588828901611be9565b925050608086013567ffffffffffffffff8111156125d6576125d5611b65565b5b6125e288828901611fd1565b9150509295509295909350565b7f455243313135353a2061646472657373207a65726f206973206e6f742061207660008201527f616c6964206f776e657200000000000000000000000000000000000000000000602082015250565b600061264b602a83611d5b565b9150612656826125ef565b604082019050919050565b6000602082019050818103600083015261267a8161263e565b9050919050565b7f4e487b7100000000000000000000000000000000000000000000000000000000600052602260045260246000fd5b600060028204905060018216806126c857607f821691505b6020821081036126db576126da612681565b5b50919050565b7f455243313135353a2063616c6c6572206973206e6f7420746f6b656e206f776e60008201527f6572206e6f7220617070726f7665640000000000000000000000000000000000602082015250565b600061273d602f83611d5b565b9150612748826126e1565b604082019050919050565b6000602082019050818103600083015261276c81612730565b9050919050565b7f4e6f74206f776e65720000000000000000000000000000000000000000000000600082015250565b60006127a9600983611d5b565b91506127b482612773565b602082019050919050565b600060208201905081810360008301526127d88161279c565b9050919050565b7f455243313135353a206163636f756e747320616e6420696473206c656e67746860008201527f206d69736d617463680000000000000000000000000000000000000000000000602082015250565b600061283b602983611d5b565b9150612846826127df565b604082019050919050565b6000602082019050818103600083015261286a8161282e565b9050919050565b7f4e487b7100000000000000000000000000000000000000000000000000000000600052603260045260246000fd5b7f4e487b7100000000000000000000000000000000000000000000000000000000600052601160045260246000fd5b60006128da82611bc8565b91507fffffffffffffffffffffffffffffffffffffffffffffffffffffffffffffffff820361290c5761290b6128a0565b5b600182019050919050565b7f455243313135353a2069647320616e6420616d6f756e7473206c656e6774682060008201527f6d69736d61746368000000000000000000000000000000000000000000000000602082015250565b6000612973602883611d5b565b915061297e82612917565b604082019050919050565b600060208201905081810360008301526129a281612966565b9050919050565b7f455243313135353a207472616e7366657220746f20746865207a65726f20616460008201527f6472657373000000000000000000000000000000000000000000000000000000602082015250565b6000612a05602583611d5b565b9150612a10826129a9565b604082019050919050565b60006020820190508181036000830152612a34816129f8565b9050919050565b7f455243313135353a20696e73756666696369656e742062616c616e636520666f60008201527f72207472616e7366657200000000000000000000000000000000000000000000602082015250565b6000612a97602a83611d5b565b9150612aa282612a3b565b604082019050919050565b60006020820190508181036000830152612ac681612a8a565b9050919050565b6000612ad882611bc8565b9150612ae383611bc8565b9250828201905080821115612afb57612afa6128a0565b5b92915050565b60006040820190508181036000830152612b1b81856123a6565b90508181036020830152612b2f81846123a6565b90509392505050565b60008190508160005260206000209050919050565b60006020601f8301049050919050565b600082821b905092915050565b600060088302612b9a7fffffffffffffffffffffffffffffffffffffffffffffffffffffffffffffffff82612b5d565b612ba48683612b5d565b95508019841693508086168417925050509392505050565b6000819050919050565b6000612be1612bdc612bd784611bc8565b612bbc565b611bc8565b9050919050565b6000819050919050565b612bfb83612bc6565b612c0f612c0782612be8565b848454612b6a565b825550505050565b600090565b612c24612c17565b612c2f818484612bf2565b505050565b5b81811015612c5357612c48600082612c1c565b600181019050612c35565b5050565b601f821115612c9857612c6981612b38565b612c7284612b4d565b81016020851015612c81578190505b612c95612c8d85612b4d565b830182612c34565b50505b505050565b600082821c905092915050565b6000612cbb60001984600802612c9d565b1980831691505092915050565b6000612cd48383612caa565b9150826002028217905092915050565b612ced82611d50565b67ffffffffffffffff811115612d0657612d05611e07565b5b612d1082546126b0565b612d1b828285612c57565b600060209050601f831160018114612d4e5760008415612d3c578287015190505b612d468582612cc8565b865550612dae565b601f198416612d5c86612b38565b60005b82811015612d8457848901518255600182019150602085019450602081019050612d5f565b86831015612da15784890151612d9d601f891682612caa565b8355505b6001600288020188555050505b505050505050565b7f455243313135353a206275726e2066726f6d20746865207a65726f206164647260008201527f6573730000000000000000000000000000000000000000000000000000000000602082015250565b6000612e12602383611d5b565b9150612e1d82612db6565b604082019050919050565b60006020820190508181036000830152612e4181612e05565b9050919050565b7f455243313135353a206275726e20616d6f756e7420657863656564732062616c60008201527f616e636500000000000000000000000000000000000000000000000000000000602082015250565b6000612ea4602483611d5b565b9150612eaf82612e48565b604082019050919050565b60006020820190508181036000830152612ed381612e97565b9050919050565b6000604082019050612eef6000830185611c3e565b612efc6020830184611c3e565b9392505050565b7f455243313135353a206d696e7420746f20746865207a65726f2061646472657360008201527f7300000000000000000000000000000000000000000000000000000000000000602082015250565b6000612f5f602183611d5b565b9150612f6a82612f03565b604082019050919050565b60006020820190508181036000830152612f8e81612f52565b9050919050565b7f455243313135353a2073657474696e6720617070726f76616c2073746174757360008201527f20666f722073656c660000000000000000000000000000000000000000000000602082015250565b6000612ff1602983611d5b565b9150612ffc82612f95565b604082019050919050565b6000602082019050818103600083015261302081612fe4565b9050919050565b600081519050919050565b600082825260208201905092915050565b600061304e82613027565b6130588185613032565b9350613068818560208601611d6c565b61307181611d96565b840191505092915050565b600060a0820190506130916000830188612426565b61309e6020830187612426565b81810360408301526130b081866123a6565b905081810360608301526130c481856123a6565b905081810360808301526130d88184613043565b90509695505050505050565b6000815190506130f381611c94565b92915050565b60006020828403121561310f5761310e611b60565b5b600061311d848285016130e4565b91505092915050565b60008160e01c9050919050565b600060033d11156131525760046000803e61314f600051613126565b90505b90565b600060443d106131e257613167611b56565b60043d036004823e80513d602482011167ffffffffffffffff8211171561318f5750506131e2565b808201805167ffffffffffffffff8111156131ad57505050506131e2565b80602083010160043d0385018111156131ca5750505050506131e2565b6131d982602001850186611e36565b82955050505050505b90565b7f455243313135353a207472616e7366657220746f206e6f6e204552433131353560008201527f526563656976657220696d706c656d656e746572000000000000000000000000602082015250565b6000613241603483611d5b565b915061324c826131e5565b604082019050919050565b6000602082019050818103600083015261327081613234565b9050919050565b7f455243313135353a204552433131353552656365697665722072656a6563746560008201527f6420746f6b656e73000000000000000000000000000000000000000000000000602082015250565b60006132d3602883611d5b565b91506132de82613277565b604082019050919050565b60006020820190508181036000830152613302816132c6565b9050919050565b600060a08201905061331e6000830188612426565b61332b6020830187612426565b6133386040830186611c3e565b6133456060830185611c3e565b81810360808301526133578184613043565b9050969550505050505056fea264697066735822122064b9a5a83f503f618b715a12e9e2517e0acd09a45a958609aa451b55986e4a0d64736f6c63430008110033",
  "immutableReferences": {},
  "source": "// SPDX-License-Identifier: MIT\r\n\r\npragma solidity ^0.8.15;\r\n\r\nimport \"../node_modules/@openzeppelin/contracts/token/ERC1155/utils/ERC1155Holder.sol\";\r\nimport \"../node_modules/@openzeppelin/contracts/token/ERC721/utils/ERC721Holder.sol\";\r\nimport \"./product.sol\";\r\nimport \"./orders.sol\";\r\nimport \"./storesManagement.sol\";\r\n\r\ncontract Store is ERC1155Holder, ERC721Holder {\r\n    string public name;\r\n    string public document;\r\n    string public uri;\r\n    string public physicalAddress;\r\n    address public owner;\r\n    uint256 public openRequests;\r\n    address private ordersAddress;\r\n    Products public products;\r\n    Orders ordersInstance;\r\n    StoresManagement storesManagementInstance;\r\n\r\n    event ProductAdded(string);\r\n    event OrderReceived(address);\r\n\r\n    modifier isOwner() {\r\n        require(owner == msg.sender, \"Not owner\");\r\n        _;\r\n    }\r\n\r\n    constructor(\r\n        string memory _name,\r\n        string memory _document,\r\n        address _ordersAddress,\r\n        address _storesManagementAddress,\r\n        string memory _physicalAddress,\r\n        string memory _uri\r\n    ) {\r\n        owner = msg.sender;\r\n        name = _name;\r\n        document = _document;\r\n        products = new Products();\r\n        ordersAddress = _ordersAddress;\r\n        ordersInstance = Orders(ordersAddress);\r\n        storesManagementInstance = StoresManagement(_storesManagementAddress);\r\n        storesManagementInstance.addNewStore(address(this));\r\n        uri = _uri;\r\n        physicalAddress = _physicalAddress;\r\n    }\r\n\r\n    function createProduct(string memory _tokenURI, uint256 _amount)\r\n        public\r\n        isOwner\r\n    {\r\n        products.createProduct(_tokenURI, _amount);\r\n    }\r\n\r\n    function removeProduct(uint256 _id, uint256 _amount) public isOwner {\r\n        products.burnProduct(_id, _amount);\r\n    }\r\n\r\n    function getProducts() public view returns (string[] memory) {\r\n        uint256 id = products._tokenIds();\r\n        uint256[] memory itens;\r\n        address[] memory addresses;\r\n        string[] memory uris;\r\n        for (uint256 i = 0; i < id; i++) {\r\n            itens[i] = i;\r\n            addresses[i] = address(this);\r\n        }\r\n        uint256[] memory amountOfItens = products.balanceOfBatch(addresses, itens);\r\n        for (uint256 i = 0; i < id; i++) {\r\n            if (amountOfItens[i] > 0) {\r\n                uris[i] = products.uri(i);\r\n            }\r\n        }\r\n        return uris;\r\n    }\r\n\r\n    function sendOrder(address _deliveryMan, uint256 _orderId) public isOwner {\r\n        Orders.OrderDetails[] memory itens = ordersInstance\r\n            .getOrderDetailsArray(_orderId);\r\n        uint256[] memory itensId;\r\n        uint256[] memory itensAmount;\r\n        for (uint256 i = 0; i <= itens.length; i++) {\r\n            itensId[i] = itens[i]._itemId;\r\n            itensAmount[i] = itens[i]._amount;\r\n        }\r\n        products.safeBatchTransferFrom(\r\n            msg.sender,\r\n            _deliveryMan,\r\n            itensId,\r\n            itensAmount,\r\n            \"\"\r\n        );\r\n        ordersInstance.changeOrderStatus(_orderId, 2);\r\n        ordersInstance.transferFrom(msg.sender, _deliveryMan, _orderId);\r\n    }\r\n\r\n    function onERC1155Received(\r\n        address,\r\n        address,\r\n        uint256,\r\n        uint256,\r\n        bytes memory\r\n    ) public override returns (bytes4) {\r\n        emit ProductAdded(\"Product added with success\");\r\n        return this.onERC1155Received.selector;\r\n    }\r\n\r\n    function onERC721Received(\r\n        address,\r\n        address,\r\n        uint256,\r\n        bytes memory\r\n    ) public override returns (bytes4) {\r\n        if (msg.sender == ordersAddress) emit OrderReceived(msg.sender);\r\n        return this.onERC721Received.selector;\r\n    }\r\n}\r\n",
  "sourcePath": "C:\\Users\\reish\\Documents\\GitHub\\EthGlobalProject\\front\\src\\ethereum\\contracts\\store.sol",
  "compiler": {
    "name": "solc",
    "version": "0.8.17+commit.8df45f5f.Emscripten.clang"
  },
  "schemaVersion": "3.4.10",
  "updatedAt": "2022-10-09T09:09:54.782Z",
  "devdoc": {
    "kind": "dev",
    "methods": {
      "onERC721Received(address,address,uint256,bytes)": {
        "details": "See {IERC721Receiver-onERC721Received}. Always returns `IERC721Receiver.onERC721Received.selector`."
      },
      "supportsInterface(bytes4)": {
        "details": "See {IERC165-supportsInterface}."
      }
    },
    "version": 1
  },
  "userdoc": {
    "kind": "user",
    "methods": {},
    "version": 1
  }
}