{
  "contractName": "Store",
  "abi": [
    {
      "inputs": [
        {
          "internalType": "string",
          "name": "_name",
          "type": "string"
        },
        {
          "internalType": "string",
          "name": "_document",
          "type": "string"
        },
        {
          "internalType": "address",
          "name": "_ordersAddress",
          "type": "address"
        },
        {
          "internalType": "address",
          "name": "_storesManagementAddress",
          "type": "address"
        }
      ],
      "stateMutability": "nonpayable",
      "type": "constructor"
    },
    {
      "anonymous": false,
      "inputs": [
        {
          "indexed": false,
          "internalType": "address",
          "name": "",
          "type": "address"
        }
      ],
      "name": "OrderReceived",
      "type": "event"
    },
    {
      "anonymous": false,
      "inputs": [
        {
          "indexed": false,
          "internalType": "string",
          "name": "",
          "type": "string"
        }
      ],
      "name": "ProductAdded",
      "type": "event"
    },
    {
      "inputs": [],
      "name": "document",
      "outputs": [
        {
          "internalType": "string",
          "name": "",
          "type": "string"
        }
      ],
      "stateMutability": "view",
      "type": "function"
    },
    {
      "inputs": [],
      "name": "name",
      "outputs": [
        {
          "internalType": "string",
          "name": "",
          "type": "string"
        }
      ],
      "stateMutability": "view",
      "type": "function"
    },
    {
      "inputs": [
        {
          "internalType": "address",
          "name": "",
          "type": "address"
        },
        {
          "internalType": "address",
          "name": "",
          "type": "address"
        },
        {
          "internalType": "uint256[]",
          "name": "",
          "type": "uint256[]"
        },
        {
          "internalType": "uint256[]",
          "name": "",
          "type": "uint256[]"
        },
        {
          "internalType": "bytes",
          "name": "",
          "type": "bytes"
        }
      ],
      "name": "onERC1155BatchReceived",
      "outputs": [
        {
          "internalType": "bytes4",
          "name": "",
          "type": "bytes4"
        }
      ],
      "stateMutability": "nonpayable",
      "type": "function"
    },
    {
      "inputs": [],
      "name": "openRequests",
      "outputs": [
        {
          "internalType": "uint256",
          "name": "",
          "type": "uint256"
        }
      ],
      "stateMutability": "view",
      "type": "function"
    },
    {
      "inputs": [],
      "name": "owner",
      "outputs": [
        {
          "internalType": "address",
          "name": "",
          "type": "address"
        }
      ],
      "stateMutability": "view",
      "type": "function"
    },
    {
      "inputs": [],
      "name": "products",
      "outputs": [
        {
          "internalType": "contract Products",
          "name": "",
          "type": "address"
        }
      ],
      "stateMutability": "view",
      "type": "function"
    },
    {
      "inputs": [
        {
          "internalType": "bytes4",
          "name": "interfaceId",
          "type": "bytes4"
        }
      ],
      "name": "supportsInterface",
      "outputs": [
        {
          "internalType": "bool",
          "name": "",
          "type": "bool"
        }
      ],
      "stateMutability": "view",
      "type": "function"
    },
    {
      "inputs": [
        {
          "internalType": "string",
          "name": "_tokenURI",
          "type": "string"
        }
      ],
      "name": "createProduct",
      "outputs": [],
      "stateMutability": "nonpayable",
      "type": "function"
    },
    {
      "inputs": [
        {
          "internalType": "uint256",
          "name": "_id",
          "type": "uint256"
        }
      ],
      "name": "removeProduct",
      "outputs": [],
      "stateMutability": "nonpayable",
      "type": "function"
    },
    {
      "inputs": [
        {
          "internalType": "address",
          "name": "_deliverMan",
          "type": "address"
        },
        {
          "internalType": "uint256",
          "name": "_orderId",
          "type": "uint256"
        }
      ],
      "name": "sendOrder",
      "outputs": [],
      "stateMutability": "nonpayable",
      "type": "function"
    },
    {
      "inputs": [
        {
          "internalType": "address",
          "name": "",
          "type": "address"
        },
        {
          "internalType": "address",
          "name": "",
          "type": "address"
        },
        {
          "internalType": "uint256",
          "name": "",
          "type": "uint256"
        },
        {
          "internalType": "uint256",
          "name": "",
          "type": "uint256"
        },
        {
          "internalType": "bytes",
          "name": "",
          "type": "bytes"
        }
      ],
      "name": "onERC1155Received",
      "outputs": [
        {
          "internalType": "bytes4",
          "name": "",
          "type": "bytes4"
        }
      ],
      "stateMutability": "nonpayable",
      "type": "function"
    },
    {
      "inputs": [
        {
          "internalType": "address",
          "name": "",
          "type": "address"
        },
        {
          "internalType": "address",
          "name": "",
          "type": "address"
        },
        {
          "internalType": "uint256",
          "name": "",
          "type": "uint256"
        },
        {
          "internalType": "bytes",
          "name": "",
          "type": "bytes"
        }
      ],
      "name": "onERC721Received",
      "outputs": [
        {
          "internalType": "bytes4",
          "name": "",
          "type": "bytes4"
        }
      ],
      "stateMutability": "nonpayable",
      "type": "function"
    }
  ],
  "bytecode": "0x60806040523480156200001157600080fd5b50604051620059823803806200598283398181016040528101906200003791906200048e565b33600260006101000a81548173ffffffffffffffffffffffffffffffffffffffff021916908373ffffffffffffffffffffffffffffffffffffffff160217905550836000908162000089919062000789565b5082600190816200009b919062000789565b50604051620000aa9062000288565b604051809103906000f080158015620000c7573d6000803e3d6000fd5b50600560006101000a81548173ffffffffffffffffffffffffffffffffffffffff021916908373ffffffffffffffffffffffffffffffffffffffff16021790555081600460006101000a81548173ffffffffffffffffffffffffffffffffffffffff021916908373ffffffffffffffffffffffffffffffffffffffff160217905550600460009054906101000a900473ffffffffffffffffffffffffffffffffffffffff16600660006101000a81548173ffffffffffffffffffffffffffffffffffffffff021916908373ffffffffffffffffffffffffffffffffffffffff16021790555080600760006101000a81548173ffffffffffffffffffffffffffffffffffffffff021916908373ffffffffffffffffffffffffffffffffffffffff160217905550600760009054906101000a900473ffffffffffffffffffffffffffffffffffffffff1673ffffffffffffffffffffffffffffffffffffffff1663cfc80714306040518263ffffffff1660e01b81526004016200024a919062000881565b600060405180830381600087803b1580156200026557600080fd5b505af11580156200027a573d6000803e3d6000fd5b50505050505050506200089e565b61378780620021fb83390190565b6000604051905090565b600080fd5b600080fd5b600080fd5b600080fd5b6000601f19601f8301169050919050565b7f4e487b7100000000000000000000000000000000000000000000000000000000600052604160045260246000fd5b620002ff82620002b4565b810181811067ffffffffffffffff82111715620003215762000320620002c5565b5b80604052505050565b60006200033662000296565b9050620003448282620002f4565b919050565b600067ffffffffffffffff821115620003675762000366620002c5565b5b6200037282620002b4565b9050602081019050919050565b60005b838110156200039f57808201518184015260208101905062000382565b60008484015250505050565b6000620003c2620003bc8462000349565b6200032a565b905082815260208101848484011115620003e157620003e0620002af565b5b620003ee8482856200037f565b509392505050565b600082601f8301126200040e576200040d620002aa565b5b815162000420848260208601620003ab565b91505092915050565b600073ffffffffffffffffffffffffffffffffffffffff82169050919050565b6000620004568262000429565b9050919050565b620004688162000449565b81146200047457600080fd5b50565b60008151905062000488816200045d565b92915050565b60008060008060808587031215620004ab57620004aa620002a0565b5b600085015167ffffffffffffffff811115620004cc57620004cb620002a5565b5b620004da87828801620003f6565b945050602085015167ffffffffffffffff811115620004fe57620004fd620002a5565b5b6200050c87828801620003f6565b93505060406200051f8782880162000477565b9250506060620005328782880162000477565b91505092959194509250565b600081519050919050565b7f4e487b7100000000000000000000000000000000000000000000000000000000600052602260045260246000fd5b600060028204905060018216806200059157607f821691505b602082108103620005a757620005a662000549565b5b50919050565b60008190508160005260206000209050919050565b60006020601f8301049050919050565b600082821b905092915050565b600060088302620006117fffffffffffffffffffffffffffffffffffffffffffffffffffffffffffffffff82620005d2565b6200061d8683620005d2565b95508019841693508086168417925050509392505050565b6000819050919050565b6000819050919050565b60006200066a620006646200065e8462000635565b6200063f565b62000635565b9050919050565b6000819050919050565b620006868362000649565b6200069e620006958262000671565b848454620005df565b825550505050565b600090565b620006b5620006a6565b620006c28184846200067b565b505050565b5b81811015620006ea57620006de600082620006ab565b600181019050620006c8565b5050565b601f82111562000739576200070381620005ad565b6200070e84620005c2565b810160208510156200071e578190505b620007366200072d85620005c2565b830182620006c7565b50505b505050565b600082821c905092915050565b60006200075e600019846008026200073e565b1980831691505092915050565b60006200077983836200074b565b9150826002028217905092915050565b62000794826200053e565b67ffffffffffffffff811115620007b057620007af620002c5565b5b620007bc825462000578565b620007c9828285620006ee565b600060209050601f831160018114620008015760008415620007ec578287015190505b620007f885826200076b565b86555062000868565b601f1984166200081186620005ad565b60005b828110156200083b5784890151825560018201915060208501945060208101905062000814565b868310156200085b578489015162000857601f8916826200074b565b8355505b6001600288020188555050505b505050505050565b6200087b8162000449565b82525050565b600060208201905062000898600083018462000870565b92915050565b61194d80620008ae6000396000f3fe608060405234801561001057600080fd5b50600436106100b45760003560e01c80638da5cb5b116100715780638da5cb5b1461018d578063bc197c81146101ab578063c4becd6d146101db578063c71e261f146101f9578063c9db736f14610217578063f23a6e6114610233576100b4565b806301ffc9a7146100b957806302ec06be146100e957806306fdde0314610105578063150b7a02146101235780631f4339d8146101535780635ee95cae14610171575b600080fd5b6100d360048036038101906100ce9190610bef565b610263565b6040516100e09190610c37565b60405180910390f35b61010360048036038101906100fe9190610d98565b6102dd565b005b61010d6103fd565b60405161011a9190610e60565b60405180910390f35b61013d60048036038101906101389190610fb7565b61048b565b60405161014a9190611049565b60405180910390f35b61015b61052c565b6040516101689190610e60565b60405180910390f35b61018b60048036038101906101869190611064565b6105ba565b005b6101956106da565b6040516101a291906110a0565b60405180910390f35b6101c560048036038101906101c09190611183565b610700565b6040516101d29190611049565b60405180910390f35b6101e3610715565b6040516101f09190611261565b60405180910390f35b61020161071b565b60405161020e91906112db565b60405180910390f35b610231600480360381019061022c91906112f6565b610741565b005b61024d60048036038101906102489190611336565b610acf565b60405161025a9190611049565b60405180910390f35b60007f4e2312e0000000000000000000000000000000000000000000000000000000007bffffffffffffffffffffffffffffffffffffffffffffffffffffffff1916827bffffffffffffffffffffffffffffffffffffffffffffffffffffffff191614806102d657506102d582610b19565b5b9050919050565b3373ffffffffffffffffffffffffffffffffffffffff16600260009054906101000a900473ffffffffffffffffffffffffffffffffffffffff1673ffffffffffffffffffffffffffffffffffffffff161461036d576040517f08c379a000000000000000000000000000000000000000000000000000000000815260040161036490611419565b60405180910390fd5b600560009054906101000a900473ffffffffffffffffffffffffffffffffffffffff1673ffffffffffffffffffffffffffffffffffffffff166302ec06be826040518263ffffffff1660e01b81526004016103c89190610e60565b600060405180830381600087803b1580156103e257600080fd5b505af11580156103f6573d6000803e3d6000fd5b5050505050565b6000805461040a90611468565b80601f016020809104026020016040519081016040528092919081815260200182805461043690611468565b80156104835780601f1061045857610100808354040283529160200191610483565b820191906000526020600020905b81548152906001019060200180831161046657829003601f168201915b505050505081565b6000600460009054906101000a900473ffffffffffffffffffffffffffffffffffffffff1673ffffffffffffffffffffffffffffffffffffffff163373ffffffffffffffffffffffffffffffffffffffff160361051a577f6d9014527f153ecbcd106c871d992f9b59b9ef0595af45a6c816e9bb9cc62c813360405161051191906110a0565b60405180910390a15b63150b7a0260e01b9050949350505050565b6001805461053990611468565b80601f016020809104026020016040519081016040528092919081815260200182805461056590611468565b80156105b25780601f10610587576101008083540402835291602001916105b2565b820191906000526020600020905b81548152906001019060200180831161059557829003601f168201915b505050505081565b3373ffffffffffffffffffffffffffffffffffffffff16600260009054906101000a900473ffffffffffffffffffffffffffffffffffffffff1673ffffffffffffffffffffffffffffffffffffffff161461064a576040517f08c379a000000000000000000000000000000000000000000000000000000000815260040161064190611419565b60405180910390fd5b600560009054906101000a900473ffffffffffffffffffffffffffffffffffffffff1673ffffffffffffffffffffffffffffffffffffffff166366346501826040518263ffffffff1660e01b81526004016106a59190611261565b600060405180830381600087803b1580156106bf57600080fd5b505af11580156106d3573d6000803e3d6000fd5b5050505050565b600260009054906101000a900473ffffffffffffffffffffffffffffffffffffffff1681565b600063bc197c8160e01b905095945050505050565b60035481565b600560009054906101000a900473ffffffffffffffffffffffffffffffffffffffff1681565b3373ffffffffffffffffffffffffffffffffffffffff16600260009054906101000a900473ffffffffffffffffffffffffffffffffffffffff1673ffffffffffffffffffffffffffffffffffffffff16146107d1576040517f08c379a00000000000000000000000000000000000000000000000000000000081526004016107c890611419565b60405180910390fd5b6000600660009054906101000a900473ffffffffffffffffffffffffffffffffffffffff1673ffffffffffffffffffffffffffffffffffffffff1663fa5a7fc2836040518263ffffffff1660e01b815260040161082e9190611261565b600060405180830381865afa15801561084b573d6000803e3d6000fd5b505050506040513d6000823e3d601f19601f8201168201806040525081019061087491906115c6565b905060608060005b83518111610913578381815181106108975761089661160f565b5b6020026020010151600001518382815181106108b6576108b561160f565b5b6020026020010181815250508381815181106108d5576108d461160f565b5b6020026020010151602001518282815181106108f4576108f361160f565b5b602002602001018181525050808061090b9061166d565b91505061087c565b50600560009054906101000a900473ffffffffffffffffffffffffffffffffffffffff1673ffffffffffffffffffffffffffffffffffffffff16632eb2c2d6338785856040518563ffffffff1660e01b815260040161097594939291906117aa565b600060405180830381600087803b15801561098f57600080fd5b505af11580156109a3573d6000803e3d6000fd5b50505050600660009054906101000a900473ffffffffffffffffffffffffffffffffffffffff1673ffffffffffffffffffffffffffffffffffffffff1663deb7bfea8560026040518363ffffffff1660e01b8152600401610a0592919061184b565b600060405180830381600087803b158015610a1f57600080fd5b505af1158015610a33573d6000803e3d6000fd5b50505050600660009054906101000a900473ffffffffffffffffffffffffffffffffffffffff1673ffffffffffffffffffffffffffffffffffffffff166323b872dd3387876040518463ffffffff1660e01b8152600401610a9693929190611874565b600060405180830381600087803b158015610ab057600080fd5b505af1158015610ac4573d6000803e3d6000fd5b505050505050505050565b60007f276b58cbf13b39452b15dc9de0fcf4b0126e4ee90c5cddb1f0c44b9556277dad604051610afe906118f7565b60405180910390a163f23a6e6160e01b905095945050505050565b60007f01ffc9a7000000000000000000000000000000000000000000000000000000007bffffffffffffffffffffffffffffffffffffffffffffffffffffffff1916827bffffffffffffffffffffffffffffffffffffffffffffffffffffffff1916149050919050565b6000604051905090565b600080fd5b600080fd5b60007fffffffff0000000000000000000000000000000000000000000000000000000082169050919050565b610bcc81610b97565b8114610bd757600080fd5b50565b600081359050610be981610bc3565b92915050565b600060208284031215610c0557610c04610b8d565b5b6000610c1384828501610bda565b91505092915050565b60008115159050919050565b610c3181610c1c565b82525050565b6000602082019050610c4c6000830184610c28565b92915050565b600080fd5b600080fd5b6000601f19601f8301169050919050565b7f4e487b7100000000000000000000000000000000000000000000000000000000600052604160045260246000fd5b610ca582610c5c565b810181811067ffffffffffffffff82111715610cc457610cc3610c6d565b5b80604052505050565b6000610cd7610b83565b9050610ce38282610c9c565b919050565b600067ffffffffffffffff821115610d0357610d02610c6d565b5b610d0c82610c5c565b9050602081019050919050565b82818337600083830152505050565b6000610d3b610d3684610ce8565b610ccd565b905082815260208101848484011115610d5757610d56610c57565b5b610d62848285610d19565b509392505050565b600082601f830112610d7f57610d7e610c52565b5b8135610d8f848260208601610d28565b91505092915050565b600060208284031215610dae57610dad610b8d565b5b600082013567ffffffffffffffff811115610dcc57610dcb610b92565b5b610dd884828501610d6a565b91505092915050565b600081519050919050565b600082825260208201905092915050565b60005b83811015610e1b578082015181840152602081019050610e00565b60008484015250505050565b6000610e3282610de1565b610e3c8185610dec565b9350610e4c818560208601610dfd565b610e5581610c5c565b840191505092915050565b60006020820190508181036000830152610e7a8184610e27565b905092915050565b600073ffffffffffffffffffffffffffffffffffffffff82169050919050565b6000610ead82610e82565b9050919050565b610ebd81610ea2565b8114610ec857600080fd5b50565b600081359050610eda81610eb4565b92915050565b6000819050919050565b610ef381610ee0565b8114610efe57600080fd5b50565b600081359050610f1081610eea565b92915050565b600067ffffffffffffffff821115610f3157610f30610c6d565b5b610f3a82610c5c565b9050602081019050919050565b6000610f5a610f5584610f16565b610ccd565b905082815260208101848484011115610f7657610f75610c57565b5b610f81848285610d19565b509392505050565b600082601f830112610f9e57610f9d610c52565b5b8135610fae848260208601610f47565b91505092915050565b60008060008060808587031215610fd157610fd0610b8d565b5b6000610fdf87828801610ecb565b9450506020610ff087828801610ecb565b935050604061100187828801610f01565b925050606085013567ffffffffffffffff81111561102257611021610b92565b5b61102e87828801610f89565b91505092959194509250565b61104381610b97565b82525050565b600060208201905061105e600083018461103a565b92915050565b60006020828403121561107a57611079610b8d565b5b600061108884828501610f01565b91505092915050565b61109a81610ea2565b82525050565b60006020820190506110b56000830184611091565b92915050565b600067ffffffffffffffff8211156110d6576110d5610c6d565b5b602082029050602081019050919050565b600080fd5b60006110ff6110fa846110bb565b610ccd565b90508083825260208201905060208402830185811115611122576111216110e7565b5b835b8181101561114b57806111378882610f01565b845260208401935050602081019050611124565b5050509392505050565b600082601f83011261116a57611169610c52565b5b813561117a8482602086016110ec565b91505092915050565b600080600080600060a0868803121561119f5761119e610b8d565b5b60006111ad88828901610ecb565b95505060206111be88828901610ecb565b945050604086013567ffffffffffffffff8111156111df576111de610b92565b5b6111eb88828901611155565b935050606086013567ffffffffffffffff81111561120c5761120b610b92565b5b61121888828901611155565b925050608086013567ffffffffffffffff81111561123957611238610b92565b5b61124588828901610f89565b9150509295509295909350565b61125b81610ee0565b82525050565b60006020820190506112766000830184611252565b92915050565b6000819050919050565b60006112a161129c61129784610e82565b61127c565b610e82565b9050919050565b60006112b382611286565b9050919050565b60006112c5826112a8565b9050919050565b6112d5816112ba565b82525050565b60006020820190506112f060008301846112cc565b92915050565b6000806040838503121561130d5761130c610b8d565b5b600061131b85828601610ecb565b925050602061132c85828601610f01565b9150509250929050565b600080600080600060a0868803121561135257611351610b8d565b5b600061136088828901610ecb565b955050602061137188828901610ecb565b945050604061138288828901610f01565b935050606061139388828901610f01565b925050608086013567ffffffffffffffff8111156113b4576113b3610b92565b5b6113c088828901610f89565b9150509295509295909350565b7f4e6f74206f776e65720000000000000000000000000000000000000000000000600082015250565b6000611403600983610dec565b915061140e826113cd565b602082019050919050565b60006020820190508181036000830152611432816113f6565b9050919050565b7f4e487b7100000000000000000000000000000000000000000000000000000000600052602260045260246000fd5b6000600282049050600182168061148057607f821691505b60208210810361149357611492611439565b5b50919050565b600067ffffffffffffffff8211156114b4576114b3610c6d565b5b602082029050602081019050919050565b600080fd5b6000815190506114d981610eea565b92915050565b6000604082840312156114f5576114f46114c5565b5b6114ff6040610ccd565b9050600061150f848285016114ca565b6000830152506020611523848285016114ca565b60208301525092915050565b600061154261153d84611499565b610ccd565b90508083825260208201905060408402830185811115611565576115646110e7565b5b835b8181101561158e578061157a88826114df565b845260208401935050604081019050611567565b5050509392505050565b600082601f8301126115ad576115ac610c52565b5b81516115bd84826020860161152f565b91505092915050565b6000602082840312156115dc576115db610b8d565b5b600082015167ffffffffffffffff8111156115fa576115f9610b92565b5b61160684828501611598565b91505092915050565b7f4e487b7100000000000000000000000000000000000000000000000000000000600052603260045260246000fd5b7f4e487b7100000000000000000000000000000000000000000000000000000000600052601160045260246000fd5b600061167882610ee0565b91507fffffffffffffffffffffffffffffffffffffffffffffffffffffffffffffffff82036116aa576116a961163e565b5b600182019050919050565b600081519050919050565b600082825260208201905092915050565b6000819050602082019050919050565b6116ea81610ee0565b82525050565b60006116fc83836116e1565b60208301905092915050565b6000602082019050919050565b6000611720826116b5565b61172a81856116c0565b9350611735836116d1565b8060005b8381101561176657815161174d88826116f0565b975061175883611708565b925050600181019050611739565b5085935050505092915050565b600082825260208201905092915050565b50565b6000611794600083611773565b915061179f82611784565b600082019050919050565b600060a0820190506117bf6000830187611091565b6117cc6020830186611091565b81810360408301526117de8185611715565b905081810360608301526117f28184611715565b9050818103608083015261180581611787565b905095945050505050565b6000819050919050565b600061183561183061182b84611810565b61127c565b610ee0565b9050919050565b6118458161181a565b82525050565b60006040820190506118606000830185611252565b61186d602083018461183c565b9392505050565b60006060820190506118896000830186611091565b6118966020830185611091565b6118a36040830184611252565b949350505050565b7f50726f6475637420616464656420776974682073756363657373000000000000600082015250565b60006118e1601a83610dec565b91506118ec826118ab565b602082019050919050565b60006020820190508181036000830152611910816118d4565b905091905056fea26469706673582212203fec17ffc09c1a38f7c21195d968fdbee1b0a258122aa06bccf9f199cc96e77064736f6c6343000811003360806040523480156200001157600080fd5b506040518060200160405280600081525062000033816200007b60201b60201c565b5033600360006101000a81548173ffffffffffffffffffffffffffffffffffffffff021916908373ffffffffffffffffffffffffffffffffffffffff160217905550620003f1565b80600290816200008c91906200030a565b5050565b600081519050919050565b7f4e487b7100000000000000000000000000000000000000000000000000000000600052604160045260246000fd5b7f4e487b7100000000000000000000000000000000000000000000000000000000600052602260045260246000fd5b600060028204905060018216806200011257607f821691505b602082108103620001285762000127620000ca565b5b50919050565b60008190508160005260206000209050919050565b60006020601f8301049050919050565b600082821b905092915050565b600060088302620001927fffffffffffffffffffffffffffffffffffffffffffffffffffffffffffffffff8262000153565b6200019e868362000153565b95508019841693508086168417925050509392505050565b6000819050919050565b6000819050919050565b6000620001eb620001e5620001df84620001b6565b620001c0565b620001b6565b9050919050565b6000819050919050565b6200020783620001ca565b6200021f6200021682620001f2565b84845462000160565b825550505050565b600090565b6200023662000227565b62000243818484620001fc565b505050565b5b818110156200026b576200025f6000826200022c565b60018101905062000249565b5050565b601f821115620002ba5762000284816200012e565b6200028f8462000143565b810160208510156200029f578190505b620002b7620002ae8562000143565b83018262000248565b50505b505050565b600082821c905092915050565b6000620002df60001984600802620002bf565b1980831691505092915050565b6000620002fa8383620002cc565b9150826002028217905092915050565b620003158262000090565b67ffffffffffffffff8111156200033157620003306200009b565b5b6200033d8254620000f9565b6200034a8282856200026f565b600060209050601f8311600181146200038257600084156200036d578287015190505b620003798582620002ec565b865550620003e9565b601f19841662000392866200012e565b60005b82811015620003bc5784890151825560018201915060208501945060208101905062000395565b86831015620003dc5784890151620003d8601f891682620002cc565b8355505b6001600288020188555050505b505050505050565b61338680620004016000396000f3fe608060405234801561001057600080fd5b50600436106100e95760003560e01c8063663465011161008c578063a22cb46511610066578063a22cb46514610258578063aa46a40014610274578063e985e9c514610292578063f242432a146102c2576100e9565b806366346501146102025780638b6924791461021e5780638da5cb5b1461023a576100e9565b80630e89341c116100c85780630e89341c1461016a5780632eb2c2d61461019a57806331d41c69146101b65780634e1273f4146101d2576100e9565b8062fdd58e146100ee57806301ffc9a71461011e57806302ec06be1461014e575b600080fd5b61010860048036038101906101039190611bfe565b6102de565b6040516101159190611c4d565b60405180910390f35b61013860048036038101906101339190611cc0565b6103a6565b6040516101459190611d08565b60405180910390f35b61016860048036038101906101639190611e69565b610488565b005b610184600480360381019061017f9190611eb2565b61055a565b6040516101919190611f5e565b60405180910390f35b6101b460048036038101906101af91906120e9565b6105ff565b005b6101d060048036038101906101cb91906121b8565b6106a0565b005b6101ec60048036038101906101e791906122d7565b61073e565b6040516101f9919061240d565b60405180910390f35b61021c60048036038101906102179190611eb2565b610857565b005b6102386004803603810190610233919061242f565b6108f6565b005b6102426109a5565b60405161024f919061247e565b60405180910390f35b610272600480360381019061026d91906124c5565b6109cb565b005b61027c6109e1565b6040516102899190611c4d565b60405180910390f35b6102ac60048036038101906102a79190612505565b6109ed565b6040516102b99190611d08565b60405180910390f35b6102dc60048036038101906102d79190612545565b610a81565b005b60008073ffffffffffffffffffffffffffffffffffffffff168373ffffffffffffffffffffffffffffffffffffffff160361034e576040517f08c379a00000000000000000000000000000000000000000000000000000000081526004016103459061264e565b60405180910390fd5b60008083815260200190815260200160002060008473ffffffffffffffffffffffffffffffffffffffff1673ffffffffffffffffffffffffffffffffffffffff16815260200190815260200160002054905092915050565b60007fd9b67a26000000000000000000000000000000000000000000000000000000007bffffffffffffffffffffffffffffffffffffffffffffffffffffffff1916827bffffffffffffffffffffffffffffffffffffffffffffffffffffffff1916148061047157507f0e89341c000000000000000000000000000000000000000000000000000000007bffffffffffffffffffffffffffffffffffffffffffffffffffffffff1916827bffffffffffffffffffffffffffffffffffffffffffffffffffffffff1916145b80610481575061048082610b22565b5b9050919050565b3373ffffffffffffffffffffffffffffffffffffffff16600360009054906101000a900473ffffffffffffffffffffffffffffffffffffffff1673ffffffffffffffffffffffffffffffffffffffff1614610518576040517f08c379a000000000000000000000000000000000000000000000000000000000815260040161050f906126ba565b60405180910390fd5b60006105246005610b8c565b90506105423382600160405180602001604052806000815250610b9a565b61054c8183610d4a565b6105566005610d6f565b5050565b606060046000838152602001908152602001600020805461057a90612709565b80601f01602080910402602001604051908101604052809291908181526020018280546105a690612709565b80156105f35780601f106105c8576101008083540402835291602001916105f3565b820191906000526020600020905b8154815290600101906020018083116105d657829003601f168201915b50505050509050919050565b610607610d85565b73ffffffffffffffffffffffffffffffffffffffff168573ffffffffffffffffffffffffffffffffffffffff16148061064d575061064c85610647610d85565b6109ed565b5b61068c576040517f08c379a0000000000000000000000000000000000000000000000000000000008152600401610683906127ac565b60405180910390fd5b6106998585858585610d8d565b5050505050565b3373ffffffffffffffffffffffffffffffffffffffff16600360009054906101000a900473ffffffffffffffffffffffffffffffffffffffff1673ffffffffffffffffffffffffffffffffffffffff1614610730576040517f08c379a0000000000000000000000000000000000000000000000000000000008152600401610727906126ba565b60405180910390fd5b61073a8282610d4a565b5050565b60608151835114610784576040517f08c379a000000000000000000000000000000000000000000000000000000000815260040161077b9061283e565b60405180910390fd5b6000835167ffffffffffffffff8111156107a1576107a0611d3e565b5b6040519080825280602002602001820160405280156107cf5781602001602082028036833780820191505090505b50905060005b845181101561084c5761081c8582815181106107f4576107f361285e565b5b602002602001015185838151811061080f5761080e61285e565b5b60200260200101516102de565b82828151811061082f5761082e61285e565b5b60200260200101818152505080610845906128bc565b90506107d5565b508091505092915050565b3373ffffffffffffffffffffffffffffffffffffffff16600360009054906101000a900473ffffffffffffffffffffffffffffffffffffffff1673ffffffffffffffffffffffffffffffffffffffff16146108e7576040517f08c379a00000000000000000000000000000000000000000000000000000000081526004016108de906126ba565b60405180910390fd5b6108f3338260016110ae565b50565b3373ffffffffffffffffffffffffffffffffffffffff16600360009054906101000a900473ffffffffffffffffffffffffffffffffffffffff1673ffffffffffffffffffffffffffffffffffffffff1614610986576040517f08c379a000000000000000000000000000000000000000000000000000000000815260040161097d906126ba565b60405180910390fd5b6109a133838360405180602001604052806000815250610b9a565b5050565b600360009054906101000a900473ffffffffffffffffffffffffffffffffffffffff1681565b6109dd6109d6610d85565b83836112f4565b5050565b60058060000154905081565b6000600160008473ffffffffffffffffffffffffffffffffffffffff1673ffffffffffffffffffffffffffffffffffffffff16815260200190815260200160002060008373ffffffffffffffffffffffffffffffffffffffff1673ffffffffffffffffffffffffffffffffffffffff16815260200190815260200160002060009054906101000a900460ff16905092915050565b610a89610d85565b73ffffffffffffffffffffffffffffffffffffffff168573ffffffffffffffffffffffffffffffffffffffff161480610acf5750610ace85610ac9610d85565b6109ed565b5b610b0e576040517f08c379a0000000000000000000000000000000000000000000000000000000008152600401610b05906127ac565b60405180910390fd5b610b1b8585858585611460565b5050505050565b60007f01ffc9a7000000000000000000000000000000000000000000000000000000007bffffffffffffffffffffffffffffffffffffffffffffffffffffffff1916827bffffffffffffffffffffffffffffffffffffffffffffffffffffffff1916149050919050565b600081600001549050919050565b600073ffffffffffffffffffffffffffffffffffffffff168473ffffffffffffffffffffffffffffffffffffffff1603610c09576040517f08c379a0000000000000000000000000000000000000000000000000000000008152600401610c0090612976565b60405180910390fd5b6000610c13610d85565b90506000610c20856116fb565b90506000610c2d856116fb565b9050610c3e83600089858589611775565b8460008088815260200190815260200160002060008973ffffffffffffffffffffffffffffffffffffffff1673ffffffffffffffffffffffffffffffffffffffff1681526020019081526020016000206000828254610c9d9190612996565b925050819055508673ffffffffffffffffffffffffffffffffffffffff16600073ffffffffffffffffffffffffffffffffffffffff168473ffffffffffffffffffffffffffffffffffffffff167fc3d58168c5ae7397731d063d5bbf3d657854427343f4c083240f7aacaa2d0f628989604051610d1b9291906129ca565b60405180910390a4610d328360008985858961177d565b610d4183600089898989611785565b50505050505050565b80600460008481526020019081526020016000209081610d6a9190612b9f565b505050565b6001816000016000828254019250508190555050565b600033905090565b8151835114610dd1576040517f08c379a0000000000000000000000000000000000000000000000000000000008152600401610dc890612ce3565b60405180910390fd5b600073ffffffffffffffffffffffffffffffffffffffff168473ffffffffffffffffffffffffffffffffffffffff1603610e40576040517f08c379a0000000000000000000000000000000000000000000000000000000008152600401610e3790612d75565b60405180910390fd5b6000610e4a610d85565b9050610e5a818787878787611775565b60005b845181101561100b576000858281518110610e7b57610e7a61285e565b5b602002602001015190506000858381518110610e9a57610e9961285e565b5b60200260200101519050600080600084815260200190815260200160002060008b73ffffffffffffffffffffffffffffffffffffffff1673ffffffffffffffffffffffffffffffffffffffff16815260200190815260200160002054905081811015610f3b576040517f08c379a0000000000000000000000000000000000000000000000000000000008152600401610f3290612e07565b60405180910390fd5b81810360008085815260200190815260200160002060008c73ffffffffffffffffffffffffffffffffffffffff1673ffffffffffffffffffffffffffffffffffffffff168152602001908152602001600020819055508160008085815260200190815260200160002060008b73ffffffffffffffffffffffffffffffffffffffff1673ffffffffffffffffffffffffffffffffffffffff1681526020019081526020016000206000828254610ff09190612996565b9250508190555050505080611004906128bc565b9050610e5d565b508473ffffffffffffffffffffffffffffffffffffffff168673ffffffffffffffffffffffffffffffffffffffff168273ffffffffffffffffffffffffffffffffffffffff167f4a39dc06d4c0dbc64b70af90fd698a233a518aa5d07e595d983b8c0526c8f7fb8787604051611082929190612e27565b60405180910390a461109881878787878761177d565b6110a681878787878761195c565b505050505050565b600073ffffffffffffffffffffffffffffffffffffffff168373ffffffffffffffffffffffffffffffffffffffff160361111d576040517f08c379a000000000000000000000000000000000000000000000000000000000815260040161111490612ed0565b60405180910390fd5b6000611127610d85565b90506000611134846116fb565b90506000611141846116fb565b905061116183876000858560405180602001604052806000815250611775565b600080600087815260200190815260200160002060008873ffffffffffffffffffffffffffffffffffffffff1673ffffffffffffffffffffffffffffffffffffffff168152602001908152602001600020549050848110156111f8576040517f08c379a00000000000000000000000000000000000000000000000000000000081526004016111ef90612f62565b60405180910390fd5b84810360008088815260200190815260200160002060008973ffffffffffffffffffffffffffffffffffffffff1673ffffffffffffffffffffffffffffffffffffffff16815260200190815260200160002081905550600073ffffffffffffffffffffffffffffffffffffffff168773ffffffffffffffffffffffffffffffffffffffff168573ffffffffffffffffffffffffffffffffffffffff167fc3d58168c5ae7397731d063d5bbf3d657854427343f4c083240f7aacaa2d0f6289896040516112c59291906129ca565b60405180910390a46112eb8488600086866040518060200160405280600081525061177d565b50505050505050565b8173ffffffffffffffffffffffffffffffffffffffff168373ffffffffffffffffffffffffffffffffffffffff1603611362576040517f08c379a000000000000000000000000000000000000000000000000000000000815260040161135990612ff4565b60405180910390fd5b80600160008573ffffffffffffffffffffffffffffffffffffffff1673ffffffffffffffffffffffffffffffffffffffff16815260200190815260200160002060008473ffffffffffffffffffffffffffffffffffffffff1673ffffffffffffffffffffffffffffffffffffffff16815260200190815260200160002060006101000a81548160ff0219169083151502179055508173ffffffffffffffffffffffffffffffffffffffff168373ffffffffffffffffffffffffffffffffffffffff167f17307eab39ab6107e8899845ad3d59bd9653f200f220920489ca2b5937696c31836040516114539190611d08565b60405180910390a3505050565b600073ffffffffffffffffffffffffffffffffffffffff168473ffffffffffffffffffffffffffffffffffffffff16036114cf576040517f08c379a00000000000000000000000000000000000000000000000000000000081526004016114c690612d75565b60405180910390fd5b60006114d9610d85565b905060006114e6856116fb565b905060006114f3856116fb565b9050611503838989858589611775565b600080600088815260200190815260200160002060008a73ffffffffffffffffffffffffffffffffffffffff1673ffffffffffffffffffffffffffffffffffffffff1681526020019081526020016000205490508581101561159a576040517f08c379a000000000000000000000000000000000000000000000000000000000815260040161159190612e07565b60405180910390fd5b85810360008089815260200190815260200160002060008b73ffffffffffffffffffffffffffffffffffffffff1673ffffffffffffffffffffffffffffffffffffffff168152602001908152602001600020819055508560008089815260200190815260200160002060008a73ffffffffffffffffffffffffffffffffffffffff1673ffffffffffffffffffffffffffffffffffffffff168152602001908152602001600020600082825461164f9190612996565b925050819055508773ffffffffffffffffffffffffffffffffffffffff168973ffffffffffffffffffffffffffffffffffffffff168573ffffffffffffffffffffffffffffffffffffffff167fc3d58168c5ae7397731d063d5bbf3d657854427343f4c083240f7aacaa2d0f628a8a6040516116cc9291906129ca565b60405180910390a46116e2848a8a86868a61177d565b6116f0848a8a8a8a8a611785565b505050505050505050565b60606000600167ffffffffffffffff81111561171a57611719611d3e565b5b6040519080825280602002602001820160405280156117485781602001602082028036833780820191505090505b50905082816000815181106117605761175f61285e565b5b60200260200101818152505080915050919050565b505050505050565b505050505050565b6117a48473ffffffffffffffffffffffffffffffffffffffff16611b33565b15611954578373ffffffffffffffffffffffffffffffffffffffff1663f23a6e6187878686866040518663ffffffff1660e01b81526004016117ea959493929190613069565b6020604051808303816000875af192505050801561182657506040513d601f19601f8201168201806040525081019061182391906130d8565b60015b6118cb57611832613112565b806308c379a00361188e5750611846613134565b806118515750611890565b806040517f08c379a00000000000000000000000000000000000000000000000000000000081526004016118859190611f5e565b60405180910390fd5b505b6040517f08c379a00000000000000000000000000000000000000000000000000000000081526004016118c290613236565b60405180910390fd5b63f23a6e6160e01b7bffffffffffffffffffffffffffffffffffffffffffffffffffffffff1916817bffffffffffffffffffffffffffffffffffffffffffffffffffffffff191614611952576040517f08c379a0000000000000000000000000000000000000000000000000000000008152600401611949906132c8565b60405180910390fd5b505b505050505050565b61197b8473ffffffffffffffffffffffffffffffffffffffff16611b33565b15611b2b578373ffffffffffffffffffffffffffffffffffffffff1663bc197c8187878686866040518663ffffffff1660e01b81526004016119c19594939291906132e8565b6020604051808303816000875af19250505080156119fd57506040513d601f19601f820116820180604052508101906119fa91906130d8565b60015b611aa257611a09613112565b806308c379a003611a655750611a1d613134565b80611a285750611a67565b806040517f08c379a0000000000000000000000000000000000000000000000000000000008152600401611a5c9190611f5e565b60405180910390fd5b505b6040517f08c379a0000000000000000000000000000000000000000000000000000000008152600401611a9990613236565b60405180910390fd5b63bc197c8160e01b7bffffffffffffffffffffffffffffffffffffffffffffffffffffffff1916817bffffffffffffffffffffffffffffffffffffffffffffffffffffffff191614611b29576040517f08c379a0000000000000000000000000000000000000000000000000000000008152600401611b20906132c8565b60405180910390fd5b505b505050505050565b6000808273ffffffffffffffffffffffffffffffffffffffff163b119050919050565b6000604051905090565b600080fd5b600080fd5b600073ffffffffffffffffffffffffffffffffffffffff82169050919050565b6000611b9582611b6a565b9050919050565b611ba581611b8a565b8114611bb057600080fd5b50565b600081359050611bc281611b9c565b92915050565b6000819050919050565b611bdb81611bc8565b8114611be657600080fd5b50565b600081359050611bf881611bd2565b92915050565b60008060408385031215611c1557611c14611b60565b5b6000611c2385828601611bb3565b9250506020611c3485828601611be9565b9150509250929050565b611c4781611bc8565b82525050565b6000602082019050611c626000830184611c3e565b92915050565b60007fffffffff0000000000000000000000000000000000000000000000000000000082169050919050565b611c9d81611c68565b8114611ca857600080fd5b50565b600081359050611cba81611c94565b92915050565b600060208284031215611cd657611cd5611b60565b5b6000611ce484828501611cab565b91505092915050565b60008115159050919050565b611d0281611ced565b82525050565b6000602082019050611d1d6000830184611cf9565b92915050565b600080fd5b600080fd5b6000601f19601f8301169050919050565b7f4e487b7100000000000000000000000000000000000000000000000000000000600052604160045260246000fd5b611d7682611d2d565b810181811067ffffffffffffffff82111715611d9557611d94611d3e565b5b80604052505050565b6000611da8611b56565b9050611db48282611d6d565b919050565b600067ffffffffffffffff821115611dd457611dd3611d3e565b5b611ddd82611d2d565b9050602081019050919050565b82818337600083830152505050565b6000611e0c611e0784611db9565b611d9e565b905082815260208101848484011115611e2857611e27611d28565b5b611e33848285611dea565b509392505050565b600082601f830112611e5057611e4f611d23565b5b8135611e60848260208601611df9565b91505092915050565b600060208284031215611e7f57611e7e611b60565b5b600082013567ffffffffffffffff811115611e9d57611e9c611b65565b5b611ea984828501611e3b565b91505092915050565b600060208284031215611ec857611ec7611b60565b5b6000611ed684828501611be9565b91505092915050565b600081519050919050565b600082825260208201905092915050565b60005b83811015611f19578082015181840152602081019050611efe565b60008484015250505050565b6000611f3082611edf565b611f3a8185611eea565b9350611f4a818560208601611efb565b611f5381611d2d565b840191505092915050565b60006020820190508181036000830152611f788184611f25565b905092915050565b600067ffffffffffffffff821115611f9b57611f9a611d3e565b5b602082029050602081019050919050565b600080fd5b6000611fc4611fbf84611f80565b611d9e565b90508083825260208201905060208402830185811115611fe757611fe6611fac565b5b835b818110156120105780611ffc8882611be9565b845260208401935050602081019050611fe9565b5050509392505050565b600082601f83011261202f5761202e611d23565b5b813561203f848260208601611fb1565b91505092915050565b600067ffffffffffffffff82111561206357612062611d3e565b5b61206c82611d2d565b9050602081019050919050565b600061208c61208784612048565b611d9e565b9050828152602081018484840111156120a8576120a7611d28565b5b6120b3848285611dea565b509392505050565b600082601f8301126120d0576120cf611d23565b5b81356120e0848260208601612079565b91505092915050565b600080600080600060a0868803121561210557612104611b60565b5b600061211388828901611bb3565b955050602061212488828901611bb3565b945050604086013567ffffffffffffffff81111561214557612144611b65565b5b6121518882890161201a565b935050606086013567ffffffffffffffff81111561217257612171611b65565b5b61217e8882890161201a565b925050608086013567ffffffffffffffff81111561219f5761219e611b65565b5b6121ab888289016120bb565b9150509295509295909350565b600080604083850312156121cf576121ce611b60565b5b60006121dd85828601611be9565b925050602083013567ffffffffffffffff8111156121fe576121fd611b65565b5b61220a85828601611e3b565b9150509250929050565b600067ffffffffffffffff82111561222f5761222e611d3e565b5b602082029050602081019050919050565b600061225361224e84612214565b611d9e565b9050808382526020820190506020840283018581111561227657612275611fac565b5b835b8181101561229f578061228b8882611bb3565b845260208401935050602081019050612278565b5050509392505050565b600082601f8301126122be576122bd611d23565b5b81356122ce848260208601612240565b91505092915050565b600080604083850312156122ee576122ed611b60565b5b600083013567ffffffffffffffff81111561230c5761230b611b65565b5b612318858286016122a9565b925050602083013567ffffffffffffffff81111561233957612338611b65565b5b6123458582860161201a565b9150509250929050565b600081519050919050565b600082825260208201905092915050565b6000819050602082019050919050565b61238481611bc8565b82525050565b6000612396838361237b565b60208301905092915050565b6000602082019050919050565b60006123ba8261234f565b6123c4818561235a565b93506123cf8361236b565b8060005b838110156124005781516123e7888261238a565b97506123f2836123a2565b9250506001810190506123d3565b5085935050505092915050565b6000602082019050818103600083015261242781846123af565b905092915050565b6000806040838503121561244657612445611b60565b5b600061245485828601611be9565b925050602061246585828601611be9565b9150509250929050565b61247881611b8a565b82525050565b6000602082019050612493600083018461246f565b92915050565b6124a281611ced565b81146124ad57600080fd5b50565b6000813590506124bf81612499565b92915050565b600080604083850312156124dc576124db611b60565b5b60006124ea85828601611bb3565b92505060206124fb858286016124b0565b9150509250929050565b6000806040838503121561251c5761251b611b60565b5b600061252a85828601611bb3565b925050602061253b85828601611bb3565b9150509250929050565b600080600080600060a0868803121561256157612560611b60565b5b600061256f88828901611bb3565b955050602061258088828901611bb3565b945050604061259188828901611be9565b93505060606125a288828901611be9565b925050608086013567ffffffffffffffff8111156125c3576125c2611b65565b5b6125cf888289016120bb565b9150509295509295909350565b7f455243313135353a2061646472657373207a65726f206973206e6f742061207660008201527f616c6964206f776e657200000000000000000000000000000000000000000000602082015250565b6000612638602a83611eea565b9150612643826125dc565b604082019050919050565b600060208201905081810360008301526126678161262b565b9050919050565b7f4e6f74206f776e65720000000000000000000000000000000000000000000000600082015250565b60006126a4600983611eea565b91506126af8261266e565b602082019050919050565b600060208201905081810360008301526126d381612697565b9050919050565b7f4e487b7100000000000000000000000000000000000000000000000000000000600052602260045260246000fd5b6000600282049050600182168061272157607f821691505b602082108103612734576127336126da565b5b50919050565b7f455243313135353a2063616c6c6572206973206e6f7420746f6b656e206f776e60008201527f6572206e6f7220617070726f7665640000000000000000000000000000000000602082015250565b6000612796602f83611eea565b91506127a18261273a565b604082019050919050565b600060208201905081810360008301526127c581612789565b9050919050565b7f455243313135353a206163636f756e747320616e6420696473206c656e67746860008201527f206d69736d617463680000000000000000000000000000000000000000000000602082015250565b6000612828602983611eea565b9150612833826127cc565b604082019050919050565b600060208201905081810360008301526128578161281b565b9050919050565b7f4e487b7100000000000000000000000000000000000000000000000000000000600052603260045260246000fd5b7f4e487b7100000000000000000000000000000000000000000000000000000000600052601160045260246000fd5b60006128c782611bc8565b91507fffffffffffffffffffffffffffffffffffffffffffffffffffffffffffffffff82036128f9576128f861288d565b5b600182019050919050565b7f455243313135353a206d696e7420746f20746865207a65726f2061646472657360008201527f7300000000000000000000000000000000000000000000000000000000000000602082015250565b6000612960602183611eea565b915061296b82612904565b604082019050919050565b6000602082019050818103600083015261298f81612953565b9050919050565b60006129a182611bc8565b91506129ac83611bc8565b92508282019050808211156129c4576129c361288d565b5b92915050565b60006040820190506129df6000830185611c3e565b6129ec6020830184611c3e565b9392505050565b60008190508160005260206000209050919050565b60006020601f8301049050919050565b600082821b905092915050565b600060088302612a557fffffffffffffffffffffffffffffffffffffffffffffffffffffffffffffffff82612a18565b612a5f8683612a18565b95508019841693508086168417925050509392505050565b6000819050919050565b6000612a9c612a97612a9284611bc8565b612a77565b611bc8565b9050919050565b6000819050919050565b612ab683612a81565b612aca612ac282612aa3565b848454612a25565b825550505050565b600090565b612adf612ad2565b612aea818484612aad565b505050565b5b81811015612b0e57612b03600082612ad7565b600181019050612af0565b5050565b601f821115612b5357612b24816129f3565b612b2d84612a08565b81016020851015612b3c578190505b612b50612b4885612a08565b830182612aef565b50505b505050565b600082821c905092915050565b6000612b7660001984600802612b58565b1980831691505092915050565b6000612b8f8383612b65565b9150826002028217905092915050565b612ba882611edf565b67ffffffffffffffff811115612bc157612bc0611d3e565b5b612bcb8254612709565b612bd6828285612b12565b600060209050601f831160018114612c095760008415612bf7578287015190505b612c018582612b83565b865550612c69565b601f198416612c17866129f3565b60005b82811015612c3f57848901518255600182019150602085019450602081019050612c1a565b86831015612c5c5784890151612c58601f891682612b65565b8355505b6001600288020188555050505b505050505050565b7f455243313135353a2069647320616e6420616d6f756e7473206c656e6774682060008201527f6d69736d61746368000000000000000000000000000000000000000000000000602082015250565b6000612ccd602883611eea565b9150612cd882612c71565b604082019050919050565b60006020820190508181036000830152612cfc81612cc0565b9050919050565b7f455243313135353a207472616e7366657220746f20746865207a65726f20616460008201527f6472657373000000000000000000000000000000000000000000000000000000602082015250565b6000612d5f602583611eea565b9150612d6a82612d03565b604082019050919050565b60006020820190508181036000830152612d8e81612d52565b9050919050565b7f455243313135353a20696e73756666696369656e742062616c616e636520666f60008201527f72207472616e7366657200000000000000000000000000000000000000000000602082015250565b6000612df1602a83611eea565b9150612dfc82612d95565b604082019050919050565b60006020820190508181036000830152612e2081612de4565b9050919050565b60006040820190508181036000830152612e4181856123af565b90508181036020830152612e5581846123af565b90509392505050565b7f455243313135353a206275726e2066726f6d20746865207a65726f206164647260008201527f6573730000000000000000000000000000000000000000000000000000000000602082015250565b6000612eba602383611eea565b9150612ec582612e5e565b604082019050919050565b60006020820190508181036000830152612ee981612ead565b9050919050565b7f455243313135353a206275726e20616d6f756e7420657863656564732062616c60008201527f616e636500000000000000000000000000000000000000000000000000000000602082015250565b6000612f4c602483611eea565b9150612f5782612ef0565b604082019050919050565b60006020820190508181036000830152612f7b81612f3f565b9050919050565b7f455243313135353a2073657474696e6720617070726f76616c2073746174757360008201527f20666f722073656c660000000000000000000000000000000000000000000000602082015250565b6000612fde602983611eea565b9150612fe982612f82565b604082019050919050565b6000602082019050818103600083015261300d81612fd1565b9050919050565b600081519050919050565b600082825260208201905092915050565b600061303b82613014565b613045818561301f565b9350613055818560208601611efb565b61305e81611d2d565b840191505092915050565b600060a08201905061307e600083018861246f565b61308b602083018761246f565b6130986040830186611c3e565b6130a56060830185611c3e565b81810360808301526130b78184613030565b90509695505050505050565b6000815190506130d281611c94565b92915050565b6000602082840312156130ee576130ed611b60565b5b60006130fc848285016130c3565b91505092915050565b60008160e01c9050919050565b600060033d11156131315760046000803e61312e600051613105565b90505b90565b600060443d106131c157613146611b56565b60043d036004823e80513d602482011167ffffffffffffffff8211171561316e5750506131c1565b808201805167ffffffffffffffff81111561318c57505050506131c1565b80602083010160043d0385018111156131a95750505050506131c1565b6131b882602001850186611d6d565b82955050505050505b90565b7f455243313135353a207472616e7366657220746f206e6f6e204552433131353560008201527f526563656976657220696d706c656d656e746572000000000000000000000000602082015250565b6000613220603483611eea565b915061322b826131c4565b604082019050919050565b6000602082019050818103600083015261324f81613213565b9050919050565b7f455243313135353a204552433131353552656365697665722072656a6563746560008201527f6420746f6b656e73000000000000000000000000000000000000000000000000602082015250565b60006132b2602883611eea565b91506132bd82613256565b604082019050919050565b600060208201905081810360008301526132e1816132a5565b9050919050565b600060a0820190506132fd600083018861246f565b61330a602083018761246f565b818103604083015261331c81866123af565b9050818103606083015261333081856123af565b905081810360808301526133448184613030565b9050969550505050505056fea2646970667358221220820a41503a3c76280691a84936a7ce119729d317973042cfca827becde6a368164736f6c63430008110033",
  "immutableReferences": {},
  "source": "// SPDX-License-Identifier: MIT\r\n\r\npragma solidity ^0.8.15;\r\n\r\nimport \"../node_modules/@openzeppelin/contracts/token/ERC1155/utils/ERC1155Holder.sol\";\r\nimport \"../node_modules/@openzeppelin/contracts/token/ERC721/utils/ERC721Holder.sol\";\r\nimport \"./product.sol\";\r\nimport \"./orders.sol\";\r\nimport \"./storesManagement.sol\";\r\n\r\ncontract Store is ERC1155Holder, ERC721Holder {\r\n    string public name;\r\n    string public document;\r\n    address public owner;\r\n    uint256 public openRequests;\r\n    address private ordersAddress;\r\n    Products public products;\r\n    Orders ordersInstance;\r\n    StoresManagement storesManagementInstance;\r\n\r\n    event ProductAdded(string);\r\n    event OrderReceived(address);\r\n\r\n    modifier isOwner() {\r\n        require(owner == msg.sender, \"Not owner\");\r\n        _;\r\n    }\r\n\r\n    constructor(\r\n        string memory _name,\r\n        string memory _document,\r\n        address _ordersAddress,\r\n        address _storesManagementAddress\r\n    ) {\r\n        owner = msg.sender;\r\n        name = _name;\r\n        document = _document;\r\n        products = new Products();\r\n        ordersAddress = _ordersAddress;\r\n        ordersInstance = Orders(ordersAddress);\r\n        storesManagementInstance = StoresManagement(_storesManagementAddress);\r\n        storesManagementInstance.addNewStore(address(this));\r\n    }\r\n\r\n    function createProduct(string memory _tokenURI) public isOwner {\r\n        products.createProduct(_tokenURI);\r\n    }\r\n\r\n    function removeProduct(uint256 _id) public isOwner {\r\n        products.burnProduct(_id);\r\n    }\r\n\r\n    function sendOrder(address _deliverMan, uint256 _orderId) public isOwner {\r\n        Orders.OrderDetails[] memory itens = ordersInstance\r\n            .getOrderDetailsArray(_orderId);\r\n        uint256[] memory itensId;\r\n        uint256[] memory itensAmount;\r\n        for (uint256 i = 0; i <= itens.length; i++) {\r\n            itensId[i] = itens[i]._itemId;\r\n            itensAmount[i] = itens[i]._amount;\r\n        }\r\n        products.safeBatchTransferFrom(\r\n            msg.sender,\r\n            _deliverMan,\r\n            itensId,\r\n            itensAmount,\r\n            \"\"\r\n        );\r\n        ordersInstance.changeOrderStatus(_orderId, 2);\r\n        ordersInstance.transferFrom(msg.sender, _deliverMan, _orderId);\r\n    }\r\n\r\n    function onERC1155Received(\r\n        address,\r\n        address,\r\n        uint256,\r\n        uint256,\r\n        bytes memory\r\n    ) public override returns (bytes4) {\r\n        emit ProductAdded(\"Product added with success\");\r\n        return this.onERC1155Received.selector;\r\n    }\r\n\r\n    function onERC721Received(\r\n        address,\r\n        address,\r\n        uint256,\r\n        bytes memory\r\n    ) public override returns (bytes4) {\r\n        if (msg.sender == ordersAddress) emit OrderReceived(msg.sender);\r\n        return this.onERC721Received.selector;\r\n    }\r\n}\r\n",
  "sourcePath": "C:\\Users\\Inteli\\Documents\\GitHub\\snack-fair-hackathon\\ethereum\\contracts\\store.sol",
  "compiler": {
    "name": "solc",
    "version": "0.8.17+commit.8df45f5f.Emscripten.clang"
  },
  "schemaVersion": "3.4.10",
  "updatedAt": "2022-10-09T05:41:37.373Z",
  "devdoc": {
    "kind": "dev",
    "methods": {
      "onERC721Received(address,address,uint256,bytes)": {
        "details": "See {IERC721Receiver-onERC721Received}. Always returns `IERC721Receiver.onERC721Received.selector`."
      },
      "supportsInterface(bytes4)": {
        "details": "See {IERC165-supportsInterface}."
      }
    },
    "version": 1
  },
  "userdoc": {
    "kind": "user",
    "methods": {},
    "version": 1
  }
}