{
  "contractName": "StoresManagement",
  "abi": [
    {
      "inputs": [],
      "stateMutability": "nonpayable",
      "type": "constructor"
    },
    {
      "inputs": [
        {
          "internalType": "uint256",
          "name": "",
          "type": "uint256"
        }
      ],
      "name": "stores",
      "outputs": [
        {
          "internalType": "address",
          "name": "",
          "type": "address"
        }
      ],
      "stateMutability": "view",
      "type": "function"
    },
    {
      "inputs": [
        {
          "internalType": "address",
          "name": "_address",
          "type": "address"
        }
      ],
      "name": "addNewStore",
      "outputs": [],
      "stateMutability": "nonpayable",
      "type": "function"
    },
    {
      "inputs": [],
      "name": "getStores",
      "outputs": [
        {
          "internalType": "address[]",
          "name": "",
          "type": "address[]"
        }
      ],
      "stateMutability": "view",
      "type": "function"
    }
  ],
  "bytecode": "0x608060405234801561001057600080fd5b50336000806101000a81548173ffffffffffffffffffffffffffffffffffffffff021916908373ffffffffffffffffffffffffffffffffffffffff160217905550610416806100606000396000f3fe608060405234801561001057600080fd5b50600436106100415760003560e01c80635dc917f014610046578063cfc8071414610064578063e8a59cd814610080575b600080fd5b61004e6100b0565b60405161005b91906102d3565b60405180910390f35b61007e60048036038101906100799190610326565b61013e565b005b61009a60048036038101906100959190610389565b6101a4565b6040516100a791906103c5565b60405180910390f35b6060600180548060200260200160405190810160405280929190818152602001828054801561013457602002820191906000526020600020905b8160009054906101000a900473ffffffffffffffffffffffffffffffffffffffff1673ffffffffffffffffffffffffffffffffffffffff16815260200190600101908083116100ea575b5050505050905090565b6001819080600181540180825580915050600190039060005260206000200160009091909190916101000a81548173ffffffffffffffffffffffffffffffffffffffff021916908373ffffffffffffffffffffffffffffffffffffffff16021790555050565b600181815481106101b457600080fd5b906000526020600020016000915054906101000a900473ffffffffffffffffffffffffffffffffffffffff1681565b600081519050919050565b600082825260208201905092915050565b6000819050602082019050919050565b600073ffffffffffffffffffffffffffffffffffffffff82169050919050565b600061023a8261020f565b9050919050565b61024a8161022f565b82525050565b600061025c8383610241565b60208301905092915050565b6000602082019050919050565b6000610280826101e3565b61028a81856101ee565b9350610295836101ff565b8060005b838110156102c65781516102ad8882610250565b97506102b883610268565b925050600181019050610299565b5085935050505092915050565b600060208201905081810360008301526102ed8184610275565b905092915050565b600080fd5b6103038161022f565b811461030e57600080fd5b50565b600081359050610320816102fa565b92915050565b60006020828403121561033c5761033b6102f5565b5b600061034a84828501610311565b91505092915050565b6000819050919050565b61036681610353565b811461037157600080fd5b50565b6000813590506103838161035d565b92915050565b60006020828403121561039f5761039e6102f5565b5b60006103ad84828501610374565b91505092915050565b6103bf8161022f565b82525050565b60006020820190506103da60008301846103b6565b9291505056fea264697066735822122028ba6ede70fa5f1e9ccf25153e30398a78fa9ed2a5f074f3a45412a6612d837464736f6c63430008110033",
  "immutableReferences": {},
  "source": "// SPDX-License-Identifier: MIT\r\n\r\npragma solidity ^0.8.15;\r\n\r\ncontract StoresManagement {\r\n    address private owner;\r\n    address[] public stores;\r\n\r\n    modifier isOwner() {\r\n        require(owner == msg.sender, \"Not owner\");\r\n        _;\r\n    }\r\n\r\n    constructor() {\r\n        owner = msg.sender;\r\n    }\r\n\r\n    function addNewStore(address _address) public {\r\n        stores.push(_address);\r\n    }\r\n\r\n    function getStores() view public returns(address[] memory) {\r\n        return stores;\r\n    }\r\n}\r\n",
  "sourcePath": "C:\\Users\\reish\\Documents\\GitHub\\EthGlobalProject\\front\\src\\ethereum\\contracts\\storesManagement.sol",
  "compiler": {
    "name": "solc",
    "version": "0.8.17+commit.8df45f5f.Emscripten.clang"
  },
  "schemaVersion": "3.4.10",
  "updatedAt": "2022-10-09T09:09:54.809Z",
  "devdoc": {
    "kind": "dev",
    "methods": {},
    "version": 1
  },
  "userdoc": {
    "kind": "user",
    "methods": {},
    "version": 1
  }
}